{
  "_format": "hh-sol-artifact-1",
  "contractName": "Splitter",
  "sourceName": "contracts/splits/Splitter.sol",
  "abi": [
    {
      "anonymous": false,
      "inputs": [
        {
          "indexed": false,
          "internalType": "address",
          "name": "account",
          "type": "address"
        },
        {
          "indexed": false,
          "internalType": "uint256",
          "name": "amount",
          "type": "uint256"
        },
        {
          "indexed": false,
          "internalType": "bool",
          "name": "success",
          "type": "bool"
        }
      ],
      "name": "TransferETH",
      "type": "event"
    },
    {
      "anonymous": false,
      "inputs": [
        {
          "indexed": false,
          "internalType": "uint256",
          "name": "currentWindow",
          "type": "uint256"
        },
        {
          "indexed": false,
          "internalType": "uint256",
          "name": "fundsAvailable",
          "type": "uint256"
        }
      ],
      "name": "WindowIncremented",
      "type": "event"
    },
    {
      "inputs": [],
      "name": "PERCENTAGE_SCALE",
      "outputs": [
        {
          "internalType": "uint256",
          "name": "",
          "type": "uint256"
        }
      ],
      "stateMutability": "view",
      "type": "function"
    },
    {
      "inputs": [
        {
          "internalType": "uint256",
          "name": "",
          "type": "uint256"
        }
      ],
      "name": "balanceForWindow",
      "outputs": [
        {
          "internalType": "uint256",
          "name": "",
          "type": "uint256"
        }
      ],
      "stateMutability": "view",
      "type": "function"
    },
    {
      "inputs": [
        {
          "internalType": "uint256",
          "name": "window",
          "type": "uint256"
        },
        {
          "internalType": "address",
          "name": "account",
          "type": "address"
        },
        {
          "internalType": "uint256",
          "name": "scaledPercentageAllocation",
          "type": "uint256"
        },
        {
          "internalType": "bytes32[]",
          "name": "merkleProof",
          "type": "bytes32[]"
        }
      ],
      "name": "claim",
      "outputs": [],
      "stateMutability": "nonpayable",
      "type": "function"
    },
    {
      "inputs": [
        {
          "internalType": "address",
          "name": "account",
          "type": "address"
        },
        {
          "internalType": "uint256",
          "name": "percentageAllocation",
          "type": "uint256"
        },
        {
          "internalType": "bytes32[]",
          "name": "merkleProof",
          "type": "bytes32[]"
        }
      ],
      "name": "claimForAllWindows",
      "outputs": [],
      "stateMutability": "nonpayable",
      "type": "function"
    },
    {
      "inputs": [],
      "name": "currentWindow",
      "outputs": [
        {
          "internalType": "uint256",
          "name": "",
          "type": "uint256"
        }
      ],
      "stateMutability": "view",
      "type": "function"
    },
    {
      "inputs": [],
      "name": "incrementWindow",
      "outputs": [],
      "stateMutability": "nonpayable",
      "type": "function"
    },
    {
      "inputs": [
        {
          "internalType": "uint256",
          "name": "window",
          "type": "uint256"
        },
        {
          "internalType": "address",
          "name": "account",
          "type": "address"
        }
      ],
      "name": "isClaimed",
      "outputs": [
        {
          "internalType": "bool",
          "name": "",
          "type": "bool"
        }
      ],
      "stateMutability": "view",
      "type": "function"
    },
    {
      "inputs": [],
      "name": "merkleRoot",
      "outputs": [
        {
          "internalType": "bytes32",
          "name": "",
          "type": "bytes32"
        }
      ],
      "stateMutability": "view",
      "type": "function"
    },
    {
      "inputs": [
        {
          "internalType": "uint256",
          "name": "amount",
          "type": "uint256"
        },
        {
          "internalType": "uint256",
          "name": "scaledPercent",
          "type": "uint256"
        }
      ],
      "name": "scaleAmountByPercentage",
      "outputs": [
        {
          "internalType": "uint256",
          "name": "scaledAmount",
          "type": "uint256"
        }
      ],
      "stateMutability": "pure",
      "type": "function"
    }
  ],
  "bytecode": "0x608060405234801561001057600080fd5b50611275806100206000396000f3fe608060405234801561001057600080fd5b50600436106100935760003560e01c80633f26479e116100665780633f26479e146100f857806381e580d3146101165780638ffb5c9714610146578063ba0bafb414610176578063d2ef07951461019457610093565b80631e7df9d3146100985780632e7ba6ef146100b45780632eb4a7ab146100d0578063338b1d31146100ee575b600080fd5b6100b260048036038101906100ad9190610a1f565b6101c4565b005b6100ce60048036038101906100c99190610a93565b6102dc565b005b6100d8610443565b6040516100e59190610b34565b60405180910390f35b6100f6610449565b005b61010061052e565b60405161010d9190610b5e565b60405180910390f35b610130600480360381019061012b9190610b79565b610535565b60405161013d9190610b5e565b60405180910390f35b610160600480360381019061015b9190610ba6565b610559565b60405161016d9190610b5e565b60405180910390f35b61017e610589565b60405161018b9190610b5e565b60405180910390f35b6101ae60048036038101906101a99190610be6565b61058f565b6040516101bb9190610c41565b60405180910390f35b61021b828280806020026020016040519081016040528093929190818152602001838360200280828437600081840152601f19601f8201169050808301925050505050505060005461021687876105c3565b6105f6565b61025a576040517f08c379a000000000000000000000000000000000000000000000000000000000815260040161025190610cb9565b60405180910390fd5b6000805b6001548110156102c957610272818761058f565b6102b65761028081876106ac565b6102a86004828154811061029757610296610cd9565b5b906000526020600020015486610559565b826102b39190610d37565b91505b80806102c190610d8d565b91505061025e565b506102d485826106e5565b505050505050565b8460015411610320576040517f08c379a000000000000000000000000000000000000000000000000000000000815260040161031790610e22565b60405180910390fd5b61032a858561058f565b1561036a576040517f08c379a000000000000000000000000000000000000000000000000000000000815260040161036190610eb4565b60405180910390fd5b61037485856106ac565b6103cb828280806020026020016040519081016040528093929190818152602001838360200280828437600081840152601f19601f820116905080830192505050505050506000546103c687876105c3565b6105f6565b61040a576040517f08c379a000000000000000000000000000000000000000000000000000000000815260040161040190610cb9565b60405180910390fd5b61043b846104366004888154811061042557610424610cd9565b5b906000526020600020015486610559565b6106e5565b505050505050565b60005481565b600080600154141561045d57479050610463565b60065490505b6000600681905550600081116104ae576040517f08c379a00000000000000000000000000000000000000000000000000000000081526004016104a590610f20565b60405180910390fd5b600481908060018154018082558091505060019003906000526020600020016000909190919091505560018060008282546104e99190610d37565b925050819055507ff0840b82b46c1dc7df62cae652baa1b5588ce37b6a1236ed1dcf4caf34d738ac60015482604051610523929190610f40565b60405180910390a150565b620f424081565b6004818154811061054557600080fd5b906000526020600020016000915090505481565b6000620f4240606461056b9190610f69565b82846105779190610f69565b6105819190610ff2565b905092915050565b60015481565b60006005600061059f858561086d565b815260200190815260200160002060009054906101000a900460ff16905092915050565b600082826040516020016105d892919061108c565b60405160208183030381529060405280519060200120905092915050565b60008082905060005b855181101561069e57600086828151811061061d5761061c610cd9565b5b6020026020010151905080831161065e5782816040516020016106419291906110d9565b60405160208183030381529060405280519060200120925061068a565b80836040516020016106719291906110d9565b6040516020818303038152906040528051906020012092505b50808061069690610d8d565b9150506105ff565b508381149150509392505050565b6001600560006106bc858561086d565b815260200190815260200160002060006101000a81548160ff0219169083151502179055505050565b60006106f183836108a0565b90508061082c57600260009054906101000a900473ffffffffffffffffffffffffffffffffffffffff1673ffffffffffffffffffffffffffffffffffffffff1663d0e30db0836040518263ffffffff1660e01b81526004016000604051808303818588803b15801561076257600080fd5b505af1158015610776573d6000803e3d6000fd5b5050505050600260009054906101000a900473ffffffffffffffffffffffffffffffffffffffff1673ffffffffffffffffffffffffffffffffffffffff1663a9059cbb84846040518363ffffffff1660e01b81526004016107d8929190611114565b602060405180830381600087803b1580156107f257600080fd5b505af1158015610806573d6000803e3d6000fd5b505050506040513d601f19601f8201168201806040525081019061082a9190611169565b505b7fdbd5389f52533f4cbd998e752125a5a4eaa0b813b399ad15f775ec0e8438620d83838360405161085f93929190611196565b60405180910390a192915050565b600082826040516020016108829291906111cd565b60405160208183030381529060405280519060200120905092915050565b6000808373ffffffffffffffffffffffffffffffffffffffff1683617530906040516108cb9061122a565b600060405180830381858888f193505050503d8060008114610909576040519150601f19603f3d011682016040523d82523d6000602084013e61090e565b606091505b505090508091505092915050565b600080fd5b600080fd5b600073ffffffffffffffffffffffffffffffffffffffff82169050919050565b600061095182610926565b9050919050565b61096181610946565b811461096c57600080fd5b50565b60008135905061097e81610958565b92915050565b6000819050919050565b61099781610984565b81146109a257600080fd5b50565b6000813590506109b48161098e565b92915050565b600080fd5b600080fd5b600080fd5b60008083601f8401126109df576109de6109ba565b5b8235905067ffffffffffffffff8111156109fc576109fb6109bf565b5b602083019150836020820283011115610a1857610a176109c4565b5b9250929050565b60008060008060608587031215610a3957610a3861091c565b5b6000610a478782880161096f565b9450506020610a58878288016109a5565b935050604085013567ffffffffffffffff811115610a7957610a78610921565b5b610a85878288016109c9565b925092505092959194509250565b600080600080600060808688031215610aaf57610aae61091c565b5b6000610abd888289016109a5565b9550506020610ace8882890161096f565b9450506040610adf888289016109a5565b935050606086013567ffffffffffffffff811115610b0057610aff610921565b5b610b0c888289016109c9565b92509250509295509295909350565b6000819050919050565b610b2e81610b1b565b82525050565b6000602082019050610b496000830184610b25565b92915050565b610b5881610984565b82525050565b6000602082019050610b736000830184610b4f565b92915050565b600060208284031215610b8f57610b8e61091c565b5b6000610b9d848285016109a5565b91505092915050565b60008060408385031215610bbd57610bbc61091c565b5b6000610bcb858286016109a5565b9250506020610bdc858286016109a5565b9150509250929050565b60008060408385031215610bfd57610bfc61091c565b5b6000610c0b858286016109a5565b9250506020610c1c8582860161096f565b9150509250929050565b60008115159050919050565b610c3b81610c26565b82525050565b6000602082019050610c566000830184610c32565b92915050565b600082825260208201905092915050565b7f496e76616c69642070726f6f6600000000000000000000000000000000000000600082015250565b6000610ca3600d83610c5c565b9150610cae82610c6d565b602082019050919050565b60006020820190508181036000830152610cd281610c96565b9050919050565b7f4e487b7100000000000000000000000000000000000000000000000000000000600052603260045260246000fd5b7f4e487b7100000000000000000000000000000000000000000000000000000000600052601160045260246000fd5b6000610d4282610984565b9150610d4d83610984565b9250827fffffffffffffffffffffffffffffffffffffffffffffffffffffffffffffffff03821115610d8257610d81610d08565b5b828201905092915050565b6000610d9882610984565b91507fffffffffffffffffffffffffffffffffffffffffffffffffffffffffffffffff821415610dcb57610dca610d08565b5b600182019050919050565b7f63616e6e6f7420636c61696d20666f722061206675747572652077696e646f77600082015250565b6000610e0c602083610c5c565b9150610e1782610dd6565b602082019050919050565b60006020820190508181036000830152610e3b81610dff565b9050919050565b7f4163636f756e7420616c726561647920636c61696d656420746865206769766560008201527f6e2077696e646f77000000000000000000000000000000000000000000000000602082015250565b6000610e9e602883610c5c565b9150610ea982610e42565b604082019050919050565b60006020820190508181036000830152610ecd81610e91565b9050919050565b7f4e6f206164646974696f6e616c2066756e647320666f722077696e646f770000600082015250565b6000610f0a601e83610c5c565b9150610f1582610ed4565b602082019050919050565b60006020820190508181036000830152610f3981610efd565b9050919050565b6000604082019050610f556000830185610b4f565b610f626020830184610b4f565b9392505050565b6000610f7482610984565b9150610f7f83610984565b9250817fffffffffffffffffffffffffffffffffffffffffffffffffffffffffffffffff0483118215151615610fb857610fb7610d08565b5b828202905092915050565b7f4e487b7100000000000000000000000000000000000000000000000000000000600052601260045260246000fd5b6000610ffd82610984565b915061100883610984565b92508261101857611017610fc3565b5b828204905092915050565b60008160601b9050919050565b600061103b82611023565b9050919050565b600061104d82611030565b9050919050565b61106561106082610946565b611042565b82525050565b6000819050919050565b61108661108182610984565b61106b565b82525050565b60006110988285611054565b6014820191506110a88284611075565b6020820191508190509392505050565b6000819050919050565b6110d36110ce82610b1b565b6110b8565b82525050565b60006110e582856110c2565b6020820191506110f582846110c2565b6020820191508190509392505050565b61110e81610946565b82525050565b60006040820190506111296000830185611105565b6111366020830184610b4f565b9392505050565b61114681610c26565b811461115157600080fd5b50565b6000815190506111638161113d565b92915050565b60006020828403121561117f5761117e61091c565b5b600061118d84828501611154565b91505092915050565b60006060820190506111ab6000830186611105565b6111b86020830185610b4f565b6111c56040830184610c32565b949350505050565b60006111d98285611075565b6020820191506111e98284611054565b6014820191508190509392505050565b600081905092915050565b50565b60006112146000836111f9565b915061121f82611204565b600082019050919050565b600061123582611207565b915081905091905056fea2646970667358221220475510158022db21f894403baf2db1510cb81279e3eb7fd4522a30fc9dfca0de64736f6c63430008090033",
  "linkReferences": {},
  "deployedLinkReferences": {}
}