{
  "_format": "hh-sol-artifact-1",
  "contractName": "Splitter",
  "sourceName": "contracts/splits/Splitter.sol",
  "abi": [
    {
      "anonymous": false,
      "inputs": [
        {
          "indexed": false,
          "internalType": "address",
          "name": "account",
          "type": "address"
        },
        {
          "indexed": false,
          "internalType": "uint256",
          "name": "amount",
          "type": "uint256"
        },
        {
          "indexed": false,
          "internalType": "bool",
          "name": "success",
          "type": "bool"
        }
      ],
      "name": "TransferETH",
      "type": "event"
    },
    {
      "anonymous": false,
      "inputs": [
        {
          "indexed": false,
          "internalType": "uint256",
          "name": "currentWindow",
          "type": "uint256"
        },
        {
          "indexed": false,
          "internalType": "uint256",
          "name": "fundsAvailable",
          "type": "uint256"
        }
      ],
      "name": "WindowIncremented",
      "type": "event"
    },
    {
      "inputs": [],
      "name": "PERCENTAGE_SCALE",
      "outputs": [
        {
          "internalType": "uint256",
          "name": "",
          "type": "uint256"
        }
      ],
      "stateMutability": "view",
      "type": "function"
    },
    {
      "inputs": [
        {
          "internalType": "uint256",
          "name": "",
          "type": "uint256"
        }
      ],
      "name": "balanceForWindow",
      "outputs": [
        {
          "internalType": "uint256",
          "name": "",
          "type": "uint256"
        }
      ],
      "stateMutability": "view",
      "type": "function"
    },
    {
      "inputs": [
        {
          "internalType": "uint256",
          "name": "window",
          "type": "uint256"
        },
        {
          "internalType": "address",
          "name": "account",
          "type": "address"
        },
        {
          "internalType": "uint256",
          "name": "scaledPercentageAllocation",
          "type": "uint256"
        },
        {
          "internalType": "bytes32[]",
          "name": "merkleProof",
          "type": "bytes32[]"
        }
      ],
      "name": "claim",
      "outputs": [],
      "stateMutability": "nonpayable",
      "type": "function"
    },
    {
      "inputs": [
        {
          "internalType": "address",
          "name": "account",
          "type": "address"
        },
        {
          "internalType": "uint256",
          "name": "percentageAllocation",
          "type": "uint256"
        },
        {
          "internalType": "bytes32[]",
          "name": "merkleProof",
          "type": "bytes32[]"
        }
      ],
      "name": "claimForAllWindows",
      "outputs": [],
      "stateMutability": "nonpayable",
      "type": "function"
    },
    {
      "inputs": [],
      "name": "currentWindow",
      "outputs": [
        {
          "internalType": "uint256",
          "name": "",
          "type": "uint256"
        }
      ],
      "stateMutability": "view",
      "type": "function"
    },
    {
      "inputs": [],
      "name": "incrementWindow",
      "outputs": [],
      "stateMutability": "nonpayable",
      "type": "function"
    },
    {
      "inputs": [
        {
          "internalType": "uint256",
          "name": "window",
          "type": "uint256"
        },
        {
          "internalType": "address",
          "name": "account",
          "type": "address"
        }
      ],
      "name": "isClaimed",
      "outputs": [
        {
          "internalType": "bool",
          "name": "",
          "type": "bool"
        }
      ],
      "stateMutability": "view",
      "type": "function"
    },
    {
      "inputs": [],
      "name": "merkleRoot",
      "outputs": [
        {
          "internalType": "bytes32",
          "name": "",
          "type": "bytes32"
        }
      ],
      "stateMutability": "view",
      "type": "function"
    },
    {
      "inputs": [
        {
          "internalType": "uint256",
          "name": "amount",
          "type": "uint256"
        },
        {
          "internalType": "uint256",
          "name": "scaledPercent",
          "type": "uint256"
        }
      ],
      "name": "scaleAmountByPercentage",
      "outputs": [
        {
          "internalType": "uint256",
          "name": "scaledAmount",
          "type": "uint256"
        }
      ],
      "stateMutability": "pure",
      "type": "function"
    }
  ],
  "bytecode": "0x608060405234801561001057600080fd5b50611266806100206000396000f3fe608060405234801561001057600080fd5b50600436106100935760003560e01c80633f26479e116100665780633f26479e146100f857806381e580d3146101165780638ffb5c9714610146578063ba0bafb414610176578063d2ef07951461019457610093565b80631e7df9d3146100985780632e7ba6ef146100b45780632eb4a7ab146100d0578063338b1d31146100ee575b600080fd5b6100b260048036038101906100ad9190610a10565b6101c4565b005b6100ce60048036038101906100c99190610a84565b6102dc565b005b6100d8610443565b6040516100e59190610b25565b60405180910390f35b6100f6610449565b005b61010061052e565b60405161010d9190610b4f565b60405180910390f35b610130600480360381019061012b9190610b6a565b610535565b60405161013d9190610b4f565b60405180910390f35b610160600480360381019061015b9190610b97565b610559565b60405161016d9190610b4f565b60405180910390f35b61017e610589565b60405161018b9190610b4f565b60405180910390f35b6101ae60048036038101906101a99190610bd7565b61058f565b6040516101bb9190610c32565b60405180910390f35b61021b828280806020026020016040519081016040528093929190818152602001838360200280828437600081840152601f19601f8201169050808301925050505050505060005461021687876105c3565b6105f6565b61025a576040517f08c379a000000000000000000000000000000000000000000000000000000000815260040161025190610caa565b60405180910390fd5b6000805b6001548110156102c957610272818761058f565b6102b65761028081876106ac565b6102a86004828154811061029757610296610cca565b5b906000526020600020015486610559565b826102b39190610d28565b91505b80806102c190610d7e565b91505061025e565b506102d485826106e5565b505050505050565b8460015411610320576040517f08c379a000000000000000000000000000000000000000000000000000000000815260040161031790610e13565b60405180910390fd5b61032a858561058f565b1561036a576040517f08c379a000000000000000000000000000000000000000000000000000000000815260040161036190610ea5565b60405180910390fd5b61037485856106ac565b6103cb828280806020026020016040519081016040528093929190818152602001838360200280828437600081840152601f19601f820116905080830192505050505050506000546103c687876105c3565b6105f6565b61040a576040517f08c379a000000000000000000000000000000000000000000000000000000000815260040161040190610caa565b60405180910390fd5b61043b846104366004888154811061042557610424610cca565b5b906000526020600020015486610559565b6106e5565b505050505050565b60005481565b600080600154141561045d57479050610463565b60065490505b6000600681905550600081116104ae576040517f08c379a00000000000000000000000000000000000000000000000000000000081526004016104a590610f11565b60405180910390fd5b600481908060018154018082558091505060019003906000526020600020016000909190919091505560018060008282546104e99190610d28565b925050819055507ff0840b82b46c1dc7df62cae652baa1b5588ce37b6a1236ed1dcf4caf34d738ac60015482604051610523929190610f31565b60405180910390a150565b620f424081565b6004818154811061054557600080fd5b906000526020600020016000915090505481565b6000620f4240606461056b9190610f5a565b82846105779190610f5a565b6105819190610fe3565b905092915050565b60015481565b60006005600061059f858561085e565b815260200190815260200160002060009054906101000a900460ff16905092915050565b600082826040516020016105d892919061107d565b60405160208183030381529060405280519060200120905092915050565b60008082905060005b855181101561069e57600086828151811061061d5761061c610cca565b5b6020026020010151905080831161065e5782816040516020016106419291906110ca565b60405160208183030381529060405280519060200120925061068a565b80836040516020016106719291906110ca565b6040516020818303038152906040528051906020012092505b50808061069690610d7e565b9150506105ff565b508381149150509392505050565b6001600560006106bc858561085e565b815260200190815260200160002060006101000a81548160ff0219169083151502179055505050565b60006106f18383610891565b90508061081d57600260009054906101000a900473ffffffffffffffffffffffffffffffffffffffff1673ffffffffffffffffffffffffffffffffffffffff1663d0e30db0836040518263ffffffff1660e01b81526004016000604051808303818588803b15801561076257600080fd5b505af1158015610776573d6000803e3d6000fd5b5050505050600260009054906101000a900473ffffffffffffffffffffffffffffffffffffffff1673ffffffffffffffffffffffffffffffffffffffff1663a9059cbb84846040518363ffffffff1660e01b81526004016107d8929190611105565b6020604051808303816000875af11580156107f7573d6000803e3d6000fd5b505050506040513d601f19601f8201168201806040525081019061081b919061115a565b505b7fdbd5389f52533f4cbd998e752125a5a4eaa0b813b399ad15f775ec0e8438620d83838360405161085093929190611187565b60405180910390a192915050565b600082826040516020016108739291906111be565b60405160208183030381529060405280519060200120905092915050565b6000808373ffffffffffffffffffffffffffffffffffffffff1683617530906040516108bc9061121b565b600060405180830381858888f193505050503d80600081146108fa576040519150601f19603f3d011682016040523d82523d6000602084013e6108ff565b606091505b505090508091505092915050565b600080fd5b600080fd5b600073ffffffffffffffffffffffffffffffffffffffff82169050919050565b600061094282610917565b9050919050565b61095281610937565b811461095d57600080fd5b50565b60008135905061096f81610949565b92915050565b6000819050919050565b61098881610975565b811461099357600080fd5b50565b6000813590506109a58161097f565b92915050565b600080fd5b600080fd5b600080fd5b60008083601f8401126109d0576109cf6109ab565b5b8235905067ffffffffffffffff8111156109ed576109ec6109b0565b5b602083019150836020820283011115610a0957610a086109b5565b5b9250929050565b60008060008060608587031215610a2a57610a2961090d565b5b6000610a3887828801610960565b9450506020610a4987828801610996565b935050604085013567ffffffffffffffff811115610a6a57610a69610912565b5b610a76878288016109ba565b925092505092959194509250565b600080600080600060808688031215610aa057610a9f61090d565b5b6000610aae88828901610996565b9550506020610abf88828901610960565b9450506040610ad088828901610996565b935050606086013567ffffffffffffffff811115610af157610af0610912565b5b610afd888289016109ba565b92509250509295509295909350565b6000819050919050565b610b1f81610b0c565b82525050565b6000602082019050610b3a6000830184610b16565b92915050565b610b4981610975565b82525050565b6000602082019050610b646000830184610b40565b92915050565b600060208284031215610b8057610b7f61090d565b5b6000610b8e84828501610996565b91505092915050565b60008060408385031215610bae57610bad61090d565b5b6000610bbc85828601610996565b9250506020610bcd85828601610996565b9150509250929050565b60008060408385031215610bee57610bed61090d565b5b6000610bfc85828601610996565b9250506020610c0d85828601610960565b9150509250929050565b60008115159050919050565b610c2c81610c17565b82525050565b6000602082019050610c476000830184610c23565b92915050565b600082825260208201905092915050565b7f496e76616c69642070726f6f6600000000000000000000000000000000000000600082015250565b6000610c94600d83610c4d565b9150610c9f82610c5e565b602082019050919050565b60006020820190508181036000830152610cc381610c87565b9050919050565b7f4e487b7100000000000000000000000000000000000000000000000000000000600052603260045260246000fd5b7f4e487b7100000000000000000000000000000000000000000000000000000000600052601160045260246000fd5b6000610d3382610975565b9150610d3e83610975565b9250827fffffffffffffffffffffffffffffffffffffffffffffffffffffffffffffffff03821115610d7357610d72610cf9565b5b828201905092915050565b6000610d8982610975565b91507fffffffffffffffffffffffffffffffffffffffffffffffffffffffffffffffff821415610dbc57610dbb610cf9565b5b600182019050919050565b7f63616e6e6f7420636c61696d20666f722061206675747572652077696e646f77600082015250565b6000610dfd602083610c4d565b9150610e0882610dc7565b602082019050919050565b60006020820190508181036000830152610e2c81610df0565b9050919050565b7f4163636f756e7420616c726561647920636c61696d656420746865206769766560008201527f6e2077696e646f77000000000000000000000000000000000000000000000000602082015250565b6000610e8f602883610c4d565b9150610e9a82610e33565b604082019050919050565b60006020820190508181036000830152610ebe81610e82565b9050919050565b7f4e6f206164646974696f6e616c2066756e647320666f722077696e646f770000600082015250565b6000610efb601e83610c4d565b9150610f0682610ec5565b602082019050919050565b60006020820190508181036000830152610f2a81610eee565b9050919050565b6000604082019050610f466000830185610b40565b610f536020830184610b40565b9392505050565b6000610f6582610975565b9150610f7083610975565b9250817fffffffffffffffffffffffffffffffffffffffffffffffffffffffffffffffff0483118215151615610fa957610fa8610cf9565b5b828202905092915050565b7f4e487b7100000000000000000000000000000000000000000000000000000000600052601260045260246000fd5b6000610fee82610975565b9150610ff983610975565b92508261100957611008610fb4565b5b828204905092915050565b60008160601b9050919050565b600061102c82611014565b9050919050565b600061103e82611021565b9050919050565b61105661105182610937565b611033565b82525050565b6000819050919050565b61107761107282610975565b61105c565b82525050565b60006110898285611045565b6014820191506110998284611066565b6020820191508190509392505050565b6000819050919050565b6110c46110bf82610b0c565b6110a9565b82525050565b60006110d682856110b3565b6020820191506110e682846110b3565b6020820191508190509392505050565b6110ff81610937565b82525050565b600060408201905061111a60008301856110f6565b6111276020830184610b40565b9392505050565b61113781610c17565b811461114257600080fd5b50565b6000815190506111548161112e565b92915050565b6000602082840312156111705761116f61090d565b5b600061117e84828501611145565b91505092915050565b600060608201905061119c60008301866110f6565b6111a96020830185610b40565b6111b66040830184610c23565b949350505050565b60006111ca8285611066565b6020820191506111da8284611045565b6014820191508190509392505050565b600081905092915050565b50565b60006112056000836111ea565b9150611210826111f5565b600082019050919050565b6000611226826111f8565b915081905091905056fea264697066735822122020e475d8acc9c094c1e0ee167182a9193c12c43b8d4008f6336343a33dae1ff264736f6c634300080c0033",
  "linkReferences": {},
  "deployedLinkReferences": {}
}