{
  "_format": "hh-sol-artifact-1",
  "contractName": "Collection",
  "sourceName": "contracts/Collection.sol",
  "abi": [
    {
      "inputs": [
        {
          "internalType": "string",
          "name": "name_",
          "type": "string"
        },
        {
          "internalType": "string",
          "name": "symbol_",
          "type": "string"
        },
        {
          "internalType": "address",
          "name": "collector_",
          "type": "address"
        },
        {
          "internalType": "address payable",
          "name": "recipient_",
          "type": "address"
        },
        {
          "internalType": "uint256",
          "name": "startDate_",
          "type": "uint256"
        },
        {
          "internalType": "uint256",
          "name": "endDate_",
          "type": "uint256"
        },
        {
          "internalType": "bytes32",
          "name": "root_",
          "type": "bytes32"
        }
      ],
      "stateMutability": "nonpayable",
      "type": "constructor"
    },
    {
      "anonymous": false,
      "inputs": [
        {
          "indexed": true,
          "internalType": "address",
          "name": "owner",
          "type": "address"
        },
        {
          "indexed": true,
          "internalType": "address",
          "name": "approved",
          "type": "address"
        },
        {
          "indexed": true,
          "internalType": "uint256",
          "name": "tokenId",
          "type": "uint256"
        }
      ],
      "name": "Approval",
      "type": "event"
    },
    {
      "anonymous": false,
      "inputs": [
        {
          "indexed": true,
          "internalType": "address",
          "name": "owner",
          "type": "address"
        },
        {
          "indexed": true,
          "internalType": "address",
          "name": "operator",
          "type": "address"
        },
        {
          "indexed": false,
          "internalType": "bool",
          "name": "approved",
          "type": "bool"
        }
      ],
      "name": "ApprovalForAll",
      "type": "event"
    },
    {
      "anonymous": false,
      "inputs": [
        {
          "indexed": true,
          "internalType": "address",
          "name": "from",
          "type": "address"
        },
        {
          "indexed": true,
          "internalType": "address",
          "name": "to",
          "type": "address"
        },
        {
          "indexed": true,
          "internalType": "uint256",
          "name": "tokenId",
          "type": "uint256"
        }
      ],
      "name": "Transfer",
      "type": "event"
    },
    {
      "inputs": [
        {
          "internalType": "address",
          "name": "to",
          "type": "address"
        },
        {
          "internalType": "uint256",
          "name": "tokenId",
          "type": "uint256"
        }
      ],
      "name": "approve",
      "outputs": [],
      "stateMutability": "nonpayable",
      "type": "function"
    },
    {
      "inputs": [
        {
          "internalType": "address",
          "name": "owner",
          "type": "address"
        }
      ],
      "name": "balanceOf",
      "outputs": [
        {
          "internalType": "uint256",
          "name": "",
          "type": "uint256"
        }
      ],
      "stateMutability": "view",
      "type": "function"
    },
    {
      "inputs": [
        {
          "internalType": "address",
          "name": "",
          "type": "address"
        }
      ],
      "name": "claimed",
      "outputs": [
        {
          "internalType": "bool",
          "name": "",
          "type": "bool"
        }
      ],
      "stateMutability": "view",
      "type": "function"
    },
    {
      "inputs": [],
      "name": "collector",
      "outputs": [
        {
          "internalType": "address",
          "name": "",
          "type": "address"
        }
      ],
      "stateMutability": "view",
      "type": "function"
    },
    {
      "inputs": [],
      "name": "descriptor",
      "outputs": [
        {
          "internalType": "contract CollectionDescriptor",
          "name": "",
          "type": "address"
        }
      ],
      "stateMutability": "view",
      "type": "function"
    },
    {
      "inputs": [],
      "name": "endDate",
      "outputs": [
        {
          "internalType": "uint256",
          "name": "",
          "type": "uint256"
        }
      ],
      "stateMutability": "view",
      "type": "function"
    },
    {
      "inputs": [
        {
          "internalType": "uint256",
          "name": "tokenId",
          "type": "uint256"
        }
      ],
      "name": "generateBase64Image",
      "outputs": [
        {
          "internalType": "string",
          "name": "",
          "type": "string"
        }
      ],
      "stateMutability": "view",
      "type": "function"
    },
    {
      "inputs": [
        {
          "internalType": "uint256",
          "name": "tokenId",
          "type": "uint256"
        }
      ],
      "name": "generateImage",
      "outputs": [
        {
          "internalType": "string",
          "name": "",
          "type": "string"
        }
      ],
      "stateMutability": "view",
      "type": "function"
    },
    {
      "inputs": [
        {
          "internalType": "uint256",
          "name": "tokenId",
          "type": "uint256"
        }
      ],
      "name": "generateTraits",
      "outputs": [
        {
          "internalType": "string",
          "name": "",
          "type": "string"
        }
      ],
      "stateMutability": "view",
      "type": "function"
    },
    {
      "inputs": [
        {
          "internalType": "uint256",
          "name": "tokenId",
          "type": "uint256"
        }
      ],
      "name": "getApproved",
      "outputs": [
        {
          "internalType": "address",
          "name": "",
          "type": "address"
        }
      ],
      "stateMutability": "view",
      "type": "function"
    },
    {
      "inputs": [
        {
          "internalType": "address",
          "name": "owner",
          "type": "address"
        },
        {
          "internalType": "address",
          "name": "operator",
          "type": "address"
        }
      ],
      "name": "isApprovedForAll",
      "outputs": [
        {
          "internalType": "bool",
          "name": "",
          "type": "bool"
        }
      ],
      "stateMutability": "view",
      "type": "function"
    },
    {
      "inputs": [
        {
          "internalType": "bytes32[]",
          "name": "proof",
          "type": "bytes32[]"
        }
      ],
      "name": "loyalMint",
      "outputs": [],
      "stateMutability": "nonpayable",
      "type": "function"
    },
    {
      "inputs": [
        {
          "internalType": "bytes32[]",
          "name": "proof",
          "type": "bytes32[]"
        },
        {
          "internalType": "address",
          "name": "leaf",
          "type": "address"
        }
      ],
      "name": "loyalMintLeaf",
      "outputs": [],
      "stateMutability": "nonpayable",
      "type": "function"
    },
    {
      "inputs": [],
      "name": "loyaltyRoot",
      "outputs": [
        {
          "internalType": "bytes32",
          "name": "",
          "type": "bytes32"
        }
      ],
      "stateMutability": "view",
      "type": "function"
    },
    {
      "inputs": [],
      "name": "mint",
      "outputs": [],
      "stateMutability": "payable",
      "type": "function"
    },
    {
      "inputs": [],
      "name": "name",
      "outputs": [
        {
          "internalType": "string",
          "name": "",
          "type": "string"
        }
      ],
      "stateMutability": "view",
      "type": "function"
    },
    {
      "inputs": [],
      "name": "newlyMinted",
      "outputs": [
        {
          "internalType": "uint256",
          "name": "",
          "type": "uint256"
        }
      ],
      "stateMutability": "view",
      "type": "function"
    },
    {
      "inputs": [],
      "name": "owner",
      "outputs": [
        {
          "internalType": "address",
          "name": "",
          "type": "address"
        }
      ],
      "stateMutability": "view",
      "type": "function"
    },
    {
      "inputs": [
        {
          "internalType": "uint256",
          "name": "tokenId",
          "type": "uint256"
        }
      ],
      "name": "ownerOf",
      "outputs": [
        {
          "internalType": "address",
          "name": "",
          "type": "address"
        }
      ],
      "stateMutability": "view",
      "type": "function"
    },
    {
      "inputs": [],
      "name": "recipient",
      "outputs": [
        {
          "internalType": "address payable",
          "name": "",
          "type": "address"
        }
      ],
      "stateMutability": "view",
      "type": "function"
    },
    {
      "inputs": [
        {
          "internalType": "address",
          "name": "from",
          "type": "address"
        },
        {
          "internalType": "address",
          "name": "to",
          "type": "address"
        },
        {
          "internalType": "uint256",
          "name": "tokenId",
          "type": "uint256"
        }
      ],
      "name": "safeTransferFrom",
      "outputs": [],
      "stateMutability": "nonpayable",
      "type": "function"
    },
    {
      "inputs": [
        {
          "internalType": "address",
          "name": "from",
          "type": "address"
        },
        {
          "internalType": "address",
          "name": "to",
          "type": "address"
        },
        {
          "internalType": "uint256",
          "name": "tokenId",
          "type": "uint256"
        },
        {
          "internalType": "bytes",
          "name": "_data",
          "type": "bytes"
        }
      ],
      "name": "safeTransferFrom",
      "outputs": [],
      "stateMutability": "nonpayable",
      "type": "function"
    },
    {
      "inputs": [
        {
          "internalType": "address",
          "name": "operator",
          "type": "address"
        },
        {
          "internalType": "bool",
          "name": "approved",
          "type": "bool"
        }
      ],
      "name": "setApprovalForAll",
      "outputs": [],
      "stateMutability": "nonpayable",
      "type": "function"
    },
    {
      "inputs": [],
      "name": "startDate",
      "outputs": [
        {
          "internalType": "uint256",
          "name": "",
          "type": "uint256"
        }
      ],
      "stateMutability": "view",
      "type": "function"
    },
    {
      "inputs": [
        {
          "internalType": "bytes4",
          "name": "interfaceId",
          "type": "bytes4"
        }
      ],
      "name": "supportsInterface",
      "outputs": [
        {
          "internalType": "bool",
          "name": "",
          "type": "bool"
        }
      ],
      "stateMutability": "view",
      "type": "function"
    },
    {
      "inputs": [],
      "name": "symbol",
      "outputs": [
        {
          "internalType": "string",
          "name": "",
          "type": "string"
        }
      ],
      "stateMutability": "view",
      "type": "function"
    },
    {
      "inputs": [
        {
          "internalType": "uint256",
          "name": "tokenId",
          "type": "uint256"
        }
      ],
      "name": "tokenURI",
      "outputs": [
        {
          "internalType": "string",
          "name": "",
          "type": "string"
        }
      ],
      "stateMutability": "view",
      "type": "function"
    },
    {
      "inputs": [
        {
          "internalType": "address",
          "name": "from",
          "type": "address"
        },
        {
          "internalType": "address",
          "name": "to",
          "type": "address"
        },
        {
          "internalType": "uint256",
          "name": "tokenId",
          "type": "uint256"
        }
      ],
      "name": "transferFrom",
      "outputs": [],
      "stateMutability": "nonpayable",
      "type": "function"
    },
    {
      "inputs": [],
      "name": "withdrawETH",
      "outputs": [],
      "stateMutability": "nonpayable",
      "type": "function"
    }
  ],
  "bytecode": "0x608060405273af69610ea9ddc95883f97a6a3171d52165b69b03600660006101000a81548173ffffffffffffffffffffffffffffffffffffffff021916908373ffffffffffffffffffffffffffffffffffffffff1602179055503480156200006657600080fd5b506040516200a8323803806200a83283398181016040528101906200008c9190620007f0565b86868160009080519060200190620000a692919062000475565b508060019080519060200190620000bf92919062000475565b50505084600760006101000a81548173ffffffffffffffffffffffffffffffffffffffff021916908373ffffffffffffffffffffffffffffffffffffffff16021790555083600860006101000a81548173ffffffffffffffffffffffffffffffffffffffff021916908373ffffffffffffffffffffffffffffffffffffffff1602179055508260098190555081600a81905550604051620001609062000506565b604051809103906000f0801580156200017d573d6000803e3d6000fd5b50600b60006101000a81548173ffffffffffffffffffffffffffffffffffffffff021916908373ffffffffffffffffffffffffffffffffffffffff16021790555080600d81905550620001d685620001e360201b60201c565b5050505050505062000b6c565b60004282604051602001620001fa92919062000956565b6040516020818303038152906040528051906020012060001c905080600e819055506200023382826200023760201b6200160c1760201c565b5050565b600073ffffffffffffffffffffffffffffffffffffffff168273ffffffffffffffffffffffffffffffffffffffff161415620002aa576040517f08c379a0000000000000000000000000000000000000000000000000000000008152600401620002a190620009e7565b60405180910390fd5b620002bb816200040960201b60201c565b15620002fe576040517f08c379a0000000000000000000000000000000000000000000000000000000008152600401620002f59062000a59565b60405180910390fd5b6001600360008473ffffffffffffffffffffffffffffffffffffffff1673ffffffffffffffffffffffffffffffffffffffff168152602001908152602001600020600082825462000350919062000aaa565b92505081905550816002600083815260200190815260200160002060006101000a81548173ffffffffffffffffffffffffffffffffffffffff021916908373ffffffffffffffffffffffffffffffffffffffff160217905550808273ffffffffffffffffffffffffffffffffffffffff16600073ffffffffffffffffffffffffffffffffffffffff167fddf252ad1be2c89b69c2b068fc378daa952ba7f163c4a11628f55a4df523b3ef60405160405180910390a45050565b60008073ffffffffffffffffffffffffffffffffffffffff166002600084815260200190815260200160002060009054906101000a900473ffffffffffffffffffffffffffffffffffffffff1673ffffffffffffffffffffffffffffffffffffffff1614159050919050565b828054620004839062000b36565b90600052602060002090601f016020900481019282620004a75760008555620004f3565b82601f10620004c257805160ff1916838001178555620004f3565b82800160010185558215620004f3579182015b82811115620004f2578251825591602001919060010190620004d5565b5b50905062000502919062000514565b5090565b615f5d80620048d583390190565b5b808211156200052f57600081600090555060010162000515565b5090565b6000604051905090565b600080fd5b600080fd5b600080fd5b600080fd5b6000601f19601f8301169050919050565b7f4e487b7100000000000000000000000000000000000000000000000000000000600052604160045260246000fd5b6200059c8262000551565b810181811067ffffffffffffffff82111715620005be57620005bd62000562565b5b80604052505050565b6000620005d362000533565b9050620005e1828262000591565b919050565b600067ffffffffffffffff82111562000604576200060362000562565b5b6200060f8262000551565b9050602081019050919050565b60005b838110156200063c5780820151818401526020810190506200061f565b838111156200064c576000848401525b50505050565b6000620006696200066384620005e6565b620005c7565b9050828152602081018484840111156200068857620006876200054c565b5b620006958482856200061c565b509392505050565b600082601f830112620006b557620006b462000547565b5b8151620006c784826020860162000652565b91505092915050565b600073ffffffffffffffffffffffffffffffffffffffff82169050919050565b6000620006fd82620006d0565b9050919050565b6200070f81620006f0565b81146200071b57600080fd5b50565b6000815190506200072f8162000704565b92915050565b60006200074282620006d0565b9050919050565b620007548162000735565b81146200076057600080fd5b50565b600081519050620007748162000749565b92915050565b6000819050919050565b6200078f816200077a565b81146200079b57600080fd5b50565b600081519050620007af8162000784565b92915050565b6000819050919050565b620007ca81620007b5565b8114620007d657600080fd5b50565b600081519050620007ea81620007bf565b92915050565b600080600080600080600060e0888a0312156200081257620008116200053d565b5b600088015167ffffffffffffffff81111562000833576200083262000542565b5b620008418a828b016200069d565b975050602088015167ffffffffffffffff81111562000865576200086462000542565b5b620008738a828b016200069d565b9650506040620008868a828b016200071e565b9550506060620008998a828b0162000763565b9450506080620008ac8a828b016200079e565b93505060a0620008bf8a828b016200079e565b92505060c0620008d28a828b01620007d9565b91505092959891949750929550565b6000819050919050565b62000900620008fa826200077a565b620008e1565b82525050565b60008160601b9050919050565b6000620009208262000906565b9050919050565b6000620009348262000913565b9050919050565b620009506200094a82620006f0565b62000927565b82525050565b6000620009648285620008eb565b6020820191506200097682846200093b565b6014820191508190509392505050565b600082825260208201905092915050565b7f4552433732313a206d696e7420746f20746865207a65726f2061646472657373600082015250565b6000620009cf60208362000986565b9150620009dc8262000997565b602082019050919050565b6000602082019050818103600083015262000a0281620009c0565b9050919050565b7f4552433732313a20746f6b656e20616c7265616479206d696e74656400000000600082015250565b600062000a41601c8362000986565b915062000a4e8262000a09565b602082019050919050565b6000602082019050818103600083015262000a748162000a32565b9050919050565b7f4e487b7100000000000000000000000000000000000000000000000000000000600052601160045260246000fd5b600062000ab7826200077a565b915062000ac4836200077a565b9250827fffffffffffffffffffffffffffffffffffffffffffffffffffffffffffffffff0382111562000afc5762000afb62000a7b565b5b828201905092915050565b7f4e487b7100000000000000000000000000000000000000000000000000000000600052602260045260246000fd5b6000600282049050600182168062000b4f57607f821691505b6020821081141562000b665762000b6562000b07565b5b50919050565b613d598062000b7c6000396000f3fe6080604052600436106101c25760003560e01c806370a08231116100f7578063a48b3b8f11610095578063c87b56dd11610064578063c87b56dd14610649578063c884ef8314610686578063e086e5ec146106c3578063e985e9c5146106da576101c2565b8063a48b3b8f1461058f578063aba048b4146105cc578063b88d4fde146105f5578063c24a0f8b1461061e576101c2565b80638da5cb5b116100d15780638da5cb5b146104e5578063913e77ad1461051057806395d89b411461053b578063a22cb46514610566576101c2565b806370a08231146104405780637687794c1461047d57806379b92f27146104a8576101c2565b8063303e74df116101645780634b44d8121161013e5780634b44d812146103705780636352211e146103ad57806366d003ac146103ea5780636d9ec49414610415576101c2565b8063303e74df146102f3578063423d79391461031e57806342842e0e14610347576101c2565b8063095ea7b3116101a0578063095ea7b31461026c5780630b97bc86146102955780631249c58b146102c057806323b872dd146102ca576101c2565b806301ffc9a7146101c757806306fdde0314610204578063081812fc1461022f575b600080fd5b3480156101d357600080fd5b506101ee60048036038101906101e991906122f3565b610717565b6040516101fb919061233b565b60405180910390f35b34801561021057600080fd5b506102196107f9565b60405161022691906123ef565b60405180910390f35b34801561023b57600080fd5b5061025660048036038101906102519190612447565b61088b565b60405161026391906124b5565b60405180910390f35b34801561027857600080fd5b50610293600480360381019061028e91906124fc565b610910565b005b3480156102a157600080fd5b506102aa610a1a565b6040516102b7919061254b565b60405180910390f35b6102c8610a20565b005b3480156102d657600080fd5b506102f160048036038101906102ec9190612566565b610a75565b005b3480156102ff57600080fd5b50610308610ace565b6040516103159190612618565b60405180910390f35b34801561032a57600080fd5b5061034560048036038101906103409190612698565b610af4565b005b34801561035357600080fd5b5061036e60048036038101906103699190612566565b610ca6565b005b34801561037c57600080fd5b5061039760048036038101906103929190612447565b610cc6565b6040516103a491906123ef565b60405180910390f35b3480156103b957600080fd5b506103d460048036038101906103cf9190612447565b610d7f565b6040516103e191906124b5565b60405180910390f35b3480156103f657600080fd5b506103ff610e31565b60405161040c9190612719565b60405180910390f35b34801561042157600080fd5b5061042a610e57565b604051610437919061274d565b60405180910390f35b34801561044c57600080fd5b5061046760048036038101906104629190612768565b610e5d565b604051610474919061254b565b60405180910390f35b34801561048957600080fd5b50610492610f15565b60405161049f919061254b565b60405180910390f35b3480156104b457600080fd5b506104cf60048036038101906104ca9190612447565b610f1b565b6040516104dc91906123ef565b60405180910390f35b3480156104f157600080fd5b506104fa610fd4565b60405161050791906124b5565b60405180910390f35b34801561051c57600080fd5b50610525610ffa565b60405161053291906124b5565b60405180910390f35b34801561054757600080fd5b50610550611020565b60405161055d91906123ef565b60405180910390f35b34801561057257600080fd5b5061058d600480360381019061058891906127c1565b6110b2565b005b34801561059b57600080fd5b506105b660048036038101906105b19190612447565b61121e565b6040516105c391906123ef565b60405180910390f35b3480156105d857600080fd5b506105f360048036038101906105ee9190612801565b61123e565b005b34801561060157600080fd5b5061061c6004803603810190610617919061297e565b61124d565b005b34801561062a57600080fd5b506106336112a8565b604051610640919061254b565b60405180910390f35b34801561065557600080fd5b50610670600480360381019061066b9190612447565b6112ae565b60405161067d91906123ef565b60405180910390f35b34801561069257600080fd5b506106ad60048036038101906106a89190612768565b61143b565b6040516106ba919061233b565b60405180910390f35b3480156106cf57600080fd5b506106d861145b565b005b3480156106e657600080fd5b5061070160048036038101906106fc9190612a01565b611578565b60405161070e919061233b565b60405180910390f35b60007f80ac58cd000000000000000000000000000000000000000000000000000000007bffffffffffffffffffffffffffffffffffffffffffffffffffffffff1916827bffffffffffffffffffffffffffffffffffffffffffffffffffffffff191614806107e257507f5b5e139f000000000000000000000000000000000000000000000000000000007bffffffffffffffffffffffffffffffffffffffffffffffffffffffff1916827bffffffffffffffffffffffffffffffffffffffffffffffffffffffff1916145b806107f257506107f1826117ce565b5b9050919050565b60606000805461080890612a70565b80601f016020809104026020016040519081016040528092919081815260200182805461083490612a70565b80156108815780601f1061085657610100808354040283529160200191610881565b820191906000526020600020905b81548152906001019060200180831161086457829003601f168201915b5050505050905090565b600061089682611838565b6108d5576040517f08c379a00000000000000000000000000000000000000000000000000000000081526004016108cc90612b14565b60405180910390fd5b6004600083815260200190815260200160002060009054906101000a900473ffffffffffffffffffffffffffffffffffffffff169050919050565b600061091b82610d7f565b90508073ffffffffffffffffffffffffffffffffffffffff168373ffffffffffffffffffffffffffffffffffffffff16141561098c576040517f08c379a000000000000000000000000000000000000000000000000000000000815260040161098390612ba6565b60405180910390fd5b8073ffffffffffffffffffffffffffffffffffffffff163373ffffffffffffffffffffffffffffffffffffffff1614806109cc57506109cb8133611578565b5b610a0b576040517f08c379a0000000000000000000000000000000000000000000000000000000008152600401610a0290612c38565b60405180910390fd5b610a1583836118a4565b505050565b60095481565b662386f26fc10000341015610a6a576040517f08c379a0000000000000000000000000000000000000000000000000000000008152600401610a6190612ca4565b60405180910390fd5b610a733361195d565b565b610a7f33826119f1565b610abe576040517f08c379a0000000000000000000000000000000000000000000000000000000008152600401610ab590612d36565b60405180910390fd5b610ac9838383611acf565b505050565b600b60009054906101000a900473ffffffffffffffffffffffffffffffffffffffff1681565b60001515600c60008373ffffffffffffffffffffffffffffffffffffffff1673ffffffffffffffffffffffffffffffffffffffff16815260200190815260200160002060009054906101000a900460ff16151514610b87576040517f08c379a0000000000000000000000000000000000000000000000000000000008152600401610b7e90612da2565b60405180910390fd5b6001600c60008373ffffffffffffffffffffffffffffffffffffffff1673ffffffffffffffffffffffffffffffffffffffff16815260200190815260200160002060006101000a81548160ff021916908315150217905550600081604051602001610bf29190612e0a565b604051602081830303815290604052805190602001209050610c58848480806020026020016040519081016040528093929190818152602001838360200280828437600081840152601f19601f82011690508083019250505050505050600d5483611d20565b610c97576040517f08c379a0000000000000000000000000000000000000000000000000000000008152600401610c8e90612e71565b60405180910390fd5b610ca08261195d565b50505050565b610cc18383836040518060200160405280600081525061124d565b505050565b6060600b60009054906101000a900473ffffffffffffffffffffffffffffffffffffffff1673ffffffffffffffffffffffffffffffffffffffff16634b44d812836040518263ffffffff1660e01b8152600401610d23919061254b565b60006040518083038186803b158015610d3b57600080fd5b505afa158015610d4f573d6000803e3d6000fd5b505050506040513d6000823e3d601f19601f82011682018060405250810190610d789190612f32565b9050919050565b6000806002600084815260200190815260200160002060009054906101000a900473ffffffffffffffffffffffffffffffffffffffff169050600073ffffffffffffffffffffffffffffffffffffffff168173ffffffffffffffffffffffffffffffffffffffff161415610e28576040517f08c379a0000000000000000000000000000000000000000000000000000000008152600401610e1f90612fed565b60405180910390fd5b80915050919050565b600860009054906101000a900473ffffffffffffffffffffffffffffffffffffffff1681565b600d5481565b60008073ffffffffffffffffffffffffffffffffffffffff168273ffffffffffffffffffffffffffffffffffffffff161415610ece576040517f08c379a0000000000000000000000000000000000000000000000000000000008152600401610ec59061307f565b60405180910390fd5b600360008373ffffffffffffffffffffffffffffffffffffffff1673ffffffffffffffffffffffffffffffffffffffff168152602001908152602001600020549050919050565b600e5481565b6060600b60009054906101000a900473ffffffffffffffffffffffffffffffffffffffff1673ffffffffffffffffffffffffffffffffffffffff166379b92f27836040518263ffffffff1660e01b8152600401610f78919061254b565b60006040518083038186803b158015610f9057600080fd5b505afa158015610fa4573d6000803e3d6000fd5b505050506040513d6000823e3d601f19601f82011682018060405250810190610fcd9190612f32565b9050919050565b600660009054906101000a900473ffffffffffffffffffffffffffffffffffffffff1681565b600760009054906101000a900473ffffffffffffffffffffffffffffffffffffffff1681565b60606001805461102f90612a70565b80601f016020809104026020016040519081016040528092919081815260200182805461105b90612a70565b80156110a85780601f1061107d576101008083540402835291602001916110a8565b820191906000526020600020905b81548152906001019060200180831161108b57829003601f168201915b5050505050905090565b3373ffffffffffffffffffffffffffffffffffffffff168273ffffffffffffffffffffffffffffffffffffffff161415611121576040517f08c379a0000000000000000000000000000000000000000000000000000000008152600401611118906130eb565b60405180910390fd5b80600560003373ffffffffffffffffffffffffffffffffffffffff1673ffffffffffffffffffffffffffffffffffffffff16815260200190815260200160002060008473ffffffffffffffffffffffffffffffffffffffff1673ffffffffffffffffffffffffffffffffffffffff16815260200190815260200160002060006101000a81548160ff0219169083151502179055508173ffffffffffffffffffffffffffffffffffffffff163373ffffffffffffffffffffffffffffffffffffffff167f17307eab39ab6107e8899845ad3d59bd9653f200f220920489ca2b5937696c3183604051611212919061233b565b60405180910390a35050565b6060600061122b83610cc6565b905061123681611d37565b915050919050565b611249828233610af4565b5050565b61125733836119f1565b611296576040517f08c379a000000000000000000000000000000000000000000000000000000000815260040161128d90612d36565b60405180910390fd5b6112a284848484611ebc565b50505050565b600a5481565b60606112b982611838565b6112f8576040517f08c379a00000000000000000000000000000000000000000000000000000000081526004016112ef9061317d565b60405180910390fd5b6000600b60009054906101000a900473ffffffffffffffffffffffffffffffffffffffff1673ffffffffffffffffffffffffffffffffffffffff1663192a0a1f846040518263ffffffff1660e01b8152600401611355919061254b565b60006040518083038186803b15801561136d57600080fd5b505afa158015611381573d6000803e3d6000fd5b505050506040513d6000823e3d601f19601f820116820180604052508101906113aa9190612f32565b90506000604051806080016040528060428152602001613ca260429139905060006113d48561121e565b905060006113e186610f1b565b9050611411848484846040516020016113fd94939291906133a1565b604051602081830303815290604052611d37565b604051602001611421919061346d565b604051602081830303815290604052945050505050919050565b600c6020528060005260406000206000915054906101000a900460ff1681565b600760009054906101000a900473ffffffffffffffffffffffffffffffffffffffff1673ffffffffffffffffffffffffffffffffffffffff163373ffffffffffffffffffffffffffffffffffffffff16146114eb576040517f08c379a00000000000000000000000000000000000000000000000000000000081526004016114e2906134db565b60405180910390fd5b600860009054906101000a900473ffffffffffffffffffffffffffffffffffffffff1673ffffffffffffffffffffffffffffffffffffffff16476040516115319061352c565b60006040518083038185875af1925050503d806000811461156e576040519150601f19603f3d011682016040523d82523d6000602084013e611573565b606091505b505050565b6000600560008473ffffffffffffffffffffffffffffffffffffffff1673ffffffffffffffffffffffffffffffffffffffff16815260200190815260200160002060008373ffffffffffffffffffffffffffffffffffffffff1673ffffffffffffffffffffffffffffffffffffffff16815260200190815260200160002060009054906101000a900460ff16905092915050565b600073ffffffffffffffffffffffffffffffffffffffff168273ffffffffffffffffffffffffffffffffffffffff16141561167c576040517f08c379a00000000000000000000000000000000000000000000000000000000081526004016116739061358d565b60405180910390fd5b61168581611838565b156116c5576040517f08c379a00000000000000000000000000000000000000000000000000000000081526004016116bc906135f9565b60405180910390fd5b6001600360008473ffffffffffffffffffffffffffffffffffffffff1673ffffffffffffffffffffffffffffffffffffffff16815260200190815260200160002060008282546117159190613648565b92505081905550816002600083815260200190815260200160002060006101000a81548173ffffffffffffffffffffffffffffffffffffffff021916908373ffffffffffffffffffffffffffffffffffffffff160217905550808273ffffffffffffffffffffffffffffffffffffffff16600073ffffffffffffffffffffffffffffffffffffffff167fddf252ad1be2c89b69c2b068fc378daa952ba7f163c4a11628f55a4df523b3ef60405160405180910390a45050565b60007f01ffc9a7000000000000000000000000000000000000000000000000000000007bffffffffffffffffffffffffffffffffffffffffffffffffffffffff1916827bffffffffffffffffffffffffffffffffffffffffffffffffffffffff1916149050919050565b60008073ffffffffffffffffffffffffffffffffffffffff166002600084815260200190815260200160002060009054906101000a900473ffffffffffffffffffffffffffffffffffffffff1673ffffffffffffffffffffffffffffffffffffffff1614159050919050565b816004600083815260200190815260200160002060006101000a81548173ffffffffffffffffffffffffffffffffffffffff021916908373ffffffffffffffffffffffffffffffffffffffff160217905550808273ffffffffffffffffffffffffffffffffffffffff1661191783610d7f565b73ffffffffffffffffffffffffffffffffffffffff167f8c5be1e5ebec7d5bd14f71427d1e84f3dd0314c0f7b2291e5b200ac8c7c3b92560405160405180910390a45050565b60095442116119a1576040517f08c379a0000000000000000000000000000000000000000000000000000000008152600401611998906136ea565b60405180910390fd5b600a5442106119e5576040517f08c379a00000000000000000000000000000000000000000000000000000000081526004016119dc90613756565b60405180910390fd5b6119ee81611f18565b50565b60006119fc82611838565b611a3b576040517f08c379a0000000000000000000000000000000000000000000000000000000008152600401611a32906137e8565b60405180910390fd5b6000611a4683610d7f565b90508073ffffffffffffffffffffffffffffffffffffffff168473ffffffffffffffffffffffffffffffffffffffff161480611ab557508373ffffffffffffffffffffffffffffffffffffffff16611a9d8461088b565b73ffffffffffffffffffffffffffffffffffffffff16145b80611ac65750611ac58185611578565b5b91505092915050565b8273ffffffffffffffffffffffffffffffffffffffff16611aef82610d7f565b73ffffffffffffffffffffffffffffffffffffffff1614611b45576040517f08c379a0000000000000000000000000000000000000000000000000000000008152600401611b3c9061387a565b60405180910390fd5b600073ffffffffffffffffffffffffffffffffffffffff168273ffffffffffffffffffffffffffffffffffffffff161415611bb5576040517f08c379a0000000000000000000000000000000000000000000000000000000008152600401611bac9061390c565b60405180910390fd5b611bc06000826118a4565b6001600360008573ffffffffffffffffffffffffffffffffffffffff1673ffffffffffffffffffffffffffffffffffffffff1681526020019081526020016000206000828254611c10919061392c565b925050819055506001600360008473ffffffffffffffffffffffffffffffffffffffff1673ffffffffffffffffffffffffffffffffffffffff1681526020019081526020016000206000828254611c679190613648565b92505081905550816002600083815260200190815260200160002060006101000a81548173ffffffffffffffffffffffffffffffffffffffff021916908373ffffffffffffffffffffffffffffffffffffffff160217905550808273ffffffffffffffffffffffffffffffffffffffff168473ffffffffffffffffffffffffffffffffffffffff167fddf252ad1be2c89b69c2b068fc378daa952ba7f163c4a11628f55a4df523b3ef60405160405180910390a4505050565b600082611d2d8584611f5d565b1490509392505050565b6060600082511415611d5a57604051806020016040528060008152509050611eb7565b6000604051806060016040528060408152602001613ce46040913990506000600360028551611d899190613648565b611d93919061398f565b6004611d9f91906139c0565b90506000602082611db09190613648565b67ffffffffffffffff811115611dc957611dc8612853565b5b6040519080825280601f01601f191660200182016040528015611dfb5781602001600182028036833780820191505090505b509050818152600183018586518101602084015b81831015611e76576003830192508251603f8160121c1685015160f81b8252600182019150603f81600c1c1685015160f81b8252600182019150603f8160061c1685015160f81b8252600182019150603f811685015160f81b825260018201915050611e0f565b600389510660018114611e905760028114611ea057611eab565b613d3d60f01b6002830352611eab565b603d60f81b60018303525b50505050508093505050505b919050565b611ec7848484611acf565b611ed384848484612022565b611f12576040517f08c379a0000000000000000000000000000000000000000000000000000000008152600401611f0990613a8c565b60405180910390fd5b50505050565b60004282604051602001611f2d929190613acd565b6040516020818303038152906040528051906020012060001c905080600e81905550611f59828261160c565b5050565b60008082905060005b8451811015612017576000858281518110611f8457611f83613af9565b5b60200260200101519050611f97836121b2565b611fa0816121b2565b808311611fd7578281604051602001611fba929190613b49565b604051602081830303815290604052805190602001209250612003565b8083604051602001611fea929190613b49565b6040516020818303038152906040528051906020012092505b50808061200f90613b75565b915050611f66565b508091505092915050565b60006120438473ffffffffffffffffffffffffffffffffffffffff1661224b565b156121a5578373ffffffffffffffffffffffffffffffffffffffff1663150b7a02338786866040518563ffffffff1660e01b81526004016120879493929190613c13565b602060405180830381600087803b1580156120a157600080fd5b505af19250505080156120d257506040513d601f19601f820116820180604052508101906120cf9190613c74565b60015b612155573d8060008114612102576040519150601f19603f3d011682016040523d82523d6000602084013e612107565b606091505b5060008151141561214d576040517f08c379a000000000000000000000000000000000000000000000000000000000815260040161214490613a8c565b60405180910390fd5b805181602001fd5b63150b7a0260e01b7bffffffffffffffffffffffffffffffffffffffffffffffffffffffff1916817bffffffffffffffffffffffffffffffffffffffffffffffffffffffff1916149150506121aa565b600190505b949350505050565b612248816040516024016121c6919061274d565b6040516020818303038152906040527f27b7cf85000000000000000000000000000000000000000000000000000000007bffffffffffffffffffffffffffffffffffffffffffffffffffffffff19166020820180517bffffffffffffffffffffffffffffffffffffffffffffffffffffffff838183161783525050505061225e565b50565b600080823b905060008111915050919050565b60008151905060006a636f6e736f6c652e6c6f679050602083016000808483855afa5050505050565b6000604051905090565b600080fd5b600080fd5b60007fffffffff0000000000000000000000000000000000000000000000000000000082169050919050565b6122d08161229b565b81146122db57600080fd5b50565b6000813590506122ed816122c7565b92915050565b60006020828403121561230957612308612291565b5b6000612317848285016122de565b91505092915050565b60008115159050919050565b61233581612320565b82525050565b6000602082019050612350600083018461232c565b92915050565b600081519050919050565b600082825260208201905092915050565b60005b83811015612390578082015181840152602081019050612375565b8381111561239f576000848401525b50505050565b6000601f19601f8301169050919050565b60006123c182612356565b6123cb8185612361565b93506123db818560208601612372565b6123e4816123a5565b840191505092915050565b6000602082019050818103600083015261240981846123b6565b905092915050565b6000819050919050565b61242481612411565b811461242f57600080fd5b50565b6000813590506124418161241b565b92915050565b60006020828403121561245d5761245c612291565b5b600061246b84828501612432565b91505092915050565b600073ffffffffffffffffffffffffffffffffffffffff82169050919050565b600061249f82612474565b9050919050565b6124af81612494565b82525050565b60006020820190506124ca60008301846124a6565b92915050565b6124d981612494565b81146124e457600080fd5b50565b6000813590506124f6816124d0565b92915050565b6000806040838503121561251357612512612291565b5b6000612521858286016124e7565b925050602061253285828601612432565b9150509250929050565b61254581612411565b82525050565b6000602082019050612560600083018461253c565b92915050565b60008060006060848603121561257f5761257e612291565b5b600061258d868287016124e7565b935050602061259e868287016124e7565b92505060406125af86828701612432565b9150509250925092565b6000819050919050565b60006125de6125d96125d484612474565b6125b9565b612474565b9050919050565b60006125f0826125c3565b9050919050565b6000612602826125e5565b9050919050565b612612816125f7565b82525050565b600060208201905061262d6000830184612609565b92915050565b600080fd5b600080fd5b600080fd5b60008083601f84011261265857612657612633565b5b8235905067ffffffffffffffff81111561267557612674612638565b5b6020830191508360208202830111156126915761269061263d565b5b9250929050565b6000806000604084860312156126b1576126b0612291565b5b600084013567ffffffffffffffff8111156126cf576126ce612296565b5b6126db86828701612642565b935093505060206126ee868287016124e7565b9150509250925092565b600061270382612474565b9050919050565b612713816126f8565b82525050565b600060208201905061272e600083018461270a565b92915050565b6000819050919050565b61274781612734565b82525050565b6000602082019050612762600083018461273e565b92915050565b60006020828403121561277e5761277d612291565b5b600061278c848285016124e7565b91505092915050565b61279e81612320565b81146127a957600080fd5b50565b6000813590506127bb81612795565b92915050565b600080604083850312156127d8576127d7612291565b5b60006127e6858286016124e7565b92505060206127f7858286016127ac565b9150509250929050565b6000806020838503121561281857612817612291565b5b600083013567ffffffffffffffff81111561283657612835612296565b5b61284285828601612642565b92509250509250929050565b600080fd5b7f4e487b7100000000000000000000000000000000000000000000000000000000600052604160045260246000fd5b61288b826123a5565b810181811067ffffffffffffffff821117156128aa576128a9612853565b5b80604052505050565b60006128bd612287565b90506128c98282612882565b919050565b600067ffffffffffffffff8211156128e9576128e8612853565b5b6128f2826123a5565b9050602081019050919050565b82818337600083830152505050565b600061292161291c846128ce565b6128b3565b90508281526020810184848401111561293d5761293c61284e565b5b6129488482856128ff565b509392505050565b600082601f83011261296557612964612633565b5b813561297584826020860161290e565b91505092915050565b6000806000806080858703121561299857612997612291565b5b60006129a6878288016124e7565b94505060206129b7878288016124e7565b93505060406129c887828801612432565b925050606085013567ffffffffffffffff8111156129e9576129e8612296565b5b6129f587828801612950565b91505092959194509250565b60008060408385031215612a1857612a17612291565b5b6000612a26858286016124e7565b9250506020612a37858286016124e7565b9150509250929050565b7f4e487b7100000000000000000000000000000000000000000000000000000000600052602260045260246000fd5b60006002820490506001821680612a8857607f821691505b60208210811415612a9c57612a9b612a41565b5b50919050565b7f4552433732313a20617070726f76656420717565727920666f72206e6f6e657860008201527f697374656e7420746f6b656e0000000000000000000000000000000000000000602082015250565b6000612afe602c83612361565b9150612b0982612aa2565b604082019050919050565b60006020820190508181036000830152612b2d81612af1565b9050919050565b7f4552433732313a20617070726f76616c20746f2063757272656e74206f776e6560008201527f7200000000000000000000000000000000000000000000000000000000000000602082015250565b6000612b90602183612361565b9150612b9b82612b34565b604082019050919050565b60006020820190508181036000830152612bbf81612b83565b9050919050565b7f4552433732313a20617070726f76652063616c6c6572206973206e6f74206f7760008201527f6e6572206e6f7220617070726f76656420666f7220616c6c0000000000000000602082015250565b6000612c22603883612361565b9150612c2d82612bc6565b604082019050919050565b60006020820190508181036000830152612c5181612c15565b9050919050565b7f4d4f524520455448204e45454445440000000000000000000000000000000000600082015250565b6000612c8e600f83612361565b9150612c9982612c58565b602082019050919050565b60006020820190508181036000830152612cbd81612c81565b9050919050565b7f4552433732313a207472616e736665722063616c6c6572206973206e6f74206f60008201527f776e6572206e6f7220617070726f766564000000000000000000000000000000602082015250565b6000612d20603183612361565b9150612d2b82612cc4565b604082019050919050565b60006020820190508181036000830152612d4f81612d13565b9050919050565b7f416c726561647920636c61696d65640000000000000000000000000000000000600082015250565b6000612d8c600f83612361565b9150612d9782612d56565b602082019050919050565b60006020820190508181036000830152612dbb81612d7f565b9050919050565b60008160601b9050919050565b6000612dda82612dc2565b9050919050565b6000612dec82612dcf565b9050919050565b612e04612dff82612494565b612de1565b82525050565b6000612e168284612df3565b60148201915081905092915050565b7f496e76616c69642050726f6f6600000000000000000000000000000000000000600082015250565b6000612e5b600d83612361565b9150612e6682612e25565b602082019050919050565b60006020820190508181036000830152612e8a81612e4e565b9050919050565b600067ffffffffffffffff821115612eac57612eab612853565b5b612eb5826123a5565b9050602081019050919050565b6000612ed5612ed084612e91565b6128b3565b905082815260208101848484011115612ef157612ef061284e565b5b612efc848285612372565b509392505050565b600082601f830112612f1957612f18612633565b5b8151612f29848260208601612ec2565b91505092915050565b600060208284031215612f4857612f47612291565b5b600082015167ffffffffffffffff811115612f6657612f65612296565b5b612f7284828501612f04565b91505092915050565b7f4552433732313a206f776e657220717565727920666f72206e6f6e657869737460008201527f656e7420746f6b656e0000000000000000000000000000000000000000000000602082015250565b6000612fd7602983612361565b9150612fe282612f7b565b604082019050919050565b6000602082019050818103600083015261300681612fca565b9050919050565b7f4552433732313a2062616c616e636520717565727920666f7220746865207a6560008201527f726f206164647265737300000000000000000000000000000000000000000000602082015250565b6000613069602a83612361565b91506130748261300d565b604082019050919050565b600060208201905081810360008301526130988161305c565b9050919050565b7f4552433732313a20617070726f766520746f2063616c6c657200000000000000600082015250565b60006130d5601983612361565b91506130e08261309f565b602082019050919050565b60006020820190508181036000830152613104816130c8565b9050919050565b7f4552433732314d657461646174613a2055524920717565727920666f72206e6f60008201527f6e6578697374656e7420746f6b656e0000000000000000000000000000000000602082015250565b6000613167602f83612361565b91506131728261310b565b604082019050919050565b600060208201905081810360008301526131968161315a565b9050919050565b600081905092915050565b7f7b226e616d65223a220000000000000000000000000000000000000000000000600082015250565b60006131de60098361319d565b91506131e9826131a8565b600982019050919050565b60006131ff82612356565b613209818561319d565b9350613219818560208601612372565b80840191505092915050565b7f222c20226465736372697074696f6e223a220000000000000000000000000000600082015250565b600061325b60128361319d565b915061326682613225565b601282019050919050565b7f222c2022696d616765223a202200000000000000000000000000000000000000600082015250565b60006132a7600d8361319d565b91506132b282613271565b600d82019050919050565b7f646174613a696d6167652f7376672b786d6c3b6261736536342c000000000000600082015250565b60006132f3601a8361319d565b91506132fe826132bd565b601a82019050919050565b7f222c000000000000000000000000000000000000000000000000000000000000600082015250565b600061333f60028361319d565b915061334a82613309565b600282019050919050565b7f7d00000000000000000000000000000000000000000000000000000000000000600082015250565b600061338b60018361319d565b915061339682613355565b600182019050919050565b60006133ac826131d1565b91506133b882876131f4565b91506133c38261324e565b91506133cf82866131f4565b91506133da8261329a565b91506133e5826132e6565b91506133f182856131f4565b91506133fc82613332565b915061340882846131f4565b91506134138261337e565b915081905095945050505050565b7f646174613a6170706c69636174696f6e2f6a736f6e3b6261736536342c000000600082015250565b6000613457601d8361319d565b915061346282613421565b601d82019050919050565b60006134788261344a565b915061348482846131f4565b915081905092915050565b7f4e4f545f434f4c4c4543544f5200000000000000000000000000000000000000600082015250565b60006134c5600d83612361565b91506134d08261348f565b602082019050919050565b600060208201905081810360008301526134f4816134b8565b9050919050565b600081905092915050565b50565b60006135166000836134fb565b915061352182613506565b600082019050919050565b600061353782613509565b9150819050919050565b7f4552433732313a206d696e7420746f20746865207a65726f2061646472657373600082015250565b6000613577602083612361565b915061358282613541565b602082019050919050565b600060208201905081810360008301526135a68161356a565b9050919050565b7f4552433732313a20746f6b656e20616c7265616479206d696e74656400000000600082015250565b60006135e3601c83612361565b91506135ee826135ad565b602082019050919050565b60006020820190508181036000830152613612816135d6565b9050919050565b7f4e487b7100000000000000000000000000000000000000000000000000000000600052601160045260246000fd5b600061365382612411565b915061365e83612411565b9250827fffffffffffffffffffffffffffffffffffffffffffffffffffffffffffffffff0382111561369357613692613619565b5b828201905092915050565b7f4e4f545f53544152544544000000000000000000000000000000000000000000600082015250565b60006136d4600b83612361565b91506136df8261369e565b602082019050919050565b60006020820190508181036000830152613703816136c7565b9050919050565b7f454e444544000000000000000000000000000000000000000000000000000000600082015250565b6000613740600583612361565b915061374b8261370a565b602082019050919050565b6000602082019050818103600083015261376f81613733565b9050919050565b7f4552433732313a206f70657261746f7220717565727920666f72206e6f6e657860008201527f697374656e7420746f6b656e0000000000000000000000000000000000000000602082015250565b60006137d2602c83612361565b91506137dd82613776565b604082019050919050565b60006020820190508181036000830152613801816137c5565b9050919050565b7f4552433732313a207472616e73666572206f6620746f6b656e2074686174206960008201527f73206e6f74206f776e0000000000000000000000000000000000000000000000602082015250565b6000613864602983612361565b915061386f82613808565b604082019050919050565b6000602082019050818103600083015261389381613857565b9050919050565b7f4552433732313a207472616e7366657220746f20746865207a65726f2061646460008201527f7265737300000000000000000000000000000000000000000000000000000000602082015250565b60006138f6602483612361565b91506139018261389a565b604082019050919050565b60006020820190508181036000830152613925816138e9565b9050919050565b600061393782612411565b915061394283612411565b92508282101561395557613954613619565b5b828203905092915050565b7f4e487b7100000000000000000000000000000000000000000000000000000000600052601260045260246000fd5b600061399a82612411565b91506139a583612411565b9250826139b5576139b4613960565b5b828204905092915050565b60006139cb82612411565b91506139d683612411565b9250817fffffffffffffffffffffffffffffffffffffffffffffffffffffffffffffffff0483118215151615613a0f57613a0e613619565b5b828202905092915050565b7f4552433732313a207472616e7366657220746f206e6f6e20455243373231526560008201527f63656976657220696d706c656d656e7465720000000000000000000000000000602082015250565b6000613a76603283612361565b9150613a8182613a1a565b604082019050919050565b60006020820190508181036000830152613aa581613a69565b9050919050565b6000819050919050565b613ac7613ac282612411565b613aac565b82525050565b6000613ad98285613ab6565b602082019150613ae98284612df3565b6014820191508190509392505050565b7f4e487b7100000000000000000000000000000000000000000000000000000000600052603260045260246000fd5b6000819050919050565b613b43613b3e82612734565b613b28565b82525050565b6000613b558285613b32565b602082019150613b658284613b32565b6020820191508190509392505050565b6000613b8082612411565b91507fffffffffffffffffffffffffffffffffffffffffffffffffffffffffffffffff821415613bb357613bb2613619565b5b600182019050919050565b600081519050919050565b600082825260208201905092915050565b6000613be582613bbe565b613bef8185613bc9565b9350613bff818560208601612372565b613c08816123a5565b840191505092915050565b6000608082019050613c2860008301876124a6565b613c3560208301866124a6565b613c42604083018561253c565b8181036060830152613c548184613bda565b905095945050505050565b600081519050613c6e816122c7565b92915050565b600060208284031215613c8a57613c89612291565b5b6000613c9884828501613c5f565b9150509291505056fe436572616d6963206265696e677320776974682073696d756c6174656420736f756c7320636f6c6c656374656420627920746865204d61727469616e2c204e79782e4142434445464748494a4b4c4d4e4f505152535455565758595a6162636465666768696a6b6c6d6e6f707172737475767778797a303132333435363738392b2fa2646970667358221220cc495c5edaeba222f44d783f024d72d3e958c3766ab4ad3cfdd2fa9b5cbe48a264736f6c63430008090033608060405234801561001057600080fd5b50615f3d806100206000396000f3fe608060405234801561001057600080fd5b50600436106100cf5760003560e01c806388c9f4ec1161008c5780639c041524116100665780639c04152414610284578063cde0e4b7146102b4578063d05e3b8c146102e4578063dcaf635d14610314576100cf565b806388c9f4ec146101f457806388de3fb2146102245780639adf953d14610254576100cf565b80631381a846146100d4578063192a0a1f14610104578063245283b7146101345780632822b87d146101645780634b44d8121461019457806379b92f27146101c4575b600080fd5b6100ee60048036038101906100e991906117b3565b610344565b6040516100fb919061188c565b60405180910390f35b61011e600480360381019061011991906118ae565b61042d565b60405161012b919061188c565b60405180910390f35b61014e60048036038101906101499190611a10565b61046a565b60405161015b919061188c565b60405180910390f35b61017e60048036038101906101799190611a10565b610660565b60405161018b919061188c565b60405180910390f35b6101ae60048036038101906101a991906118ae565b61070e565b6040516101bb919061188c565b60405180910390f35b6101de60048036038101906101d991906118ae565b610aa0565b6040516101eb919061188c565b60405180910390f35b61020e60048036038101906102099190611a10565b610de6565b60405161021b919061188c565b60405180910390f35b61023e60048036038101906102399190611afa565b611031565b60405161024b919061188c565b60405180910390f35b61026e60048036038101906102699190611a10565b61105a565b60405161027b919061188c565b60405180910390f35b61029e60048036038101906102999190611a10565b611114565b6040516102ab919061188c565b60405180910390f35b6102ce60048036038101906102c99190611a10565b61130a565b6040516102db919061188c565b60405180910390f35b6102fe60048036038101906102f99190611b43565b6113fb565b60405161030b919061188c565b60405180910390f35b61032e60048036038101906103299190611bea565b61142a565b60405161033b919061188c565b60405180910390f35b6060600182141561037e5761035883611456565b6040516020016103689190611cea565b6040516020818303038152906040529050610427565b60028214156103b65761039083611456565b6040516020016103a09190611d58565b6040516020818303038152906040529050610427565b60038214156103ee576103c883611456565b6040516020016103d89190611dc6565b6040516020818303038152906040529050610427565b60048214156104265761040083611456565b6040516020016104109190611e34565b6040516020818303038152906040529050610427565b5b92915050565b606061044461043b83611456565b600060086115b7565b6040516020016104549190611ea2565b6040516020818303038152906040529050919050565b60606000610100606461047e8560006116b3565b60ff1661048b9190611ef3565b6104959190611f7c565b9050600a8110156104c457604051806101e001604052806101a881526020016157b86101a8913991505061065b565b60148110156104f157604051806101e001604052806101ae815260200161560a6101ae913991505061065b565b601e81101561051e576040518061016001604052806101368152602001614d8e610136913991505061065b565b602881101561054b57604051806101a001604052806101788152602001613f97610178913991505061065b565b603281101561057857604051806101a001604052806101628152602001615ad8610162913991505061065b565b603c8110156105a557604051806101a001604052806101788152602001615960610178913991505061065b565b60468110156105d257604051806101a0016040528061016e8152602001615c3a61016e913991505061065b565b60508110156105ff57604051806101c0016040528061018f815260200161547b61018f913991505061065b565b605a81101561062c576040518061016001604052806101388152602001615da8610138913991505061065b565b60648110156106595760405180610180016040528061015981526020016149d1610159913991505061065b565b505b919050565b6060600060406106718460016116b3565b60ff1661067e9190611f7c565b9050600061068d8460026116b3565b60ff1690506106d06040518060400160405280600481526020017f626c757200000000000000000000000000000000000000000000000000000000815250611031565b6106db600584610344565b6106e483611456565b6040516020016106f693929190612363565b60405160208183030381529060405292505050919050565b606060008260001b6040516020016107269190612422565b604051602081830303815290604052905060006107448260006116b3565b60ff16905060006040518060400160405280600481526020017f6e6f6e6500000000000000000000000000000000000000000000000000000000815250905060808210156107c5576040518060400160405280600581526020017f776869746500000000000000000000000000000000000000000000000000000081525090505b6107ce8361046a565b6107d784610660565b6107e08561130a565b6107e98661105a565b6107f287610de6565b6108676040518060400160405280600381526020017f302e3700000000000000000000000000000000000000000000000000000000008152506040518060400160405280600481526020017f626c757200000000000000000000000000000000000000000000000000000000815250886113fb565b6109116040518060400160405280600381526020017f302e3500000000000000000000000000000000000000000000000000000000008152506040518060400160405280600581526020017f73746570730000000000000000000000000000000000000000000000000000008152506040518060400160405280600481526020017f6e6f6e65000000000000000000000000000000000000000000000000000000008152506113fb565b6109bb6040518060400160405280600181526020017f31000000000000000000000000000000000000000000000000000000000000008152506040518060400160405280600581526020017f74757262310000000000000000000000000000000000000000000000000000008152506040518060400160405280600481526020017f6e6f6e65000000000000000000000000000000000000000000000000000000008152506113fb565b610a656040518060400160405280600381526020017f302e3700000000000000000000000000000000000000000000000000000000008152506040518060400160405280600581526020017f74757262320000000000000000000000000000000000000000000000000000008152506040518060400160405280600481526020017f6e6f6e65000000000000000000000000000000000000000000000000000000008152506113fb565b610a6e8c611114565b604051602001610a879a99989796959493929190612605565b6040516020818303038152906040529350505050919050565b606060008260001b604051602001610ab89190612422565b604051602081830303815290604052905060006101006064610adb8460006116b3565b60ff16610ae89190611ef3565b610af29190611f7c565b90506000604051806060016040528060288152602001615ee06028913990506000604051806020016040528060008152509050600a831015610b67576040518060400160405280600b81526020017f2254797065204f6e65227d00000000000000000000000000000000000000000081525090505b6014831015610ba9576040518060400160405280600b81526020017f22547970652054776f227d00000000000000000000000000000000000000000081525090505b601e831015610beb576040518060400160405280600d81526020017f2254797065205468726565227d0000000000000000000000000000000000000081525090505b6028831015610c2d576040518060400160405280600c81526020017f225479706520466f7572227d000000000000000000000000000000000000000081525090505b6032831015610c6f576040518060400160405280600c81526020017f22547970652046697665227d000000000000000000000000000000000000000081525090505b603c831015610cb1576040518060400160405280600b81526020017f225479706520536978227d00000000000000000000000000000000000000000081525090505b6046831015610cf3576040518060400160405280600d81526020017f225479706520536576656e227d0000000000000000000000000000000000000081525090505b6050831015610d35576040518060400160405280600d81526020017f2254797065204569676874227d0000000000000000000000000000000000000081525090505b605a831015610d77576040518060400160405280600c81526020017f2254797065204e696e65227d000000000000000000000000000000000000000081525090505b6064831015610db9576040518060400160405280600b81526020017f22547970652054656e227d00000000000000000000000000000000000000000081525090505b8181604051602001610dcc929190612755565b604051602081830303815290604052945050505050919050565b606060006040610df78460056116b3565b60ff16610e049190611f7c565b90506000610e138460066116b3565b60ff16905060006080610e278660076116b3565b60ff16610e349190611f7c565b905060006040518060200160405280600081525090506001821415610e8c576040518060400160405280600181526020017f2d0000000000000000000000000000000000000000000000000000000000000081525090505b60006080610e9b8860086116b3565b60ff16610ea89190611f7c565b905060006040518060200160405280600081525090506001821415610f00576040518060400160405280600181526020017f2d0000000000000000000000000000000000000000000000000000000000000081525090505b60006080610f0f8a60096116b3565b60ff16610f1c9190611f7c565b905060006040518060200160405280600081525090506001821415610f74576040518060400160405280600181526020017f2d0000000000000000000000000000000000000000000000000000000000000081525090505b60006040610f838c600a6116b3565b60ff16610f909190611f7c565b9050610fd06040518060400160405280600581526020017f7475726232000000000000000000000000000000000000000000000000000000815250611031565b610fe7600560018c610fe2919061278f565b610344565b610ff08a611456565b888786610ffc87611456565b6040516020016110129796959493929190612add565b6040516020818303038152906040529950505050505050505050919050565b6060816040516020016110449190612c74565b6040516020818303038152906040529050919050565b60606000604061106b8460036116b3565b60ff166110789190611f7c565b905060006110878460046116b3565b60ff1690506110ca6040518060400160405280600581526020017f7475726231000000000000000000000000000000000000000000000000000000815250611031565b6110e160056001856110dc919061278f565b610344565b6110ea83611456565b6040516020016110fc93929190612ca1565b60405160208183030381529060405292505050919050565b6060600061010060646111288560006116b3565b60ff166111359190611ef3565b61113f9190611f7c565b9050600a81101561116e57604051806102c0016040528061029c8152602001614ec461029c9139915050611305565b601481101561119b576040518061032001604052806102eb815260200161410f6102eb9139915050611305565b601e8110156111c857604051806102e001604052806102b281526020016143fa6102b29139915050611305565b60288110156111f55760405180610340016040528061030581526020016132b16103059139915050611305565b60328110156112225760405180610340016040528061032081526020016135b66103209139915050611305565b603c81101561124f5760405180610380016040528061035b81526020016138d661035b9139915050611305565b604681101561127c57604051806103a001604052806103668152602001613c316103669139915050611305565b60508110156112a95760405180610360016040528061032581526020016146ac6103259139915050611305565b605a8110156112d657604051806102a001604052806102648152602001614b2a6102649139915050611305565b60648110156113035760405180610340016040528061031b815260200161516061031b9139915050611305565b505b919050565b60606000604061131b8460016116b3565b60ff166113289190611f7c565b90506000600a610100606461133e8760026116b3565b60ff1661134b9190611ef3565b6113559190611f7c565b61135f9190611f7c565b9050600061136e8560026116b3565b60ff1690506113b16040518060400160405280600581526020017f7374657073000000000000000000000000000000000000000000000000000000815250611031565b6113c7836001866113c2919061278f565b610344565b6113d083611456565b6040516020016113e293929190612e08565b6040516020818303038152906040529350505050919050565b606083838360405160200161141293929190612f9b565b60405160208183030381529060405290509392505050565b6060828260405160200161143f9291906130b6565b604051602081830303815290604052905092915050565b6060600082141561149e576040518060400160405280600181526020017f300000000000000000000000000000000000000000000000000000000000000081525090506115b2565b600082905060005b600082146114d05780806114b9906130fb565b915050600a826114c99190611f7c565b91506114a6565b60008167ffffffffffffffff8111156114ec576114eb6118e5565b5b6040519080825280601f01601f19166020018201604052801561151e5781602001600182028036833780820191505090505b5090505b600085146115ab576001826115379190613144565b9150600a856115469190613178565b6030611552919061278f565b60f81b818381518110611568576115676131a9565b5b60200101907effffffffffffffffffffffffffffffffffffffffffffffffffffffffffffff1916908160001a905350600a856115a49190611f7c565b9450611522565b8093505050505b919050565b60606000849050600084846115cc9190613144565b67ffffffffffffffff8111156115e5576115e46118e5565b5b6040519080825280601f01601f1916602001820160405280156116175781602001600182028036833780820191505090505b50905060008590505b848110156116a65782818151811061163b5761163a6131a9565b5b602001015160f81c60f81b8287836116539190613144565b81518110611664576116636131a9565b5b60200101907effffffffffffffffffffffffffffffffffffffffffffffffffffffffffffff1916908160001a905350808061169e906130fb565b915050611620565b5080925050509392505050565b6000816001836116c3919061278f565b1015611704576040517f08c379a00000000000000000000000000000000000000000000000000000000081526004016116fb90613224565b60405180910390fd5b600182611711919061278f565b83511015611754576040517f08c379a000000000000000000000000000000000000000000000000000000000815260040161174b90613290565b60405180910390fd5b60008260018501015190508091505092915050565b6000604051905090565b600080fd5b600080fd5b6000819050919050565b6117908161177d565b811461179b57600080fd5b50565b6000813590506117ad81611787565b92915050565b600080604083850312156117ca576117c9611773565b5b60006117d88582860161179e565b92505060206117e98582860161179e565b9150509250929050565b600081519050919050565b600082825260208201905092915050565b60005b8381101561182d578082015181840152602081019050611812565b8381111561183c576000848401525b50505050565b6000601f19601f8301169050919050565b600061185e826117f3565b61186881856117fe565b935061187881856020860161180f565b61188181611842565b840191505092915050565b600060208201905081810360008301526118a68184611853565b905092915050565b6000602082840312156118c4576118c3611773565b5b60006118d28482850161179e565b91505092915050565b600080fd5b600080fd5b7f4e487b7100000000000000000000000000000000000000000000000000000000600052604160045260246000fd5b61191d82611842565b810181811067ffffffffffffffff8211171561193c5761193b6118e5565b5b80604052505050565b600061194f611769565b905061195b8282611914565b919050565b600067ffffffffffffffff82111561197b5761197a6118e5565b5b61198482611842565b9050602081019050919050565b82818337600083830152505050565b60006119b36119ae84611960565b611945565b9050828152602081018484840111156119cf576119ce6118e0565b5b6119da848285611991565b509392505050565b600082601f8301126119f7576119f66118db565b5b8135611a078482602086016119a0565b91505092915050565b600060208284031215611a2657611a25611773565b5b600082013567ffffffffffffffff811115611a4457611a43611778565b5b611a50848285016119e2565b91505092915050565b600067ffffffffffffffff821115611a7457611a736118e5565b5b611a7d82611842565b9050602081019050919050565b6000611a9d611a9884611a59565b611945565b905082815260208101848484011115611ab957611ab86118e0565b5b611ac4848285611991565b509392505050565b600082601f830112611ae157611ae06118db565b5b8135611af1848260208601611a8a565b91505092915050565b600060208284031215611b1057611b0f611773565b5b600082013567ffffffffffffffff811115611b2e57611b2d611778565b5b611b3a84828501611acc565b91505092915050565b600080600060608486031215611b5c57611b5b611773565b5b600084013567ffffffffffffffff811115611b7a57611b79611778565b5b611b8686828701611acc565b935050602084013567ffffffffffffffff811115611ba757611ba6611778565b5b611bb386828701611acc565b925050604084013567ffffffffffffffff811115611bd457611bd3611778565b5b611be086828701611acc565b9150509250925092565b60008060408385031215611c0157611c00611773565b5b600083013567ffffffffffffffff811115611c1f57611c1e611778565b5b611c2b85828601611acc565b925050602083013567ffffffffffffffff811115611c4c57611c4b611778565b5b611c5885828601611acc565b9150509250929050565b600081905092915050565b7f302e000000000000000000000000000000000000000000000000000000000000600082015250565b6000611ca3600283611c62565b9150611cae82611c6d565b600282019050919050565b6000611cc4826117f3565b611cce8185611c62565b9350611cde81856020860161180f565b80840191505092915050565b6000611cf582611c96565b9150611d018284611cb9565b915081905092915050565b7f302e300000000000000000000000000000000000000000000000000000000000600082015250565b6000611d42600383611c62565b9150611d4d82611d0c565b600382019050919050565b6000611d6382611d35565b9150611d6f8284611cb9565b915081905092915050565b7f302e303000000000000000000000000000000000000000000000000000000000600082015250565b6000611db0600483611c62565b9150611dbb82611d7a565b600482019050919050565b6000611dd182611da3565b9150611ddd8284611cb9565b915081905092915050565b7f302e303030000000000000000000000000000000000000000000000000000000600082015250565b6000611e1e600583611c62565b9150611e2982611de8565b600582019050919050565b6000611e3f82611e11565b9150611e4b8284611cb9565b915081905092915050565b7f4c6974746c65204d61727469616e202300000000000000000000000000000000600082015250565b6000611e8c601083611c62565b9150611e9782611e56565b601082019050919050565b6000611ead82611e7f565b9150611eb98284611cb9565b915081905092915050565b7f4e487b7100000000000000000000000000000000000000000000000000000000600052601160045260246000fd5b6000611efe8261177d565b9150611f098361177d565b9250817fffffffffffffffffffffffffffffffffffffffffffffffffffffffffffffffff0483118215151615611f4257611f41611ec4565b5b828202905092915050565b7f4e487b7100000000000000000000000000000000000000000000000000000000600052601260045260246000fd5b6000611f878261177d565b9150611f928361177d565b925082611fa257611fa1611f4d565b5b828204905092915050565b7f3c666554757262756c656e636520626173654672657175656e63793d22000000600082015250565b6000611fe3601d83611c62565b9150611fee82611fad565b601d82019050919050565b7f2220736565643d22000000000000000000000000000000000000000000000000600082015250565b600061202f600883611c62565b915061203a82611ff9565b600882019050919050565b7f2220726573756c743d227475726273222f3e0000000000000000000000000000600082015250565b600061207b601283611c62565b915061208682612045565b601282019050919050565b7f3c666553706563756c61724c69676874696e6720737572666163655363616c6560008201527f3d223230302220726573756c743d226f7574222073706563756c61724578706f60208201527f6e656e743d223230223e00000000000000000000000000000000000000000000604082015250565b6000612113604a83611c62565b915061211e82612091565b604a82019050919050565b7f3c6665506f696e744c6967687420783d223231362220793d22313722207a3d2260008201527f323030222f3e0000000000000000000000000000000000000000000000000000602082015250565b6000612185602683611c62565b915061219082612129565b602682019050919050565b7f3c2f666553706563756c61724c69676874696e673e0000000000000000000000600082015250565b60006121d1601583611c62565b91506121dc8261219b565b601582019050919050565b7f3c6665476175737369616e426c757220696e3d226f757422207374644465766960008201527f6174696f6e3d22342220726573756c743d22626c7572726564222f3e00000000602082015250565b6000612243603c83611c62565b915061224e826121e7565b603c82019050919050565b7f3c6665436f6d706f7369746520696e3d22536f7572636547726170686963222060008201527f696e323d22626c757272656422206f70657261746f723d2261726974686d657460208201527f696322206b313d223022206b323d223122206b333d223122206b343d2230222f60408201527f3e00000000000000000000000000000000000000000000000000000000000000606082015250565b6000612301606183611c62565b915061230c82612259565b606182019050919050565b7f3c2f66696c7465723e0000000000000000000000000000000000000000000000600082015250565b600061234d600983611c62565b915061235882612317565b600982019050919050565b600061236f8286611cb9565b915061237a82611fd6565b91506123868285611cb9565b915061239182612022565b915061239d8284611cb9565b91506123a88261206e565b91506123b382612106565b91506123be82612178565b91506123c9826121c4565b91506123d482612236565b91506123df826122f4565b91506123ea82612340565b9150819050949350505050565b6000819050919050565b6000819050919050565b61241c612417826123f7565b612401565b82525050565b600061242e828461240b565b60208201915081905092915050565b7f3c7376672077696474683d2234383022206865696768743d223436302220766960008201527f6577426f783d2230203020343830203436302220786d6c6e733d22687474703a60208201527f2f2f7777772e77332e6f72672f323030302f737667223e000000000000000000604082015250565b60006124bf605783611c62565b91506124ca8261243d565b605782019050919050565b7f3c7374796c6520747970653d22746578742f637373223e2e637b66696c6c3a7760008201527f686974657d3c2f7374796c653e00000000000000000000000000000000000000602082015250565b6000612531602d83611c62565b915061253c826124d5565b602d82019050919050565b7f3c726563742077696474683d2234383022206865696768743d2234363022206660008201527f696c6c3d22626c61636b222f3e00000000000000000000000000000000000000602082015250565b60006125a3602d83611c62565b91506125ae82612547565b602d82019050919050565b7f3c2f7376673e0000000000000000000000000000000000000000000000000000600082015250565b60006125ef600683611c62565b91506125fa826125b9565b600682019050919050565b6000612610826124b2565b915061261b82612524565b915061262682612596565b9150612632828d611cb9565b915061263e828c611cb9565b915061264a828b611cb9565b9150612656828a611cb9565b91506126628289611cb9565b915061266e8288611cb9565b915061267a8287611cb9565b91506126868286611cb9565b91506126928285611cb9565b915061269e8284611cb9565b91506126a9826125e2565b91508190509b9a5050505050505050505050565b7f2261747472696275746573223a205b0000000000000000000000000000000000600082015250565b60006126f3600f83611c62565b91506126fe826126bd565b600f82019050919050565b7f5d00000000000000000000000000000000000000000000000000000000000000600082015250565b600061273f600183611c62565b915061274a82612709565b600182019050919050565b6000612760826126e6565b915061276c8285611cb9565b91506127788284611cb9565b915061278382612732565b91508190509392505050565b600061279a8261177d565b91506127a58361177d565b9250827fffffffffffffffffffffffffffffffffffffffffffffffffffffffffffffffff038211156127da576127d9611ec4565b5b828201905092915050565b7f3c6665436f6d706f6e656e745472616e7366657220726573756c743d2277617660008201527f65223e0000000000000000000000000000000000000000000000000000000000602082015250565b6000612841602383611c62565b915061284c826127e5565b602382019050919050565b7f3c666546756e635220747970653d226c696e6561722220736c6f70653d22302e60008201527f312220696e746572636570743d22000000000000000000000000000000000000602082015250565b60006128b3602e83611c62565b91506128be82612857565b602e82019050919050565b7f312e3030222f3e00000000000000000000000000000000000000000000000000600082015250565b60006128ff600783611c62565b915061290a826128c9565b600782019050919050565b7f3c666546756e634720747970653d2267616d6d612220616d706c69747564653d60008201527f22302e373522206578706f6e656e743d22302e3622206f66667365743d220000602082015250565b6000612971603e83611c62565b915061297c82612915565b603e82019050919050565b7f3c666546756e634220747970653d2267616d6d612220616d706c69747564653d60008201527f22302e3822206578706f6e656e743d22302e3422206f66667365743d22000000602082015250565b60006129e3603d83611c62565b91506129ee82612987565b603d82019050919050565b7f3c666546756e634120747970653d226c696e6561722220736c6f70653d220000600082015250565b6000612a2f601e83611c62565b9150612a3a826129f9565b601e82019050919050565b7f222f3e0000000000000000000000000000000000000000000000000000000000600082015250565b6000612a7b600383611c62565b9150612a8682612a45565b600382019050919050565b7f3c2f6665436f6d706f6e656e745472616e736665723e00000000000000000000600082015250565b6000612ac7601683611c62565b9150612ad282612a91565b601682019050919050565b6000612ae9828a611cb9565b9150612af482611fd6565b9150612b008289611cb9565b9150612b0b82612022565b9150612b178288611cb9565b9150612b228261206e565b9150612b2d82612834565b9150612b38826128a6565b9150612b448287611cb9565b9150612b4f826128f2565b9150612b5a82612964565b9150612b668286611cb9565b9150612b71826128f2565b9150612b7c826129d6565b9150612b888285611cb9565b9150612b93826128f2565b9150612b9e82612a22565b9150612baa8284611cb9565b9150612bb582612a6e565b9150612bc082612aba565b9150612bcb82612340565b915081905098975050505050505050565b7f3c66696c7465722069643d220000000000000000000000000000000000000000600082015250565b6000612c12600c83611c62565b9150612c1d82612bdc565b600c82019050919050565b7f222077696474683d223130302522206865696768743d2231303025223e000000600082015250565b6000612c5e601d83611c62565b9150612c6982612c28565b601d82019050919050565b6000612c7f82612c05565b9150612c8b8284611cb9565b9150612c9682612c51565b915081905092915050565b6000612cad8286611cb9565b9150612cb882611fd6565b9150612cc48285611cb9565b9150612ccf82612022565b9150612cdb8284611cb9565b9150612ce68261206e565b9150612cf182612340565b9150819050949350505050565b7f3c666553706563756c61724c69676874696e6720737572666163655363616c6560008201527f3d223230302220726573756c743d22737065634f7574222073706563756c617260208201527f4578706f6e656e743d223230223e000000000000000000000000000000000000604082015250565b6000612d80604e83611c62565b9150612d8b82612cfe565b604e82019050919050565b7f3c6665506f696e744c6967687420783d223231302220793d22313722207a3d2260008201527f323030222f3e0000000000000000000000000000000000000000000000000000602082015250565b6000612df2602683611c62565b9150612dfd82612d96565b602682019050919050565b6000612e148286611cb9565b9150612e1f82611fd6565b9150612e2b8285611cb9565b9150612e3682612022565b9150612e428284611cb9565b9150612e4d8261206e565b9150612e5882612d73565b9150612e6382612de5565b9150612e6e826121c4565b9150612e79826122f4565b9150612e8482612340565b9150819050949350505050565b7f3c726563742077696474683d223130302522206865696768743d22323030252260008201527f20636c69702d706174683d2275726c28236d2922206f7061636974793d220000602082015250565b6000612eed603e83611c62565b9150612ef882612e91565b603e82019050919050565b7f222066696c7465723d2275726c28230000000000000000000000000000000000600082015250565b6000612f39600f83611c62565b9150612f4482612f03565b600f82019050919050565b7f29222066696c6c3d220000000000000000000000000000000000000000000000600082015250565b6000612f85600983611c62565b9150612f9082612f4f565b600982019050919050565b6000612fa682612ee0565b9150612fb28286611cb9565b9150612fbd82612f2c565b9150612fc98285611cb9565b9150612fd482612f78565b9150612fe08284611cb9565b9150612feb82612a6e565b9150819050949350505050565b7f3c666554757262756c656e636520747970653d2274757262756c656e6365222060008201527f736565643d220000000000000000000000000000000000000000000000000000602082015250565b6000613054602683611c62565b915061305f82612ff8565b602682019050919050565b7f2220626173654672657175656e63793d22000000000000000000000000000000600082015250565b60006130a0601183611c62565b91506130ab8261306a565b601182019050919050565b60006130c182613047565b91506130cd8285611cb9565b91506130d882613093565b91506130e48284611cb9565b91506130ef8261206e565b91508190509392505050565b60006131068261177d565b91507fffffffffffffffffffffffffffffffffffffffffffffffffffffffffffffffff82141561313957613138611ec4565b5b600182019050919050565b600061314f8261177d565b915061315a8361177d565b92508282101561316d5761316c611ec4565b5b828203905092915050565b60006131838261177d565b915061318e8361177d565b92508261319e5761319d611f4d565b5b828206905092915050565b7f4e487b7100000000000000000000000000000000000000000000000000000000600052603260045260246000fd5b7f746f55696e74385f6f766572666c6f7700000000000000000000000000000000600082015250565b600061320e6010836117fe565b9150613219826131d8565b602082019050919050565b6000602082019050818103600083015261323d81613201565b9050919050565b7f746f55696e74385f6f75744f66426f756e647300000000000000000000000000600082015250565b600061327a6013836117fe565b915061328582613244565b602082019050919050565b600060208201905081810360008301526132a98161326d565b905091905056fe3c7061746820636c6173733d22632220643d224d3135392032333963302d32203720302031342d346c342d3420362d3720352d3131733420362034203131633120372d352031362d3134203139732d31392d332d31392d347a4d32373020313939632d312d3220362d392031332d31326c31302d3363372d3520382d31322031302d3131203220302033203920302031352d3420352d3920372d313820392d3420312d313420342d313520327a4d313334203231386331203020332d392031332d31366c312d322031362d376331332d352031322d31322032312d313320372d3120313220312031322031732d382d362d31352d36632d3820302d3820332d32312031302d313020362d3920312d313520362d313020392d31332032372d31322032377a204d33303520313431732d31312d392d32332d36632d3320312d3520322d32312031386c2d3133203134632d3420362d31312031342d31322032362d3220313620372033302031372034356c3130203133203220322031302031306338203620313620392031372039203520322037203220372034203120322d3320352d3820392d31302031302d382031342d31342031386c2d32302032632d3820312d3820322d313220312d362d312d31352d352d31342d376c3134203363313420322032382d332032392d3420372d372031322d31342031332d313820312d362d31322d332d32362d31372d362d362d31322d31322d31372d32302d392d31332d31322d32342d31332d32372d342d31362d322d32382d322d333120312d313020352d31362031332d323420352d3520352d392031352d31377331302d31302031342d31326331352d36203334203820333420397a4d3234352033343573372d31312031352d313463342d3220352d312031342d3320372d322031302d332031342d366c382d3963362d3720362d3920392d313020332d3220392d362031312d34203220312032203320302031366c2d34203136632d3520382d31322031312d31382031342d3820332d313420342d313920342d3920312d33302d342d33302d347a222f3e3c7061746820636c6173733d22632220643d224d313236203231366c372d3663332d3320362d342031302d3420392d312037203020313220316c34203273342034203220342d3820372d31352037632d313520312d32302d342d32302d347a204d313234203137326330203120362d352031322d362031332d3120323420322033332031316c3120316331302031312031302032352031302032386c2d342031382d36203238632d3120313420312032312d342032376c2d362036632d3520352d3820362d3820382030203420342036203520376c392036203920356334203120362d342031332d3673392032203138203063372d312031332d352031322d366c2d31372031632d313920312d313620352d323320362d313020302d31392d382d32302d31302d312d3620352d31302031302d313720342d3520342d313520352d323520332d323420342d323120372d333420332d313020332d313520322d32322d322d31372d322d32342d31372d33322d392d352d32332d392d33322d322d3520342d313020372d3920387a4d323334203231396c31302d3763342d3220392d312031332d31203420312039203120313620366c332035633420352039203320392034732d3420322d392032632d3420302d3720302d31322d322d362d312d31312d352d31372d362d31312d322d31332d312d31332d317a4d32393420313930633020312d342d362d31312d31312d382d352d31352d362d32352d362d31312d312d32312d312d323920356c2d352035632d312d3120312d3620352d3920372d372031392d362033322d34203130203120313620322032322036203820362031312031342031312031347a4d32333620333339633020342d313120362d32302031346c2d362034632d3320322d3620322d3720322d313320312d313820322d323320302d31302d332d392d322d31322d356c2d31302d372d392d36632d312d312d352d312d342d326c342d3263362d3320352d312031302d3320342d3220372d332031302d322035203020332032203820322034203120362d322031322d3320342d3120372d3120313720312031392033203239203520333020377a222f3e3c7061746820636c6173733d22632220643d224d3132302031363863302d342031332d352031382d356831336c31312d3263322032203020382d352031332d3720372d313920342d323120342d382d322d31372d372d31362d31307a204d31323220313236633120312031302d382032352d37203820302031342d3120313920312037203320313320392031372031356c332031326331203520312031312d322031396c2d31302032382d37203235632d342031342d31332032302d31362032352d3520382d3720372d392031342d3220332d3320382d312031332033203420332033203920366c31302037633420322037203420313120332033203020332d3220382d3320312d3120362d332031332d3220382032203920372031342037203620302031322d382031302d31302d312d322d3120362d313020352d31322d312d31322d362d32312d36732d313220332d31392032632d362d312d31382d362d31392d31322d312d312d322d3720352d31376c392d313363362d3720382d31312031322d323420352d313620312d313020352d32306c31332d333163322d3720312d31372d332d32372d342d382d362d31332d31322d31372d372d342d31372d31302d33302d382d313520322d32352031332d32342031357a4d3132382033313663322d332031322d322031372d326c39203273332035203720366334203220352d312031302d3120352d31203920302031342031203420312037203220313520376c32382031352d31372039632d313020332d313820332d323520332d31382d312d32392d372d33322d382d392d352d31352d31312d31372d31332d312d312d31332d31342d392d31397a4d3234312031393263302d3320362d362031312d3720362d322031322d312031342d31203720312031322034203136203720372034203131203820313420313173382038203720392d392d362d32332d3131632d382d332d31362d342d32312d352d31322d322d31372d312d31382d337a4d33313620313633732d332d31322d31332d32316c2d342d33632d322d322d372d392d31382d31326c2d31352d31632d3720302d313720362d3137203620322d3220322d352031332d3920362d322031342d332032342031203131203420313320362031392031312031312031312031322032372031312032387a222f3e3c7061746820636c6173733d22632220643d224d33323920313830733420302d31312d346c2d31342d33632d3320302d313120312d313720362d3120302d3720352d36203720312031203620302031352d316c3137203163313120302031372d342031362d367a204d33323120313338732d31382d352d33312d32632d3420312d3920312d323020392d31332031302d31362031332d31372032332d3220392d3220313720322032352033203820302034203130203231203820313320313220313720313220323320312031302d332031332d312032322030203220332031342031302031356831633620312031332d312031342d3220342d3420322d313120332d3131203220302034203820302031352d3220342d3420342d31352031336c2d313320382d31372031632d313220302d313320342d313920332d382d322d31352d392d31352d313620302d3320362d3720342d37733120313620392031386337203120362d332031322d32203620302031332d312032302d3620322d3120362d3420362d3720322d372d322d31302d362d32302d332d3820332d313220312d32342d312d382d362d392d31322d32312d382d31362d31312d31372d31342d32372d312d332d332d323120322d333020332d3620322d392031322d313620372d352031322d382032302d31302031352d332031392d312032352d3120392031203137203620313720367a4d3139392031393363302d332d372d352d31322d342d3620312d3820352d313320392d3420342d313120382d3232203130203320322036203420313120342037203120313820302032372d3520382d342031302d313020392d31347a4d31393020313536632d3120312d322d312d352d33203020302d352d332d31322d342d31332d322d323520372d323820392d3920362d31322031332d3134203132732d312d3920342d313663382d31342032372d31342033302d313520352030203131203020313620342037203420313020313320392031337a4d3331392033323473312031312d33203136632d3220332d3620352d313720392d313520352d323320382d333320372d392d312d31352d342d32322d372d322d312d372d332d372d3520302d312031332035203235203020362d3320382d372031352d3768313063342d3120362d342031302d3720372d362032322d362032322d367a222f3e3c636c6970506174682069643d226d223e203c7061746820643d224d37312039337632316c312032346333203232203520323320392034386c32203133633420313220313320323020313520323320392038203231203330203435203734203920313820313320323620323220333620392038203136203133203237203230203138203132203435203238203738203332613537203537203020303034392d313863382d392031312d31382031362d333720362d323120392d333120362d34302d322d362d352d31302d362d31386c322d313863322d313020362d323620352d343220302d31342d352d32362d372d33336c2d31302d3232632d362d31382d322d32312d382d33322d352d392d382d392d31372d32322d382d31322d392d31382d31342d32352d392d31372d32332d32352d33382d33332d33352d32302d36392d32302d38322d31392d313520312d333620322d35382031362d3320322d33352032342d33372035327a222f3e3c2f636c6970506174683e3c7061746820636c6173733d22632220643d224d33323620323030632d3120312d392d362d32392d31322d32332d372d33322d352d33352d342d3320302d313120332d313820313061333820333820302030302d313020323663302036203220362035203138203120342034203136203520333120312031332d31203133203120323173352031312035203138632d3120322d3120382d352031332d372031302d32312031302d32322031302d313020302d392d352d32382d31322d392d332d32352d31312d32342d313820312d342031302d313220372d31326c38203133633620392031362031372032372031382037203120313920302032342d3720332d372d322d31322d362d333073302d31372d342d3438632d322d31332d342d31392d322d323820312d3520332d31342031312d323120362d352032312d31342034302d313120323820352035312032332035302032357a4d313331203137356331362d31342035312d382036302d33203320322030203120302030203020302d332d392d31382d31332d342d322d31392d322d333120372d3620342d3920362d313120397a4d3132352032313063322d352032302d352033332d332033203020313620302032322031316c31203663312038203320313020332031302d3420312d392d352d31372d38682d3136632d313320302d32372d31302d32362d31367a204d3235372032333663302d352031342d31302032362d31302031392031203336203134203334203137203020322d3320312d313320336c2d31382033632d313320302d32392d372d32392d31337a4d3135312033353563312d3220352032203135203420313120312032312d312032342d3120372d322031302d342031342d3220352032203520372039203773362d362031322d376c382032633131203420323020302032302031203120322d31302031332d33322032312d313020342d313420322d323020322d313120312d32302d322d32332d342d31372d372d32372d32332d32372d32337a222f3e3c7061746820636c6173733d22632220643d224d31353220323035733235203130203337203163332d322d352d392d382d31312d372d332d31302d362d31342d352d313220322d31372031322d31352031357a4d32363520323134632d322d3220362d392031372d313420352d3220392d322031312d322031332030203231203132203231203132203020332d3920342d313020342d3820322d372d332d31352d342d31332d322d323220362d323420347a4d31393120323839632d3320312d3620382d33203133733130203620313420396332203120362034203135203420362d3120362d342031332d366c31342d3463372d322031302d332031302d38732d352d392d352d39203220372d31203132632d3320342d313120322d313920352d313120352d3820362d313820352d3720302d31372d342d32312d382d332d3320312d313320312d31337a4d31383420333531632d3120312031302031312032362031366c313320326333203020313020302031382d3520362d332031322d392031312d3131732d3820312d32312034632d3820322d313720332d323620322d31332d322d32312d392d32312d387a4d32353220313735633120312031302d31302032352d31322031332d3320323620322032382033203720332031322037203133203620312d322d342d392d31312d31342d31342d392d33322d322d33342d312d313420362d32312031372d32312031387a4d31343420313638633120322031342d31322033302d3130203138203220313720313320323620392030203020312d332d342d372d31312d352d31352d31312d33342d342d313120342d32302031302d31382031327a4d3231332032313563312d35203320323720322033386c2d35203138632d3120342d3520352d35203520322d3420342d3620362d313620322d313720312d343020322d34357a222f3e3c7061746820636c6173733d22632220643d224d3131382031353263302d3220382d332031352d3420392d31203133203020313520312035203120372034203720352032203120342034203420386c2d352037732d322d372d372d3130632d342d332d3720312d31362d312d362d312d31342d342d31332d367a204d313433203130336331203120382d332031372d3320323420312032352032382032352033392d3120313120302031382d382032352d3920382d3720332d31382031382d3620372d362031312d31322031382d3520372d32392032332d33352033322d3320352d3420392d342031352d31203132203138203136203232203230203920372031312031322032302031342037203320313420352032312d3120352d3420372d313020352d31322d322d332d31322031322d323220392d372d32203020302d31372d31342d31312d392d31372d362d32302d31372d322d313120372d31382032312d32382031322d382031322d31312031362d313520372d313020362d31332031332d323220392d31312032352d31312032352d333820302d31302d322d31382d332d32352d312d392d372d31342d31312d31392d352d352d31342d392d32322d37732d313420392d31332031317a4d3233302031393963312d3320352d3620392d37203220302031322d332032312030203130203320313220382031372031342037203920322032322035203234203220312d372d372d31362d31332d372d352d362d342d31372d382d392d352d31392d342d31392d31307a4d33303020313634732d332d31302d31342d3138632d332d322d31332d31302d32362d31302d313720302d32372031312d323920392d312d3220372d31342031392d31382031342d34203235203320323820342031382031302032332033332032322033337a4d31363420333332633120342d31322031302d32352031312d3320302d313220302d32312d352d382d342d31322d31302d31342d31342d342d362d362d31392d362d31396c3132203220313520356334203720362037203620372032203220342d31203820302034203020362032203920342031302038203136203720313620397a222f3e3c636c6970506174682069643d226d223e203c7061746820643d224d313934203135632d313820322d323020302d343520342d323920342d333120362d34372031322d3220322d32352031322d33352033352d3420392d352031372d352032322d35203636203234203133362032342031333620323120343920333220343120343820383520362031362031312033342032372035322031302031312031392031362033362032372033352032322035342033352037392033302031352d332032372d31322033312d313520332d332031372d31342032352d333420392d323420322d333720352d37366c362d343263362d343320392d353220342d36372d342d31322d372d31302d31342d33302d362d31342d362d31392d31312d33366c2d31342d3334632d31302d32302d31382d33372d33342d35302d33322d32352d37342d32302d38302d31397a222f3e3c2f636c6970506174683e3c7061746820636c6173733d22632220643d224d3130332032303663322d3220372034203136203520313220312032322d322032322d32732d3320362d39203130632d3120312d313020362d313920322d372d342d31322d31332d31302d31357a204d31303620313634633020342033302d372034332031322038203131203720333620322034392d3320392d31312032302d31342033397631632d342032302d392032392d31302033302d3320332d362031302d36203138763263322038203820313220313020313461333120333120302030303139203763332030203920302031372d3320352d312031362d362031362d382d312d342d33362031372d35322d332d31302d313320352d32372031342d363620332d31312031362d33332031372d353320312d31392d322d32392d31352d33382d31372d31322d34312d352d34312d317a4d323631203234316c2d382d34632d362d342d31312d31352d32382d31312d3520312d313120372d3131203920302031203320332031322035203820322031322d332032312032203620332031342d312031342d317a4d32373720323035632d3120322d382d392d32312d31332d31312d322d323220302d323820326c2d31332033632d312d3120382d392032302d313220322d312031362d34203239203420313020362031342031352031332031367a4d31393520333730633120322d372031312d31392031332d3920332d313720302d32332d322d372d322d31362d352d31382d313220302d3220302d3620322d37733420342031312036633520322037203020313420316c39203363313220352032332d332032342d327a222f3e3c636c6970506174682069643d226d223e203c7061746820643d224d31383820323163332d312034332031203630203420333320362037302034372037392036352032203520313720363020313720383120302031352d3420332d3420343420302032342d362034302d31362036312d392032362d372033342d3138203630613131332031313320302030312d3530203633632d313220372d32332031342d34302031332d31382d312d33332d31372d33372d32342d32312d33372d34312d36352d34352d37332d332d382d32312d33332d32352d36372d312d313220352d333720342d35362d312d32392d372d33392d342d353020382d323620362d31362031312d343220342d323020382d35322032362d36342031352d31322033322d31342034322d31357a222f3e3c2f636c6970506174683e3c7061746820636c6173733d22632220643d224d3138322032323363302d332d342d352d372d362d352d312d3820312d313420332d313220342d313920322d3139203473382036203137203663313120312032332d332032332d377a4d3233352032323763302d3220392d352031342d367331312d322031382d31633720322031362037203135203130203020332d3920332d313020342d3720302d31302d322d31382d342d31322d332d31382d312d31392d337a204d32343120333030633020322d3320332d3420332d313320362d313020382d32312031322d3720332d313520352d323520342d3420302d31322d312d31382d372d362d352d31302d31342d31302d31342031332d392031362d31352031362d31356c332d3663342d313020322d313120352d31396c352d3131762d3263362d313620332d333120332d33312d312d332d332d31342d31302d31396c2d322d3261333920333920302030302d31352d35632d322d312d392d322d313620302d3820312d313120342d313320332d312d3120312d3820362d313220382d372032302d342032372d32203520312031322032203139203861343020343020302030313134203331763139632d322031322d322031382d362032366c2d35203130632d31322032312d31342032352d31322032392031203620372039203820313020313120342032332d342032342d3520392d3620392d31332031352d313420362030203132203520313220397a204d3137342033333863312d3220332d312032372d3268313463342032203620342039203373322d3520352d3763342d3320372d312031342031203132203220313720302031382031203120342d31352031342d33322031392d3820332d313620352d323520342d31372d332d33312d31352d33302d31397a222f3e3c7061746820636c6173733d22632220643d224d33313320313238633020312d31342d362d33312d3161343620343620302030302d33302035326330203320342039203130203230203130203138203131203137203135203236203920313820372032302031342033302032203320313020372031322031366c31203163322031302d382032312d313020323361363020363020302030312d3335203138632d313220332d323720362d33362d322d372d362d392d31362d372d313720322d3220362032203133203620313620362033322032203338203120392d332031382d352032332d313420302d3120352d313020312d31376c2d31392d3339632d352d31302d33312d34332d33322d36312d312d352d322d313220352d323520312d3320392d32302032382d32352032312d36203430203620343020387a204d3332382031373263312d332d352d392d31322d31302d332d312d382d332d323020312d3820332d313320382d31352031312d3520352d392031302d372031322032203120382d382031392d313020372d31203820322031382031203320302031362d312031372d357a4d31393820323031632d312d362d31312d31312d31382d392d3720312d3620372d31362031342d3920362d313420342d32302031312d3220332d3620392d342031312032203320382d312032362d362031332d332031372d332032332d3820332d322031302d3720392d31337a4d31393720313536632d3120322d31322d362d33312d352d313420312d323520372d323720382d313120362d31362031332d31382031312d322d3120302d313220372d313820352d3520392d332032342d372031332d352031332d372031392d3720313520302032382031352032362031387a4d3332322033313573332031382d33203238632d3520392d31322031332d31362031352d3420332d313520392d333120392d313020302d31302d342d33312d386c2d31362d3463302d332031312d342032372d31342031302d362031332d372032302d372036203020382033203132203120342d3120342d3520392d396c31322d366331332d322031342d372031372d357a222f3e3c636c6970506174682069643d226d223e203c7061746820643d224d313734203335632d3820382d372031332d32322033302d31312031332d31352031342d31392032322d362031332d322031382d382033336c2d3135203234632d32302032392d32322033332d32342033396c2d35203239632d322031372d312032302d322034316c2d352034352d32203335633120313320322033392032312035382038203920313720313320323220313520313520362032382036203336203620313820302033302d342034342d392031362d352032352d382033352d31367331302d31322032352d33336331332d31362032302d32362033312d33362031382d31372032352d31352033392d333220392d31302031342d32302031372d323520362d313420382d32332031342d34332031322d34332031332d33382031352d343820332d33302d392d35342d31372d36392d352d31312d32302d33392d35312d35392d392d362d33352d32332d37312d32332d313620302d343120302d35382031367a222f3e3c2f636c6970506174683e3c636c6970506174682069643d226d223e203c7061746820643d224d323430203233633137203320323520352033352031312031332038203139203137203239203333613139372031393720302030313335203130366332203231203220333120302034302d3320392d382031362d31302033316c2d32203134633020342d332031382d31302033312d3320372d392031332d32322032372d31332031322d31372031352d32312032342d3320362d3220392d362031352d3420372d382031322d31342031372d392031302d313120392d32322031392d3920392d382031302d31342031342d3820362d313720392d32352031302d313420312d32352d372d34352d32332d31302d382d34302d33322d34332d35376c2d312d31312d332d3239632d332d32322d382d32332d392d333720302d313320332d313320372d333820342d323020312d323120352d353320332d323420342d323020352d333420312d32322d312d333220342d34386c382d313863322d3320382d31342032302d323520362d352032302d31372034312d32322031382d352033332d3220353820337a222f3e3c2f636c6970506174683e3c636c6970506174682069643d226d223e203c7061746820643d224d313839203439632d323320372d33352032342d34302033322d31322031362d31352033312d31372034312d3620323620312032392d322037332d312031332d322032312d31203335733420323620352033336c313420343220313120323820362031326331203320352031312031382032376c313320313563313420392032392036203331203520392d322031352d372032302d31312031302d382031352d31372032342d333520362d313020392d31362031312d323320362d313720322d323020382d333520362d31342031312d31332031342d323620322d3820312d313120342d323120332d3820352d3920352d313520302d372d322d382d342d31372d322d313120312d313320302d32372d322d31312d342d31322d332d313720322d3920382d31312031312d313920342d313020302d32312d322d32372d322d342d332d362d32322d33306c2d31362d3138632d342d332d31302d392d31392d31342d332d322d31332d372d32372d31302d382d312d32342d342d343220327a222f3e3c2f636c6970506174683e3c636c6970506174682069643d226d223e203c7061746820643d224d313335203437632d362031302d31342032332d32322035322d322031312d342031392d352033382d312031312d362032302d31302033312d392032392d392032372d31312033392d312038203120333620342035356c3620323963342032352033203238203720343161323136203231362030203030323720353863313020313520313420323120323820323520362032203135203720323620362031302d312032352d332034322d313120322d322031312d362032342d313720392d382032382d32352034332d35342031342d323620382d33312032342d35352031312d31382031362d31382031392d333120362d313820322d313620362d343120342d313620312d333020312d343320312d31332d322d31352d322d333120302d32392d322d33352d352d34372d392d33342d35312d35392d38312d36382d34322d31342d3130312d372d3132312032347a222f3e3c2f636c6970506174683e3c636c6970506174682069643d226d223e203c7061746820643d224d31343720343363362d362031342d31342032372d31382031352d362033302d342034392d31613132392031323920302030313933203532633820313320313520333520313520353720302031372d362032342d37203532763235632d3120362d322031362d31352035346c2d3130203239632d352032302d31312032372d31342033392d372032332d31342033362d32312034332d32322032342d34372033322d35332033342d313220342d32332d312d33322d352d31302d352d392d362d32332d32332d31322d31352d31332d31322d32302d32332d31302d31332d31312d32322d31382d34392d31302d34302d31362d33372d31382d35392d322d323520382d323420362d353520302d32302d312d323420312d343420312d313020332d333420372d353320322d382031352d33362033332d35357a222f3e3c2f636c6970506174683e3c636c6970506174682069643d226d223e203c7061746820643d224d393220373563372d31342031352d32312031372d3233613137392031373920302030313130342d323263313120312032382033203439203133203820342031392039203331203231203520332031352031342032342033316c3132203333203720313920313120333063352031372038203236203820333820302031342d342031362d31302034362d322031342d342032312d342032392d3220323620312033302d312035342d3120362d342031302d382031392d382031372d31332032362d32312033332d3920372d313820392d32372031312d3720312d333820382d36322d382d31302d362d31302d31312d32362d31396c2d31362d38732d31332d362d32342d3135632d362d342d31382d31362d33392d37316c2d31352d3435632d31312d32392d31352d33362d31372d3532762d343263312d343720302d353820372d37327a222f3e3c2f636c6970506174683e3c636c6970506174682069643d226d223e203c7061746820643d224d323233203137632d313120302d343220322d37322032332d33362032352d36332037332d35372031313120312038203520323220322034322d332031352d372031382d392033312d3320313320302032372036203533203520323020392033392031392036326c3132203234633820323120372032352031332033342032203320313220313720333020323120313520332032382d322034322d386c31392d31316134343320343433203020303036372d383163392d31362031362d32372032332d34336c31352d34386331312d33332031362d35302031372d363220332d323020352d33392d322d36312d31312d33372d34312d35362d35322d36332d392d372d33352d32342d37332d32347a222f3e3c2f636c6970506174683e7b2274726169745f74797065223a2022436572616d6963205368656c6c222c202276616c7565223aa2646970667358221220424814d2bf997c431a1fd2d11ab514e97599f3f6554c66c6012fd94554322cfc64736f6c63430008090033",
  "linkReferences": {},
  "deployedLinkReferences": {}
}