{
  "_format": "hh-sol-artifact-1",
  "contractName": "uint8Tester",
  "sourceName": "contracts/uint8Tester.sol",
  "abi": [
    {
      "inputs": [
        {
          "internalType": "bytes",
          "name": "_bytes",
          "type": "bytes"
        },
        {
          "internalType": "uint256",
          "name": "nr_",
          "type": "uint256"
        }
      ],
      "name": "divide",
      "outputs": [
        {
          "internalType": "uint256",
          "name": "",
          "type": "uint256"
        }
      ],
      "stateMutability": "pure",
      "type": "function"
    },
    {
      "inputs": [
        {
          "internalType": "bytes",
          "name": "_bytes",
          "type": "bytes"
        },
        {
          "internalType": "uint256",
          "name": "_start",
          "type": "uint256"
        }
      ],
      "name": "toUint8",
      "outputs": [
        {
          "internalType": "uint8",
          "name": "",
          "type": "uint8"
        }
      ],
      "stateMutability": "pure",
      "type": "function"
    }
  ],
  "bytecode": "0x608060405234801561001057600080fd5b506105c5806100206000396000f3fe608060405234801561001057600080fd5b50600436106100365760003560e01c8063481377091461003b578063f1ee935b1461006b575b600080fd5b61005560048036038101906100509190610304565b61009b565b604051610062919061037c565b60405180910390f35b61008560048036038101906100809190610304565b610151565b60405161009291906103a6565b60405180910390f35b6000816001836100ab91906103f0565b10156100ec576040517f08c379a00000000000000000000000000000000000000000000000000000000081526004016100e3906104a3565b60405180910390fd5b6001826100f991906103f0565b8351101561013c576040517f08c379a00000000000000000000000000000000000000000000000000000000081526004016101339061050f565b60405180910390fd5b60008260018501015190508091505092915050565b60008161015f84600061009b565b60ff1661016c919061055e565b905092915050565b6000604051905090565b600080fd5b600080fd5b600080fd5b600080fd5b6000601f19601f8301169050919050565b7f4e487b7100000000000000000000000000000000000000000000000000000000600052604160045260246000fd5b6101db82610192565b810181811067ffffffffffffffff821117156101fa576101f96101a3565b5b80604052505050565b600061020d610174565b905061021982826101d2565b919050565b600067ffffffffffffffff821115610239576102386101a3565b5b61024282610192565b9050602081019050919050565b82818337600083830152505050565b600061027161026c8461021e565b610203565b90508281526020810184848401111561028d5761028c61018d565b5b61029884828561024f565b509392505050565b600082601f8301126102b5576102b4610188565b5b81356102c584826020860161025e565b91505092915050565b6000819050919050565b6102e1816102ce565b81146102ec57600080fd5b50565b6000813590506102fe816102d8565b92915050565b6000806040838503121561031b5761031a61017e565b5b600083013567ffffffffffffffff81111561033957610338610183565b5b610345858286016102a0565b9250506020610356858286016102ef565b9150509250929050565b600060ff82169050919050565b61037681610360565b82525050565b6000602082019050610391600083018461036d565b92915050565b6103a0816102ce565b82525050565b60006020820190506103bb6000830184610397565b92915050565b7f4e487b7100000000000000000000000000000000000000000000000000000000600052601160045260246000fd5b60006103fb826102ce565b9150610406836102ce565b9250827fffffffffffffffffffffffffffffffffffffffffffffffffffffffffffffffff0382111561043b5761043a6103c1565b5b828201905092915050565b600082825260208201905092915050565b7f746f55696e74385f6f766572666c6f7700000000000000000000000000000000600082015250565b600061048d601083610446565b915061049882610457565b602082019050919050565b600060208201905081810360008301526104bc81610480565b9050919050565b7f746f55696e74385f6f75744f66426f756e647300000000000000000000000000600082015250565b60006104f9601383610446565b9150610504826104c3565b602082019050919050565b60006020820190508181036000830152610528816104ec565b9050919050565b7f4e487b7100000000000000000000000000000000000000000000000000000000600052601260045260246000fd5b6000610569826102ce565b9150610574836102ce565b9250826105845761058361052f565b5b82820490509291505056fea2646970667358221220cfa8f9bda91f57139d4d754a69d893505c378d08aff7ed8b584e60ce80497d5d64736f6c634300080c0033",
  "linkReferences": {},
  "deployedLinkReferences": {}
}