{
  "_format": "hh-sol-artifact-1",
  "contractName": "Definitions",
  "sourceName": "contracts/Definitions.sol",
  "abi": [
    {
      "inputs": [
        {
          "internalType": "bytes",
          "name": "hash",
          "type": "bytes"
        }
      ],
      "name": "defs",
      "outputs": [
        {
          "internalType": "string",
          "name": "",
          "type": "string"
        }
      ],
      "stateMutability": "pure",
      "type": "function"
    }
  ],
  "bytecode": "0x608060405234801561001057600080fd5b50613f23806100206000396000f3fe608060405234801561001057600080fd5b506004361061002b5760003560e01c8063d95914e814610030575b600080fd5b61004a600480360381019061004591906134e8565b610060565b60405161005791906135b9565b60405180910390f35b606061006a6100a3565b610072610ba0565b61007b84611360565b60405160200161008d93929190613617565b6040516020818303038152906040529050919050565b60606107486040518060400160405280600481526020017f6d61736b000000000000000000000000000000000000000000000000000000008152506101526040518060400160405280600281526020017f69640000000000000000000000000000000000000000000000000000000000008152506040518060400160405280600a81526020017f6375746f75744d61736b00000000000000000000000000000000000000000000815250611d3e565b61015a611d6a565b61043e6101d16040518060400160405280600181526020017f78000000000000000000000000000000000000000000000000000000000000008152506040518060400160405280600381526020017f3131380000000000000000000000000000000000000000000000000000000000815250611d3e565b6102456040518060400160405280600181526020017f79000000000000000000000000000000000000000000000000000000000000008152506040518060400160405280600281526020017f3535000000000000000000000000000000000000000000000000000000000000815250611d3e565b6102b96040518060400160405280600581526020017f77696474680000000000000000000000000000000000000000000000000000008152506040518060400160405280600281526020017f3634000000000000000000000000000000000000000000000000000000000000815250611d3e565b61032d6040518060400160405280600681526020017f68656967687400000000000000000000000000000000000000000000000000008152506040518060400160405280600381526020017f3130380000000000000000000000000000000000000000000000000000000000815250611d3e565b6103a16040518060400160405280600281526020017f72790000000000000000000000000000000000000000000000000000000000008152506040518060400160405280600281526020017f3330000000000000000000000000000000000000000000000000000000000000815250611d3e565b6104156040518060400160405280600281526020017f72780000000000000000000000000000000000000000000000000000000000008152506040518060400160405280600281526020017f3330000000000000000000000000000000000000000000000000000000000000815250611d3e565b60405160200161042a96959493929190613648565b604051602081830303815290604052611ef6565b6107226104b56040518060400160405280600181526020017f78000000000000000000000000000000000000000000000000000000000000008152506040518060400160405280600381526020017f3131380000000000000000000000000000000000000000000000000000000000815250611d3e565b6105296040518060400160405280600181526020017f79000000000000000000000000000000000000000000000000000000000000008152506040518060400160405280600381526020017f3131300000000000000000000000000000000000000000000000000000000000815250611d3e565b61059d6040518060400160405280600581526020017f77696474680000000000000000000000000000000000000000000000000000008152506040518060400160405280600281526020017f3634000000000000000000000000000000000000000000000000000000000000815250611d3e565b6106116040518060400160405280600681526020017f68656967687400000000000000000000000000000000000000000000000000008152506040518060400160405280600381526020017f3134300000000000000000000000000000000000000000000000000000000000815250611d3e565b6106856040518060400160405280600281526020017f72790000000000000000000000000000000000000000000000000000000000008152506040518060400160405280600281526020017f3330000000000000000000000000000000000000000000000000000000000000815250611d3e565b6106f96040518060400160405280600281526020017f72780000000000000000000000000000000000000000000000000000000000008152506040518060400160405280600281526020017f3330000000000000000000000000000000000000000000000000000000000000815250611d3e565b60405160200161070e96959493929190613648565b604051602081830303815290604052611ef6565b60405160200161073493929190613617565b604051602081830303815290604052611f3e565b610b7b6040518060400160405280600481526020017f6d61736b000000000000000000000000000000000000000000000000000000008152506107f56040518060400160405280600281526020017f69640000000000000000000000000000000000000000000000000000000000008152506040518060400160405280601181526020017f746f705265666c656374696f6e4d61736b000000000000000000000000000000815250611d3e565b6107fd611d6a565b610b566108746040518060400160405280600181526020017f78000000000000000000000000000000000000000000000000000000000000008152506040518060400160405280600381526020017f3132320000000000000000000000000000000000000000000000000000000000815250611d3e565b6108e86040518060400160405280600181526020017f79000000000000000000000000000000000000000000000000000000000000008152506040518060400160405280600281526020017f3535000000000000000000000000000000000000000000000000000000000000815250611d3e565b61095c6040518060400160405280600581526020017f77696474680000000000000000000000000000000000000000000000000000008152506040518060400160405280600281526020017f3536000000000000000000000000000000000000000000000000000000000000815250611d3e565b6109d06040518060400160405280600681526020017f68656967687400000000000000000000000000000000000000000000000000008152506040518060400160405280600381526020017f3139300000000000000000000000000000000000000000000000000000000000815250611d3e565b610a446040518060400160405280600281526020017f72790000000000000000000000000000000000000000000000000000000000008152506040518060400160405280600281526020017f3330000000000000000000000000000000000000000000000000000000000000815250611d3e565b610ab86040518060400160405280600281526020017f72780000000000000000000000000000000000000000000000000000000000008152506040518060400160405280600281526020017f3330000000000000000000000000000000000000000000000000000000000000815250611d3e565b610b2c6040518060400160405280600481526020017f66696c6c000000000000000000000000000000000000000000000000000000008152506040518060400160405280600581526020017f626c61636b000000000000000000000000000000000000000000000000000000815250611d3e565b604051602001610b4297969594939291906136a0565b604051602081830303815290604052611ef6565b604051602001610b67929190613705565b604051602081830303815290604052611f3e565b604051602001610b8c929190613705565b604051602081830303815290604052905090565b6060610d646040518060400160405280600881526020017f636c697050617468000000000000000000000000000000000000000000000000815250610c4f6040518060400160405280600281526020017f69640000000000000000000000000000000000000000000000000000000000008152506040518060400160405280600a81526020017f636c6970426f74746f6d00000000000000000000000000000000000000000000815250611d3e565b610d5f610cc66040518060400160405280600681526020017f68656967687400000000000000000000000000000000000000000000000000008152506040518060400160405280600381526020017f3135300000000000000000000000000000000000000000000000000000000000815250611d3e565b610d3a6040518060400160405280600581526020017f77696474680000000000000000000000000000000000000000000000000000008152506040518060400160405280600381526020017f3330300000000000000000000000000000000000000000000000000000000000815250611d3e565b604051602001610d4b929190613705565b604051602081830303815290604052611ef6565b611f3e565b61133b6040518060400160405280600881526020017f636c697050617468000000000000000000000000000000000000000000000000815250610e116040518060400160405280600281526020017f69640000000000000000000000000000000000000000000000000000000000008152506040518060400160405280600a81526020017f636c6970536861646f7700000000000000000000000000000000000000000000815250611d3e565b610f96610e886040518060400160405280600181526020017f79000000000000000000000000000000000000000000000000000000000000008152506040518060400160405280600381526020017f3232300000000000000000000000000000000000000000000000000000000000815250611d3e565b610efc6040518060400160405280600681526020017f68656967687400000000000000000000000000000000000000000000000000008152506040518060400160405280600381526020017f3330300000000000000000000000000000000000000000000000000000000000815250611d3e565b610f706040518060400160405280600581526020017f77696474680000000000000000000000000000000000000000000000000000008152506040518060400160405280600381526020017f3330300000000000000000000000000000000000000000000000000000000000815250611d3e565b604051602001610f8293929190613617565b604051602081830303815290604052611ef6565b61111b61100d6040518060400160405280600181526020017f79000000000000000000000000000000000000000000000000000000000000008152506040518060400160405280600381526020017f3138300000000000000000000000000000000000000000000000000000000000815250611d3e565b6110816040518060400160405280600681526020017f68656967687400000000000000000000000000000000000000000000000000008152506040518060400160405280600381526020017f3330300000000000000000000000000000000000000000000000000000000000815250611d3e565b6110f56040518060400160405280600581526020017f77696474680000000000000000000000000000000000000000000000000000008152506040518060400160405280600381526020017f3131350000000000000000000000000000000000000000000000000000000000815250611d3e565b60405160200161110793929190613617565b604051602081830303815290604052611ef6565b6113156111926040518060400160405280600181526020017f79000000000000000000000000000000000000000000000000000000000000008152506040518060400160405280600381526020017f3138300000000000000000000000000000000000000000000000000000000000815250611d3e565b6112066040518060400160405280600181526020017f78000000000000000000000000000000000000000000000000000000000000008152506040518060400160405280600381526020017f3138350000000000000000000000000000000000000000000000000000000000815250611d3e565b61127a6040518060400160405280600681526020017f68656967687400000000000000000000000000000000000000000000000000008152506040518060400160405280600381526020017f3330300000000000000000000000000000000000000000000000000000000000815250611d3e565b6112ee6040518060400160405280600581526020017f77696474680000000000000000000000000000000000000000000000000000008152506040518060400160405280600381526020017f3131350000000000000000000000000000000000000000000000000000000000815250611d3e565b6040516020016113019493929190613729565b604051602081830303815290604052611ef6565b60405160200161132793929190613617565b604051602081830303815290604052611f3e565b60405160200161134c929190613705565b604051602081830303815290604052905090565b606061136b82611f6f565b6119396113e26040518060400160405280600281526020017f69640000000000000000000000000000000000000000000000000000000000008152506040518060400160405280601081526020017f64726f70536861646f7746696c74657200000000000000000000000000000000815250611d3e565b6114566040518060400160405280600681526020017f68656967687400000000000000000000000000000000000000000000000000008152506040518060400160405280600381526020017f3330300000000000000000000000000000000000000000000000000000000000815250611d3e565b6114ca6040518060400160405280600581526020017f77696474680000000000000000000000000000000000000000000000000000008152506040518060400160405280600381526020017f3330300000000000000000000000000000000000000000000000000000000000815250611d3e565b61153e6040518060400160405280600181526020017f79000000000000000000000000000000000000000000000000000000000000008152506040518060400160405280600481526020017f2d32352500000000000000000000000000000000000000000000000000000000815250611d3e565b6115b26040518060400160405280600181526020017f78000000000000000000000000000000000000000000000000000000000000008152506040518060400160405280600481526020017f2d35302500000000000000000000000000000000000000000000000000000000815250611d3e565b6040516020016115c6959493929190613767565b60405160208183030381529060405261171b6040518060400160405280600e81526020017f6665476175737369616e426c75720000000000000000000000000000000000008152506116826040518060400160405280600281526020017f696e0000000000000000000000000000000000000000000000000000000000008152506040518060400160405280600b81526020017f536f75726365416c706861000000000000000000000000000000000000000000815250611d3e565b6116f66040518060400160405280600c81526020017f737464446576696174696f6e00000000000000000000000000000000000000008152506040518060400160405280600181526020017f3600000000000000000000000000000000000000000000000000000000000000815250611d3e565b604051602001611707929190613705565b604051602081830303815290604052612595565b6117cd6040518060400160405280600881526020017f66654f66667365740000000000000000000000000000000000000000000000008152506117c86040518060400160405280600281526020017f64790000000000000000000000000000000000000000000000000000000000008152506040518060400160405280600181526020017f3800000000000000000000000000000000000000000000000000000000000000815250611d3e565b612595565b6119136040518060400160405280600b81526020017f6665436f6d706f7369746500000000000000000000000000000000000000000081525061187a6040518060400160405280600881526020017f6f70657261746f720000000000000000000000000000000000000000000000008152506040518060400160405280600381526020017f6f75740000000000000000000000000000000000000000000000000000000000815250611d3e565b6118ee6040518060400160405280600381526020017f696e3200000000000000000000000000000000000000000000000000000000008152506040518060400160405280600b81526020017f536f75726365416c706861000000000000000000000000000000000000000000815250611d3e565b6040516020016118ff929190613705565b604051602081830303815290604052612595565b60405160200161192593929190613617565b6040516020818303038152906040526125c1565b6119428461260b565b611d156119b96040518060400160405280600281526020017f69640000000000000000000000000000000000000000000000000000000000008152506040518060400160405280601181526020017f736f6c696454657874424746696c746572000000000000000000000000000000815250611d3e565b6040516020016119c991906137b2565b604051602081830303815290604052611b1e6040518060400160405280600781526020017f6665466c6f6f6400000000000000000000000000000000000000000000000000815250611a856040518060400160405280600b81526020017f666c6f6f642d636f6c6f720000000000000000000000000000000000000000008152506040518060400160405280600581526020017f7768697465000000000000000000000000000000000000000000000000000000815250611d3e565b611af96040518060400160405280600681526020017f726573756c7400000000000000000000000000000000000000000000000000008152506040518060400160405280600281526020017f6267000000000000000000000000000000000000000000000000000000000000815250611d3e565b604051602001611b0a929190613705565b604051602081830303815290604052612595565b611cf06040518060400160405280600781526020017f66654d657267650000000000000000000000000000000000000000000000000081525060405180602001604052806000815250611c196040518060400160405280600b81526020017f66654d657267654e6f6465000000000000000000000000000000000000000000815250611c146040518060400160405280600281526020017f696e0000000000000000000000000000000000000000000000000000000000008152506040518060400160405280600281526020017f6267000000000000000000000000000000000000000000000000000000000000815250611d3e565b612595565b611ccb6040518060400160405280600b81526020017f66654d657267654e6f6465000000000000000000000000000000000000000000815250611cc66040518060400160405280600281526020017f696e0000000000000000000000000000000000000000000000000000000000008152506040518060400160405280600d81526020017f536f757263654772617068696300000000000000000000000000000000000000815250611d3e565b612595565b604051602001611cdc929190613705565b604051602081830303815290604052611f3e565b604051602001611d01929190613705565b6040516020818303038152906040526125c1565b604051602001611d289493929190613729565b6040516020818303038152906040529050919050565b60608282604051602001611d5392919061383b565b604051602081830303815290604052905092915050565b6060611ef1611de36040518060400160405280600581526020017f77696474680000000000000000000000000000000000000000000000000000008152506040518060400160405280600481526020017f3130302500000000000000000000000000000000000000000000000000000000815250611d3e565b611e576040518060400160405280600681526020017f68656967687400000000000000000000000000000000000000000000000000008152506040518060400160405280600481526020017f3130302500000000000000000000000000000000000000000000000000000000815250611d3e565b611ecb6040518060400160405280600481526020017f66696c6c000000000000000000000000000000000000000000000000000000008152506040518060400160405280600581526020017f7768697465000000000000000000000000000000000000000000000000000000815250611d3e565b604051602001611edd93929190613617565b604051602081830303815290604052611ef6565b905090565b6060611f376040518060400160405280600481526020017f726563740000000000000000000000000000000000000000000000000000000081525083612595565b9050919050565b606083838386604051602001611f579493929190613924565b60405160208183030381529060405290509392505050565b60606000611f7c83612bed565b90506000611f8984612c04565b90506000611f9685612c33565b905061258b61200f6040518060400160405280600281526020017f69640000000000000000000000000000000000000000000000000000000000008152506040518060400160405280600a81526020017f73616e6446696c74657200000000000000000000000000000000000000000000815250611d3e565b6120836040518060400160405280600681526020017f68656967687400000000000000000000000000000000000000000000000000008152506040518060400160405280600481526020017f3830302500000000000000000000000000000000000000000000000000000000815250611d3e565b6120f76040518060400160405280600181526020017f79000000000000000000000000000000000000000000000000000000000000008152506040518060400160405280600581526020017f2d32353025000000000000000000000000000000000000000000000000000000815250611d3e565b60405160200161210993929190613617565b6040516020818303038152906040526122ee6040518060400160405280600c81526020017f666554757262756c656e636500000000000000000000000000000000000000008152506121c56040518060400160405280600d81526020017f626173654672657175656e6379000000000000000000000000000000000000008152506040518060400160405280600481526020017f302e303100000000000000000000000000000000000000000000000000000000815250611d3e565b61220c6040518060400160405280600a81526020017f6e756d4f6374617665730000000000000000000000000000000000000000000081525061220788612c62565b611d3e565b6122536040518060400160405280600481526020017f736565640000000000000000000000000000000000000000000000000000000081525061224e8b612c62565b611d3e565b6122c76040518060400160405280600681526020017f726573756c7400000000000000000000000000000000000000000000000000008152506040518060400160405280600581526020017f7475726273000000000000000000000000000000000000000000000000000000815250611d3e565b6040516020016122da9493929190613729565b604051602081830303815290604052612595565b6125666040518060400160405280601181526020017f6665446973706c6163656d656e744d617000000000000000000000000000000081525061239b6040518060400160405280600381526020017f696e3200000000000000000000000000000000000000000000000000000000008152506040518060400160405280600581526020017f7475726273000000000000000000000000000000000000000000000000000000815250611d3e565b61240f6040518060400160405280600281526020017f696e0000000000000000000000000000000000000000000000000000000000008152506040518060400160405280600d81526020017f536f757263654772617068696300000000000000000000000000000000000000815250611d3e565b6124566040518060400160405280600581526020017f7363616c650000000000000000000000000000000000000000000000000000008152506124518b612c62565b611d3e565b6124ca6040518060400160405280601081526020017f784368616e6e656c53656c6563746f72000000000000000000000000000000008152506040518060400160405280600181526020017f5200000000000000000000000000000000000000000000000000000000000000815250611d3e565b61253e6040518060400160405280601081526020017f794368616e6e656c53656c6563746f72000000000000000000000000000000008152506040518060400160405280600181526020017f4700000000000000000000000000000000000000000000000000000000000000815250611d3e565b604051602001612552959493929190613767565b604051602081830303815290604052612595565b604051602001612577929190613705565b6040516020818303038152906040526125c1565b9350505050919050565b606082826040516020016125aa9291906139d3565b604051602081830303815290604052905092915050565b60606126036040518060400160405280600681526020017f66696c74657200000000000000000000000000000000000000000000000000008152508484611f3e565b905092915050565b60608060608061261c856000612deb565b9250612629856001612deb565b9150612636856002612deb565b9050600061264386612e96565b9050600061265087612ead565b9050612be16126c96040518060400160405280600281526020017f69640000000000000000000000000000000000000000000000000000000000008152506040518060400160405280600e81526020017f66696e6553616e6446696c746572000000000000000000000000000000000000815250611d3e565b6126d38484612edc565b612bbc6040518060400160405280601381526020017f6665436f6d706f6e656e745472616e73666572000000000000000000000000008152506040518060200160405280600081525061282d6040518060400160405280600781526020017f666546756e6352000000000000000000000000000000000000000000000000008152506127c96040518060400160405280600481526020017f74797065000000000000000000000000000000000000000000000000000000008152506040518060400160405280600581526020017f67616d6d61000000000000000000000000000000000000000000000000000000815250611d3e565b6128086040518060400160405280600681526020017f6f666673657400000000000000000000000000000000000000000000000000008152508f611d3e565b604051602001612819929190613705565b604051602081830303815290604052612595565b61293e6040518060400160405280600781526020017f666546756e6347000000000000000000000000000000000000000000000000008152506128da6040518060400160405280600481526020017f74797065000000000000000000000000000000000000000000000000000000008152506040518060400160405280600581526020017f67616d6d61000000000000000000000000000000000000000000000000000000815250611d3e565b6129196040518060400160405280600681526020017f6f666673657400000000000000000000000000000000000000000000000000008152508f611d3e565b60405160200161292a929190613705565b604051602081830303815290604052612595565b612a4f6040518060400160405280600781526020017f666546756e6342000000000000000000000000000000000000000000000000008152506129eb6040518060400160405280600481526020017f74797065000000000000000000000000000000000000000000000000000000008152506040518060400160405280600581526020017f67616d6d61000000000000000000000000000000000000000000000000000000815250611d3e565b612a2a6040518060400160405280600681526020017f6f666673657400000000000000000000000000000000000000000000000000008152508f611d3e565b604051602001612a3b929190613705565b604051602081830303815290604052612595565b612b956040518060400160405280600781526020017f666546756e634100000000000000000000000000000000000000000000000000815250612afc6040518060400160405280600481526020017f74797065000000000000000000000000000000000000000000000000000000008152506040518060400160405280600681526020017f6c696e6561720000000000000000000000000000000000000000000000000000815250611d3e565b612b706040518060400160405280600981526020017f696e7465726365707400000000000000000000000000000000000000000000008152506040518060400160405280600181526020017f3100000000000000000000000000000000000000000000000000000000000000815250611d3e565b604051602001612b81929190613705565b604051602081830303815290604052612595565b604051602001612ba89493929190613729565b604051602081830303815290604052611f3e565b604051602001612bcd929190613705565b6040516020818303038152906040526125c1565b95505050505050919050565b6000612bfa8260046130bc565b60ff169050919050565b60006008612c138360056130bc565b60ff16612c209190613a8c565b6001612c2c9190613abd565b9050919050565b60006040612c428360066130bc565b60ff16612c4f9190613a8c565b6001612c5b9190613abd565b9050919050565b60606000821415612caa576040518060400160405280600181526020017f30000000000000000000000000000000000000000000000000000000000000008152509050612de6565b600082905060005b60008214612cdc578080612cc590613b13565b915050600a82612cd59190613a8c565b9150612cb2565b60008167ffffffffffffffff811115612cf857612cf76133bd565b5b6040519080825280601f01601f191660200182016040528015612d2a5781602001600182028036833780820191505090505b50905060008290505b60008614612dde57600181612d489190613b5c565b90506000600a8088612d5a9190613a8c565b612d649190613b90565b87612d6f9190613b5c565b6030612d7b9190613bf7565b905060008160f81b905080848481518110612d9957612d98613c2e565b5b60200101907effffffffffffffffffffffffffffffffffffffffffffffffffffffffffffff1916908160001a905350600a88612dd59190613a8c565b97505050612d33565b819450505050505b919050565b60606000612df98484613172565b90506000612e0785856131f8565b905060006040518060200160405280600081525090506001831415612e5f576040518060400160405280600181526020017f2d0000000000000000000000000000000000000000000000000000000000000081525090505b80612e6b8360016132a5565b604051602001612e7c929190613705565b604051602081830303815290604052935050505092915050565b6000612ea38260076130bc565b60ff169050919050565b60006040612ebc8360086130bc565b60ff16612ec99190613a8c565b6001612ed59190613abd565b9050919050565b60606130b46040518060400160405280600c81526020017f666554757262756c656e63650000000000000000000000000000000000000000815250612f8b6040518060400160405280600d81526020017f626173654672657175656e6379000000000000000000000000000000000000008152506040518060400160405280600481526020017f302e303100000000000000000000000000000000000000000000000000000000815250611d3e565b612fd26040518060400160405280600a81526020017f6e756d4f63746176657300000000000000000000000000000000000000000000815250612fcd87612c62565b611d3e565b6130196040518060400160405280600481526020017f736565640000000000000000000000000000000000000000000000000000000081525061301489612c62565b611d3e565b61308d6040518060400160405280600681526020017f726573756c7400000000000000000000000000000000000000000000000000008152506040518060400160405280600581526020017f7475726273000000000000000000000000000000000000000000000000000000815250611d3e565b6040516020016130a09493929190613729565b604051602081830303815290604052612595565b905092915050565b6000816001836130cc9190613abd565b101561310d576040517f08c379a000000000000000000000000000000000000000000000000000000000815260040161310490613ca9565b60405180910390fd5b60018261311a9190613abd565b8351101561315d576040517f08c379a000000000000000000000000000000000000000000000000000000000815260040161315490613d15565b60405180910390fd5b60008260018501015190508091505092915050565b60008082141561319d5760806131898460096130bc565b60ff166131969190613a8c565b90506131f2565b60018214156131c75760806131b384600a6130bc565b60ff166131c09190613a8c565b90506131f2565b60028214156131f15760806131dd84600b6130bc565b60ff166131ea9190613a8c565b90506131f2565b5b92915050565b60008082141561323057610100606461321285600c6130bc565b60ff1661321f9190613b90565b6132299190613a8c565b905061329f565b600182141561326757610100606461324985600d6130bc565b60ff166132569190613b90565b6132609190613a8c565b905061329f565b600282141561329e57610100606461328085600e6130bc565b60ff1661328d9190613b90565b6132979190613a8c565b905061329f565b5b92915050565b606060018214156132df576132b983612c62565b6040516020016132c99190613d81565b6040516020818303038152906040529050613388565b6002821415613317576132f183612c62565b6040516020016133019190613def565b6040516020818303038152906040529050613388565b600382141561334f5761332983612c62565b6040516020016133399190613e5d565b6040516020818303038152906040529050613388565b60048214156133875761336183612c62565b6040516020016133719190613ecb565b6040516020818303038152906040529050613388565b5b92915050565b6000604051905090565b600080fd5b600080fd5b600080fd5b600080fd5b6000601f19601f8301169050919050565b7f4e487b7100000000000000000000000000000000000000000000000000000000600052604160045260246000fd5b6133f5826133ac565b810181811067ffffffffffffffff82111715613414576134136133bd565b5b80604052505050565b600061342761338e565b905061343382826133ec565b919050565b600067ffffffffffffffff821115613453576134526133bd565b5b61345c826133ac565b9050602081019050919050565b82818337600083830152505050565b600061348b61348684613438565b61341d565b9050828152602081018484840111156134a7576134a66133a7565b5b6134b2848285613469565b509392505050565b600082601f8301126134cf576134ce6133a2565b5b81356134df848260208601613478565b91505092915050565b6000602082840312156134fe576134fd613398565b5b600082013567ffffffffffffffff81111561351c5761351b61339d565b5b613528848285016134ba565b91505092915050565b600081519050919050565b600082825260208201905092915050565b60005b8381101561356b578082015181840152602081019050613550565b8381111561357a576000848401525b50505050565b600061358b82613531565b613595818561353c565b93506135a581856020860161354d565b6135ae816133ac565b840191505092915050565b600060208201905081810360008301526135d38184613580565b905092915050565b600081905092915050565b60006135f182613531565b6135fb81856135db565b935061360b81856020860161354d565b80840191505092915050565b600061362382866135e6565b915061362f82856135e6565b915061363b82846135e6565b9150819050949350505050565b600061365482896135e6565b915061366082886135e6565b915061366c82876135e6565b915061367882866135e6565b915061368482856135e6565b915061369082846135e6565b9150819050979650505050505050565b60006136ac828a6135e6565b91506136b882896135e6565b91506136c482886135e6565b91506136d082876135e6565b91506136dc82866135e6565b91506136e882856135e6565b91506136f482846135e6565b915081905098975050505050505050565b600061371182856135e6565b915061371d82846135e6565b91508190509392505050565b600061373582876135e6565b915061374182866135e6565b915061374d82856135e6565b915061375982846135e6565b915081905095945050505050565b600061377382886135e6565b915061377f82876135e6565b915061378b82866135e6565b915061379782856135e6565b91506137a382846135e6565b91508190509695505050505050565b60006137be82846135e6565b915081905092915050565b7f3d00000000000000000000000000000000000000000000000000000000000000815250565b7f2200000000000000000000000000000000000000000000000000000000000000815250565b7f2220000000000000000000000000000000000000000000000000000000000000815250565b600061384782856135e6565b9150613852826137c9565b600182019150613861826137ef565b60018201915061387182846135e6565b915061387c82613815565b6002820191508190509392505050565b7f3c00000000000000000000000000000000000000000000000000000000000000815250565b7f2000000000000000000000000000000000000000000000000000000000000000815250565b7f3e00000000000000000000000000000000000000000000000000000000000000815250565b7f3c2f000000000000000000000000000000000000000000000000000000000000815250565b600061392f8261388c565b60018201915061393f82876135e6565b915061394a826138b2565b60018201915061395a82866135e6565b9150613965826138d8565b60018201915061397582856135e6565b9150613980826138fe565b60028201915061399082846135e6565b915061399b826138d8565b60018201915081905095945050505050565b7f2f3e000000000000000000000000000000000000000000000000000000000000815250565b60006139de8261388c565b6001820191506139ee82856135e6565b91506139f9826138b2565b600182019150613a0982846135e6565b9150613a14826139ad565b6002820191508190509392505050565b6000819050919050565b7f4e487b7100000000000000000000000000000000000000000000000000000000600052601260045260246000fd5b7f4e487b7100000000000000000000000000000000000000000000000000000000600052601160045260246000fd5b6000613a9782613a24565b9150613aa283613a24565b925082613ab257613ab1613a2e565b5b828204905092915050565b6000613ac882613a24565b9150613ad383613a24565b9250827fffffffffffffffffffffffffffffffffffffffffffffffffffffffffffffffff03821115613b0857613b07613a5d565b5b828201905092915050565b6000613b1e82613a24565b91507fffffffffffffffffffffffffffffffffffffffffffffffffffffffffffffffff821415613b5157613b50613a5d565b5b600182019050919050565b6000613b6782613a24565b9150613b7283613a24565b925082821015613b8557613b84613a5d565b5b828203905092915050565b6000613b9b82613a24565b9150613ba683613a24565b9250817fffffffffffffffffffffffffffffffffffffffffffffffffffffffffffffffff0483118215151615613bdf57613bde613a5d565b5b828202905092915050565b600060ff82169050919050565b6000613c0282613bea565b9150613c0d83613bea565b92508260ff03821115613c2357613c22613a5d565b5b828201905092915050565b7f4e487b7100000000000000000000000000000000000000000000000000000000600052603260045260246000fd5b7f746f55696e74385f6f766572666c6f7700000000000000000000000000000000600082015250565b6000613c9360108361353c565b9150613c9e82613c5d565b602082019050919050565b60006020820190508181036000830152613cc281613c86565b9050919050565b7f746f55696e74385f6f75744f66426f756e647300000000000000000000000000600082015250565b6000613cff60138361353c565b9150613d0a82613cc9565b602082019050919050565b60006020820190508181036000830152613d2e81613cf2565b9050919050565b7f302e000000000000000000000000000000000000000000000000000000000000600082015250565b6000613d6b6002836135db565b9150613d7682613d35565b600282019050919050565b6000613d8c82613d5e565b9150613d9882846135e6565b915081905092915050565b7f302e300000000000000000000000000000000000000000000000000000000000600082015250565b6000613dd96003836135db565b9150613de482613da3565b600382019050919050565b6000613dfa82613dcc565b9150613e0682846135e6565b915081905092915050565b7f302e303000000000000000000000000000000000000000000000000000000000600082015250565b6000613e476004836135db565b9150613e5282613e11565b600482019050919050565b6000613e6882613e3a565b9150613e7482846135e6565b915081905092915050565b7f302e303030000000000000000000000000000000000000000000000000000000600082015250565b6000613eb56005836135db565b9150613ec082613e7f565b600582019050919050565b6000613ed682613ea8565b9150613ee282846135e6565b91508190509291505056fea26469706673582212201123b52f9d19aabf0e2a8c85277595e46013ee7e3bb83ca326dec265ac8be6ad64736f6c634300080c0033",
  "linkReferences": {},
  "deployedLinkReferences": {}
}