{
  "_format": "hh-sol-artifact-1",
  "contractName": "Words",
  "sourceName": "contracts/Words.sol",
  "abi": [
    {
      "inputs": [
        {
          "internalType": "uint256",
          "name": "",
          "type": "uint256"
        }
      ],
      "name": "actions",
      "outputs": [
        {
          "internalType": "string",
          "name": "",
          "type": "string"
        }
      ],
      "stateMutability": "view",
      "type": "function"
    },
    {
      "inputs": [
        {
          "internalType": "uint256",
          "name": "",
          "type": "uint256"
        }
      ],
      "name": "rareActions",
      "outputs": [
        {
          "internalType": "string",
          "name": "",
          "type": "string"
        }
      ],
      "stateMutability": "view",
      "type": "function"
    },
    {
      "inputs": [
        {
          "components": [
            {
              "internalType": "string",
              "name": "lineX1",
              "type": "string"
            },
            {
              "internalType": "string",
              "name": "lineX2",
              "type": "string"
            },
            {
              "internalType": "string",
              "name": "lineY",
              "type": "string"
            },
            {
              "internalType": "string",
              "name": "textX",
              "type": "string"
            },
            {
              "internalType": "string",
              "name": "textY",
              "type": "string"
            },
            {
              "internalType": "string",
              "name": "textAnchor",
              "type": "string"
            }
          ],
          "internalType": "struct Words.WordDetails",
          "name": "details",
          "type": "tuple"
        },
        {
          "internalType": "uint256",
          "name": "rarity",
          "type": "uint256"
        },
        {
          "internalType": "uint256",
          "name": "wordIndex",
          "type": "uint256"
        },
        {
          "internalType": "bool",
          "name": "randomMint",
          "type": "bool"
        }
      ],
      "name": "singularAction",
      "outputs": [
        {
          "internalType": "string",
          "name": "",
          "type": "string"
        }
      ],
      "stateMutability": "view",
      "type": "function"
    },
    {
      "inputs": [
        {
          "internalType": "bytes",
          "name": "hash",
          "type": "bytes"
        },
        {
          "internalType": "bool",
          "name": "randomMint",
          "type": "bool"
        }
      ],
      "name": "whatIveDone",
      "outputs": [
        {
          "internalType": "string",
          "name": "",
          "type": "string"
        }
      ],
      "stateMutability": "view",
      "type": "function"
    }
  ],
  "bytecode": "0x60806040526040518061042001604052806040518060400160405280601081526020017f444956494e4154454420434f52414c530000000000000000000000000000000081525081526020016040518060400160405280600d81526020017f504c414e5445442052554e45530000000000000000000000000000000000000081525081526020016040518060400160405280600a81526020017f4c45442045584f4455530000000000000000000000000000000000000000000081525081526020016040518060400160405280601381526020017f435241465445442049524944455343454e43450000000000000000000000000081525081526020016040518060400160405280601181526020017f414343554d554c415445442044554e455300000000000000000000000000000081525081526020016040518060400160405280601081526020017f444543495048455245442043415645530000000000000000000000000000000081525081526020016040518060400160405280600b81526020017f53544f4c45204755494c5400000000000000000000000000000000000000000081525081526020016040518060400160405280600a81526020017f57524f54452053414e440000000000000000000000000000000000000000000081525081526020016040518060400160405280600c81526020017f425241494445442047454d53000000000000000000000000000000000000000081525081526020016040518060400160405280601181526020017f544f5543484544204c494748544e494e4700000000000000000000000000000081525081526020016040518060400160405280601181526020017f535041524b4544204157414b454e494e4700000000000000000000000000000081525081526020016040518060400160405280600981526020017f544f52452046454152000000000000000000000000000000000000000000000081525081526020016040518060400160405280601281526020017f414c49474e454420434f4c4c454354495645000000000000000000000000000081525081526020016040518060400160405280601081526020017f4841434b454420434f4e465553494f4e0000000000000000000000000000000081525081526020016040518060400160405280600c81526020017f535445455245442057454253000000000000000000000000000000000000000081525081526020016040518060400160405280601081526020017f475549444544204d4f56454d454e54530000000000000000000000000000000081525081526020016040518060400160405280601581526020017f50524f475245535345442050455243455054494f4e000000000000000000000081525081526020016040518060400160405280601081526020017f4142534f524245442054484f554748540000000000000000000000000000000081525081526020016040518060400160405280601381526020017f434f4e535452554354454420454d50495245530000000000000000000000000081525081526020016040518060400160405280600d81526020017f42595041535345442045474f530000000000000000000000000000000000000081525081526020016040518060400160405280601181526020017f52455452494556454420524944444c455300000000000000000000000000000081525081526020016040518060400160405280600981526020017f4d45542046524f4753000000000000000000000000000000000000000000000081525081526020016040518060400160405280600e81526020017f5455524e4544205048595349435300000000000000000000000000000000000081525081526020016040518060400160405280600b81526020017f534c45505420415552415300000000000000000000000000000000000000000081525081526020016040518060400160405280600f81526020017f464f554e442053494c4c494e455353000000000000000000000000000000000081525081526020016040518060400160405280601381526020017f434f4f4b4544205355525645494c4c414e43450000000000000000000000000081525081526020016040518060400160405280601081526020017f4255494c542042494f2d41524d4f55520000000000000000000000000000000081525081526020016040518060400160405280601481526020017f414c4c4556494154454420434f474e4954494f4e00000000000000000000000081525081526020016040518060400160405280601481526020017f494e54454e534946494544204c5543494449545900000000000000000000000081525081526020016040518060400160405280601381526020017f5041494e54454420494e5445524245494e47530000000000000000000000000081525081526020016040518060400160405280600e81526020017f4452414e4b2043554c545552455300000000000000000000000000000000000081525081526020016040518060400160405280601081526020017f454d455247454e54204b4e4f57494e470000000000000000000000000000000081525081526020016040518060400160405280600e81526020017f53574550542053554e5348494e450000000000000000000000000000000000008152508152506000906021620007bb92919062001637565b50604051806107c001604052806040518060400160405280601281526020017f4c454e475448454e454420504c414e455453000000000000000000000000000081525081526020016040518060400160405280600e81526020017f425245415448454420534f4e494300000000000000000000000000000000000081525081526020016040518060400160405280600e81526020017f4245414d45442052485954484d5300000000000000000000000000000000000081525081526020016040518060400160405280601181526020017f4d455247454420434f4e54454e54494f4e00000000000000000000000000000081525081526020016040518060400160405280601081526020017f4445504c4f5945442050555a5a4c45530000000000000000000000000000000081525081526020016040518060400160405280600f81526020017f524543524541544544204d59544853000000000000000000000000000000000081525081526020016040518060400160405280600a81526020017f4752455720524f4f54530000000000000000000000000000000000000000000081525081526020016040518060400160405280600f81526020017f554e44455253544f4f44205241494e000000000000000000000000000000000081525081526020016040518060400160405280601781526020017f5245564954414c4953454420454c45435452494349545900000000000000000081525081526020016040518060400160405280600f81526020017f54484f55474854204352595354414c000000000000000000000000000000000081525081526020016040518060400160405280601081526020017f535552505249534544204245494e47530000000000000000000000000000000081525081526020016040518060400160405280601181526020017f504c4159454420494e46494e4954454c5900000000000000000000000000000081525081526020016040518060400160405280600f81526020017f534e5547474c45442044414e474552000000000000000000000000000000000081525081526020016040518060400160405280600d81526020017f50494e43484544204d41474d410000000000000000000000000000000000000081525081526020016040518060400160405280600f81526020017f4a5547474c4544204d4f4d454e5453000000000000000000000000000000000081525081526020016040518060400160405280600b81526020017f53504f4b4520574154455200000000000000000000000000000000000000000081525081526020016040518060400160405280600e81526020017f5343554c5054454420534f554e4400000000000000000000000000000000000081525081526020016040518060400160405280601081526020017f424547414e20424547494e4e494e47530000000000000000000000000000000081525081526020016040518060400160405280600e81526020017f424543414d452045434f4c4f475900000000000000000000000000000000000081525081526020016040518060400160405280600c81526020017f544153544544204c49474854000000000000000000000000000000000000000081525081526020016040518060400160405280600e81526020017f54484f554748542053544f524d5300000000000000000000000000000000000081525081526020016040518060400160405280601281526020017f43495243554c415445442047524156495459000000000000000000000000000081525081526020016040518060400160405280601081526020017f5357414d20434f4c4f555246554c4c590000000000000000000000000000000081525081526020016040518060400160405280600f81526020017f47414c56414e495345442042415353000000000000000000000000000000000081525081526020016040518060400160405280600f81526020017f4845415254454e454420524f434b53000000000000000000000000000000000081525081526020016040518060400160405280601281526020017f4b494e444c454420454152544853544f5259000000000000000000000000000081525081526020016040518060400160405280601181526020017f4157414b454e4544204752494d4f49524500000000000000000000000000000081525081526020016040518060400160405280601181526020017f494e4349544544204142554e44414e434500000000000000000000000000000081525081526020016040518060400160405280600d81526020017f45564f4c5645442053454544530000000000000000000000000000000000000081525081526020016040518060400160405280600d81526020017f44414e43454420434f534d49430000000000000000000000000000000000000081525081526020016040518060400160405280600b81526020017f524547454e45524154454400000000000000000000000000000000000000000081525081526020016040518060400160405280600f81526020017f464c495254454420464c4f57455253000000000000000000000000000000000081525081526020016040518060400160405280601081526020017f4348455249534845442057494e5445520000000000000000000000000000000081525081526020016040518060400160405280600c81526020017f544f59454420524956455253000000000000000000000000000000000000000081525081526020016040518060400160405280600e81526020017f435245415445442042454155545900000000000000000000000000000000000081525081526020016040518060400160405280600f81526020017f454d424f4c44454e45442044555354000000000000000000000000000000000081525081526020016040518060400160405280600a81526020017f4c4f564544204d4f53530000000000000000000000000000000000000000000081525081526020016040518060400160405280600d81526020017f44414e43454420574f524c44530000000000000000000000000000000000000081525081526020016040518060400160405280601281526020017f574849535045524544204441524b4e455353000000000000000000000000000081525081526020016040518060400160405280600e81526020017f434f44454420444956494e49545900000000000000000000000000000000000081525081526020016040518060400160405280600e81526020017f4c41554748454420444545504c5900000000000000000000000000000000000081525081526020016040518060400160405280600d81526020017f445245414d45442046554e47490000000000000000000000000000000000000081525081526020016040518060400160405280600f81526020017f56454e545552454420444550544853000000000000000000000000000000000081525081526020016040518060400160405280601081526020017f57414e444552454420464f52455354530000000000000000000000000000000081525081526020016040518060400160405280600c81526020017f5343554c505445442053554e000000000000000000000000000000000000000081525081526020016040518060400160405280601181526020017f5355425645525445442045434c4950534500000000000000000000000000000081525081526020016040518060400160405280601181526020017f454d424f44494544204d4f554e5441494e00000000000000000000000000000081525081526020016040518060400160405280601181526020017f4558504c4f52454420444956494e49545900000000000000000000000000000081525081526020016040518060400160405280601281526020017f44454550454e4544205354494c4c4e455353000000000000000000000000000081525081526020016040518060400160405280600f81526020017f5245464c4543544544205354415253000000000000000000000000000000000081525081526020016040518060400160405280600e81526020017f554e4954454420465249454e445300000000000000000000000000000000000081525081526020016040518060400160405280601381526020017f4245465249454e444544204441524b4e4553530000000000000000000000000081525081526020016040518060400160405280600e81526020017f46454c5420554e4956455253414c00000000000000000000000000000000000081525081526020016040518060400160405280601481526020017f494e4954494154454420454152544853544f525900000000000000000000000081525081526020016040518060400160405280600c81526020017f454d42524143454420414c4c000000000000000000000000000000000000000081525081526020016040518060400160405280600f81526020017f524f414d454420554e495645525345000000000000000000000000000000000081525081526020016040518060400160405280600f81526020017f4e4f55524953484544204445415448000000000000000000000000000000000081525081526020016040518060400160405280600e81526020017f464c4f4154454420434c4f55445300000000000000000000000000000000000081525081526020016040518060400160405280600f81526020017f4d4f564544204556455259424f4459000000000000000000000000000000000081525081526020016040518060400160405280600b81526020017f46454c5420434f534d494300000000000000000000000000000000000000000081525081526020016040518060400160405280600c81526020017f53484f4f4b20545241554d41000000000000000000000000000000000000000081525081526020016040518060400160405280600b81526020017f4845414c4544205041494e000000000000000000000000000000000000000000815250815250600190603e620016229291906200169e565b503480156200163057600080fd5b5062001888565b8280548282559060005260206000209081019282156200168b579160200282015b828111156200168a5782518290805190602001906200167992919062001705565b509160200191906001019062001658565b5b5090506200169a919062001796565b5090565b828054828255906000526020600020908101928215620016f2579160200282015b82811115620016f1578251829080519060200190620016e092919062001705565b5091602001919060010190620016bf565b5b50905062001701919062001796565b5090565b828054620017139062001852565b90600052602060002090601f01602090048101928262001737576000855562001783565b82601f106200175257805160ff191683800117855562001783565b8280016001018555821562001783579182015b828111156200178257825182559160200191906001019062001765565b5b509050620017929190620017be565b5090565b5b80821115620017ba5760008181620017b09190620017dd565b5060010162001797565b5090565b5b80821115620017d9576000816000905550600101620017bf565b5090565b508054620017eb9062001852565b6000825580601f10620017ff575062001820565b601f0160209004906000526020600020908101906200181f9190620017be565b5b50565b7f4e487b7100000000000000000000000000000000000000000000000000000000600052602260045260246000fd5b600060028204905060018216806200186b57607f821691505b6020821081141562001882576200188162001823565b5b50919050565b6120a380620018986000396000f3fe608060405234801561001057600080fd5b506004361061004c5760003560e01c806355c701251461005157806383240f8314610081578063e7288d6b146100b1578063fc9f937b146100e1575b600080fd5b61006b60048036038101906100669190611428565b610111565b60405161007891906114ee565b60405180910390f35b61009b60048036038101906100969190611428565b6101bd565b6040516100a891906114ee565b60405180910390f35b6100cb60048036038101906100c6919061167d565b610269565b6040516100d891906114ee565b60405180910390f35b6100fb60048036038101906100f691906118cc565b610645565b60405161010891906114ee565b60405180910390f35b6000818154811061012157600080fd5b90600052602060002001600091509050805461013c9061197e565b80601f01602080910402602001604051908101604052809291908181526020018280546101689061197e565b80156101b55780601f1061018a576101008083540402835291602001916101b5565b820191906000526020600020905b81548152906001019060200180831161019857829003601f168201915b505050505081565b600181815481106101cd57600080fd5b9060005260206000200160009150905080546101e89061197e565b80601f01602080910402602001604051908101604052809291908181526020018280546102149061197e565b80156102615780601f1061023657610100808354040283529160200191610261565b820191906000526020600020905b81548152906001019060200180831161024457829003601f168201915b505050505081565b606080610274611358565b600061027f86610dab565b9050600061028c87610dda565b9050600061029988610e09565b905060006102a689610e38565b90506102b28989610e67565b9091509050809550506102c3611386565b60005b600a811015610634576000806002836102df91906119df565b1415610421576040518060400160405280600281526020017f313000000000000000000000000000000000000000000000000000000000000081525083600001819052506103386003886103339190611a3f565b611090565b83604001819052506040518060400160405280600381526020017f3135300000000000000000000000000000000000000000000000000000000000815250836020018190525061038787611090565b83608001819052506040518060400160405280600281526020017f313000000000000000000000000000000000000000000000000000000000000081525083606001819052506040518060400160405280600581526020017f73746172740000000000000000000000000000000000000000000000000000008152508360a00181905250869050848761041a9190611a73565b9650610559565b6040518060400160405280600381526020017f3135300000000000000000000000000000000000000000000000000000000000815250836000018190525061047460038761046f9190611a3f565b611090565b83604001819052506040518060400160405280600381526020017f323830000000000000000000000000000000000000000000000000000000000081525083602001819052506104c386611090565b83608001819052506040518060400160405280600381526020017f323930000000000000000000000000000000000000000000000000000000000081525083606001819052506040518060400160405280600381526020017f656e6400000000000000000000000000000000000000000000000000000000008152508360a0018190525085905083866105569190611a73565b95505b60018883600a811061056e5761056d611ac9565b5b602002015160006003811061058657610585611ac9565b5b6020020151141561061f57886105fc848a85600a81106105a9576105a8611ac9565b5b60200201516001600381106105c1576105c0611ac9565b5b60200201518b86600a81106105d9576105d8611ac9565b5b60200201516002600381106105f1576105f0611ac9565b5b60200201518f610645565b60405160200161060d929190611b34565b60405160208183030381529060405298505b5060018161062d9190611a73565b90506102c6565b508697505050505050505092915050565b60608060608380156106575750600186145b1561078057600085815481106106705761066f611ac9565b5b9060005260206000200180546106859061197e565b80601f01602080910402602001604051908101604052809291908181526020018280546106b19061197e565b80156106fe5780601f106106d3576101008083540402835291602001916106fe565b820191906000526020600020905b8154815290600101906020018083116106e157829003601f168201915b505050505090506107796040518060400160405280601081526020017f7374726f6b652d646173686172726179000000000000000000000000000000008152506040518060400160405280600181526020017f3400000000000000000000000000000000000000000000000000000000000000815250611219565b915061082a565b6001858154811061079457610793611ac9565b5b9060005260206000200180546107a99061197e565b80601f01602080910402602001604051908101604052809291908181526020018280546107d59061197e565b80156108225780601f106107f757610100808354040283529160200191610822565b820191906000526020600020905b81548152906001019060200180831161080557829003601f168201915b505050505090505b610a0d6040518060400160405280600481526020017f6c696e65000000000000000000000000000000000000000000000000000000008152506108a66040518060400160405280600281526020017f78310000000000000000000000000000000000000000000000000000000000008152508a60000151611219565b6108e96040518060400160405280600281526020017f79310000000000000000000000000000000000000000000000000000000000008152508b60400151611219565b61092c6040518060400160405280600281526020017f78320000000000000000000000000000000000000000000000000000000000008152508c60200151611219565b61096f6040518060400160405280600281526020017f79320000000000000000000000000000000000000000000000000000000000008152508d60400151611219565b6109e36040518060400160405280600681526020017f7374726f6b6500000000000000000000000000000000000000000000000000008152506040518060400160405280600581526020017f626c61636b000000000000000000000000000000000000000000000000000000815250611219565b886040516020016109f996959493929190611b58565b604051602081830303815290604052611245565b610d7f6040518060400160405280600481526020017f7465787400000000000000000000000000000000000000000000000000000000815250610a896040518060400160405280600b81526020017f746578742d616e63686f720000000000000000000000000000000000000000008152508b60a00151611219565b610acc6040518060400160405280600181526020017f78000000000000000000000000000000000000000000000000000000000000008152508c60600151611219565b610b0f6040518060400160405280600181526020017f79000000000000000000000000000000000000000000000000000000000000008152508d60800151611219565b610b836040518060400160405280600b81526020017f666f6e742d66616d696c790000000000000000000000000000000000000000008152506040518060400160405280600981526020017f48656c7665746963610000000000000000000000000000000000000000000000815250611219565b610bf76040518060400160405280600481526020017f66696c6c000000000000000000000000000000000000000000000000000000008152506040518060400160405280600581526020017f626c61636b000000000000000000000000000000000000000000000000000000815250611219565b610c6b6040518060400160405280600b81526020017f666f6e742d7765696768740000000000000000000000000000000000000000008152506040518060400160405280600481526020017f626f6c6400000000000000000000000000000000000000000000000000000000815250611219565b610cdf6040518060400160405280600981526020017f666f6e742d73697a6500000000000000000000000000000000000000000000008152506040518060400160405280600181526020017f3600000000000000000000000000000000000000000000000000000000000000815250611219565b610d536040518060400160405280600681526020017f66696c74657200000000000000000000000000000000000000000000000000008152506040518060400160405280601781526020017f75726c2823736f6c696454657874424746696c74657229000000000000000000815250611219565b604051602001610d6a989796959493929190611bb0565b60405160208183030381529060405284611271565b604051602001610d90929190611b34565b60405160208183030381529060405292505050949350505050565b60006010610dba83600f6112a2565b60ff16610dc79190611c22565b6064610dd39190611a73565b9050919050565b60006010610de98360106112a2565b60ff16610df69190611c22565b6064610e029190611a73565b9050919050565b60006010610e188360116112a2565b60ff16610e259190611c22565b600a610e319190611a73565b9050919050565b60006010610e478360126112a2565b60ff16610e549190611c22565b600a610e609190611a73565b9050919050565b600080610e72611358565b610e7a611358565b6000806000610e8889610dab565b90506000610e958a610dda565b90506000610ea28b610e09565b90506000610eaf8c610e38565b905060005b600a81101561107857600080600283610ecd91906119df565b1415610ee9578590508386610ee29190611a73565b9550610efb565b8490508285610ef89190611a73565b94505b600060048383610f0b9190611a73565b610f1591906119df565b1415611063576000610f338f846013610f2e9190611a73565b6112a2565b60ff169050610f406113bc565b600181600060038110610f5657610f55611ac9565b5b6020020181815250508e8015610f8e575060006003838686610f789190611a73565b610f829190611a73565b610f8c91906119df565b145b15610ffd57600181600160038110610fa957610fa8611ac9565b5b602002018181525050610100602183610fc29190611c53565b610fcc9190611c22565b81600260038110610fe057610fdf611ac9565b5b602002018181525050600189610ff69190611a73565b9850611035565b610100603e8361100d9190611c53565b6110179190611c22565b8160026003811061102b5761102a611ac9565b5b6020020181815250505b808b85600a811061104957611048611ac9565b5b602002018190525060018a61105e9190611a73565b995050505b506001816110719190611a73565b9050610eb4565b50848688995099509950505050505050509250925092565b606060008214156110d8576040518060400160405280600181526020017f30000000000000000000000000000000000000000000000000000000000000008152509050611214565b600082905060005b6000821461110a5780806110f390611cad565b915050600a826111039190611c22565b91506110e0565b60008167ffffffffffffffff8111156111265761112561151a565b5b6040519080825280601f01601f1916602001820160405280156111585781602001600182028036833780820191505090505b50905060008290505b6000861461120c576001816111769190611a3f565b90506000600a80886111889190611c22565b6111929190611c53565b8761119d9190611a3f565b60306111a99190611d03565b905060008160f81b9050808484815181106111c7576111c6611ac9565b5b60200101907effffffffffffffffffffffffffffffffffffffffffffffffffffffffffffff1916908160001a905350600a886112039190611c22565b97505050611161565b819450505050505b919050565b6060828260405160200161122e929190611dac565b604051602081830303815290604052905092915050565b6060828260405160200161125a929190611e6f565b604051602081830303815290604052905092915050565b60608383838660405160200161128a9493929190611f0c565b60405160208183030381529060405290509392505050565b6000816001836112b29190611a73565b10156112f3576040517f08c379a00000000000000000000000000000000000000000000000000000000081526004016112ea90611fe1565b60405180910390fd5b6001826113009190611a73565b83511015611343576040517f08c379a000000000000000000000000000000000000000000000000000000000815260040161133a9061204d565b60405180910390fd5b60008260018501015190508091505092915050565b604051806101400160405280600a905b6113706113bc565b8152602001906001900390816113685790505090565b6040518060c001604052806060815260200160608152602001606081526020016060815260200160608152602001606081525090565b6040518060600160405280600390602082028036833780820191505090505090565b6000604051905090565b600080fd5b600080fd5b6000819050919050565b611405816113f2565b811461141057600080fd5b50565b600081359050611422816113fc565b92915050565b60006020828403121561143e5761143d6113e8565b5b600061144c84828501611413565b91505092915050565b600081519050919050565b600082825260208201905092915050565b60005b8381101561148f578082015181840152602081019050611474565b8381111561149e576000848401525b50505050565b6000601f19601f8301169050919050565b60006114c082611455565b6114ca8185611460565b93506114da818560208601611471565b6114e3816114a4565b840191505092915050565b6000602082019050818103600083015261150881846114b5565b905092915050565b600080fd5b600080fd5b7f4e487b7100000000000000000000000000000000000000000000000000000000600052604160045260246000fd5b611552826114a4565b810181811067ffffffffffffffff821117156115715761157061151a565b5b80604052505050565b60006115846113de565b90506115908282611549565b919050565b600067ffffffffffffffff8211156115b0576115af61151a565b5b6115b9826114a4565b9050602081019050919050565b82818337600083830152505050565b60006115e86115e384611595565b61157a565b90508281526020810184848401111561160457611603611515565b5b61160f8482856115c6565b509392505050565b600082601f83011261162c5761162b611510565b5b813561163c8482602086016115d5565b91505092915050565b60008115159050919050565b61165a81611645565b811461166557600080fd5b50565b60008135905061167781611651565b92915050565b60008060408385031215611694576116936113e8565b5b600083013567ffffffffffffffff8111156116b2576116b16113ed565b5b6116be85828601611617565b92505060206116cf85828601611668565b9150509250929050565b600080fd5b600080fd5b600067ffffffffffffffff8211156116fe576116fd61151a565b5b611707826114a4565b9050602081019050919050565b6000611727611722846116e3565b61157a565b90508281526020810184848401111561174357611742611515565b5b61174e8482856115c6565b509392505050565b600082601f83011261176b5761176a611510565b5b813561177b848260208601611714565b91505092915050565b600060c0828403121561179a576117996116d9565b5b6117a460c061157a565b9050600082013567ffffffffffffffff8111156117c4576117c36116de565b5b6117d084828501611756565b600083015250602082013567ffffffffffffffff8111156117f4576117f36116de565b5b61180084828501611756565b602083015250604082013567ffffffffffffffff811115611824576118236116de565b5b61183084828501611756565b604083015250606082013567ffffffffffffffff811115611854576118536116de565b5b61186084828501611756565b606083015250608082013567ffffffffffffffff811115611884576118836116de565b5b61189084828501611756565b60808301525060a082013567ffffffffffffffff8111156118b4576118b36116de565b5b6118c084828501611756565b60a08301525092915050565b600080600080608085870312156118e6576118e56113e8565b5b600085013567ffffffffffffffff811115611904576119036113ed565b5b61191087828801611784565b945050602061192187828801611413565b935050604061193287828801611413565b925050606061194387828801611668565b91505092959194509250565b7f4e487b7100000000000000000000000000000000000000000000000000000000600052602260045260246000fd5b6000600282049050600182168061199657607f821691505b602082108114156119aa576119a961194f565b5b50919050565b7f4e487b7100000000000000000000000000000000000000000000000000000000600052601260045260246000fd5b60006119ea826113f2565b91506119f5836113f2565b925082611a0557611a046119b0565b5b828206905092915050565b7f4e487b7100000000000000000000000000000000000000000000000000000000600052601160045260246000fd5b6000611a4a826113f2565b9150611a55836113f2565b925082821015611a6857611a67611a10565b5b828203905092915050565b6000611a7e826113f2565b9150611a89836113f2565b9250827fffffffffffffffffffffffffffffffffffffffffffffffffffffffffffffffff03821115611abe57611abd611a10565b5b828201905092915050565b7f4e487b7100000000000000000000000000000000000000000000000000000000600052603260045260246000fd5b600081905092915050565b6000611b0e82611455565b611b188185611af8565b9350611b28818560208601611471565b80840191505092915050565b6000611b408285611b03565b9150611b4c8284611b03565b91508190509392505050565b6000611b648289611b03565b9150611b708288611b03565b9150611b7c8287611b03565b9150611b888286611b03565b9150611b948285611b03565b9150611ba08284611b03565b9150819050979650505050505050565b6000611bbc828b611b03565b9150611bc8828a611b03565b9150611bd48289611b03565b9150611be08288611b03565b9150611bec8287611b03565b9150611bf88286611b03565b9150611c048285611b03565b9150611c108284611b03565b91508190509998505050505050505050565b6000611c2d826113f2565b9150611c38836113f2565b925082611c4857611c476119b0565b5b828204905092915050565b6000611c5e826113f2565b9150611c69836113f2565b9250817fffffffffffffffffffffffffffffffffffffffffffffffffffffffffffffffff0483118215151615611ca257611ca1611a10565b5b828202905092915050565b6000611cb8826113f2565b91507fffffffffffffffffffffffffffffffffffffffffffffffffffffffffffffffff821415611ceb57611cea611a10565b5b600182019050919050565b600060ff82169050919050565b6000611d0e82611cf6565b9150611d1983611cf6565b92508260ff03821115611d2f57611d2e611a10565b5b828201905092915050565b7f3d00000000000000000000000000000000000000000000000000000000000000815250565b7f2200000000000000000000000000000000000000000000000000000000000000815250565b7f2220000000000000000000000000000000000000000000000000000000000000815250565b6000611db88285611b03565b9150611dc382611d3a565b600182019150611dd282611d60565b600182019150611de28284611b03565b9150611ded82611d86565b6002820191508190509392505050565b7f3c00000000000000000000000000000000000000000000000000000000000000815250565b7f2000000000000000000000000000000000000000000000000000000000000000815250565b7f2f3e000000000000000000000000000000000000000000000000000000000000815250565b6000611e7a82611dfd565b600182019150611e8a8285611b03565b9150611e9582611e23565b600182019150611ea58284611b03565b9150611eb082611e49565b6002820191508190509392505050565b7f3e00000000000000000000000000000000000000000000000000000000000000815250565b7f3c2f000000000000000000000000000000000000000000000000000000000000815250565b6000611f1782611dfd565b600182019150611f278287611b03565b9150611f3282611e23565b600182019150611f428286611b03565b9150611f4d82611ec0565b600182019150611f5d8285611b03565b9150611f6882611ee6565b600282019150611f788284611b03565b9150611f8382611ec0565b60018201915081905095945050505050565b7f746f55696e74385f6f766572666c6f7700000000000000000000000000000000600082015250565b6000611fcb601083611460565b9150611fd682611f95565b602082019050919050565b60006020820190508181036000830152611ffa81611fbe565b9050919050565b7f746f55696e74385f6f75744f66426f756e647300000000000000000000000000600082015250565b6000612037601383611460565b915061204282612001565b602082019050919050565b600060208201905081810360008301526120668161202a565b905091905056fea2646970667358221220fdd17e6def2e95eec1a14575cdd17b0f255d5bd48d668982e4303ffba99f75cd64736f6c634300080c0033",
  "linkReferences": {},
  "deployedLinkReferences": {}
}