{
  "_format": "hh-sol-artifact-1",
  "contractName": "SplitFactory",
  "sourceName": "contracts/splits/SplitFactory.sol",
  "abi": [
    {
      "inputs": [
        {
          "internalType": "address",
          "name": "splitter_",
          "type": "address"
        },
        {
          "internalType": "address",
          "name": "wethAddress_",
          "type": "address"
        }
      ],
      "stateMutability": "nonpayable",
      "type": "constructor"
    },
    {
      "inputs": [
        {
          "internalType": "bytes32",
          "name": "merkleRoot_",
          "type": "bytes32"
        }
      ],
      "name": "createSplit",
      "outputs": [
        {
          "internalType": "address",
          "name": "splitProxy",
          "type": "address"
        }
      ],
      "stateMutability": "nonpayable",
      "type": "function"
    },
    {
      "inputs": [],
      "name": "merkleRoot",
      "outputs": [
        {
          "internalType": "bytes32",
          "name": "",
          "type": "bytes32"
        }
      ],
      "stateMutability": "view",
      "type": "function"
    },
    {
      "inputs": [],
      "name": "splitter",
      "outputs": [
        {
          "internalType": "address",
          "name": "",
          "type": "address"
        }
      ],
      "stateMutability": "view",
      "type": "function"
    },
    {
      "inputs": [],
      "name": "wethAddress",
      "outputs": [
        {
          "internalType": "address",
          "name": "",
          "type": "address"
        }
      ],
      "stateMutability": "view",
      "type": "function"
    }
  ],
  "bytecode": "0x60c060405234801561001057600080fd5b50604051610ad3380380610ad383398181016040528101906100329190610104565b8173ffffffffffffffffffffffffffffffffffffffff1660808173ffffffffffffffffffffffffffffffffffffffff16815250508073ffffffffffffffffffffffffffffffffffffffff1660a08173ffffffffffffffffffffffffffffffffffffffff16815250505050610144565b600080fd5b600073ffffffffffffffffffffffffffffffffffffffff82169050919050565b60006100d1826100a6565b9050919050565b6100e1816100c6565b81146100ec57600080fd5b50565b6000815190506100fe816100d8565b92915050565b6000806040838503121561011b5761011a6100a1565b5b6000610129858286016100ef565b925050602061013a858286016100ef565b9150509250929050565b60805160a05161096b61016860003960006101070152600060e3015261096b6000f3fe608060405234801561001057600080fd5b506004361061004c5760003560e01c80632eb4a7ab146100515780633cd8045e1461006f5780634f0e0ef31461008d57806381a77c8c146100ab575b600080fd5b6100596100db565b60405161006691906101b7565b60405180910390f35b6100776100e1565b6040516100849190610213565b60405180910390f35b610095610105565b6040516100a29190610213565b60405180910390f35b6100c560048036038101906100c0919061025f565b610129565b6040516100d29190610213565b60405180910390f35b60005481565b7f000000000000000000000000000000000000000000000000000000000000000081565b7f000000000000000000000000000000000000000000000000000000000000000081565b6000816000819055508160405160200161014391906101b7565b6040516020818303038152906040528051906020012060405161016590610191565b8190604051809103906000f5905080158015610185573d6000803e3d6000fd5b50905060008055919050565b6106a98061028d83390190565b6000819050919050565b6101b18161019e565b82525050565b60006020820190506101cc60008301846101a8565b92915050565b600073ffffffffffffffffffffffffffffffffffffffff82169050919050565b60006101fd826101d2565b9050919050565b61020d816101f2565b82525050565b60006020820190506102286000830184610204565b92915050565b600080fd5b61023c8161019e565b811461024757600080fd5b50565b60008135905061025981610233565b92915050565b6000602082840312156102755761027461022e565b5b60006102838482850161024a565b9150509291505056fe608060405234801561001057600080fd5b503373ffffffffffffffffffffffffffffffffffffffff16633cd8045e6040518163ffffffff1660e01b8152600401602060405180830381600087803b15801561005957600080fd5b505af115801561006d573d6000803e3d6000fd5b505050506040513d601f19601f82011682018060405250810190610091919061027f565b600360006101000a81548173ffffffffffffffffffffffffffffffffffffffff021916908373ffffffffffffffffffffffffffffffffffffffff1602179055503373ffffffffffffffffffffffffffffffffffffffff16634f0e0ef36040518163ffffffff1660e01b8152600401602060405180830381600087803b15801561011957600080fd5b505af115801561012d573d6000803e3d6000fd5b505050506040513d601f19601f82011682018060405250810190610151919061027f565b600260006101000a81548173ffffffffffffffffffffffffffffffffffffffff021916908373ffffffffffffffffffffffffffffffffffffffff1602179055503373ffffffffffffffffffffffffffffffffffffffff16632eb4a7ab6040518163ffffffff1660e01b8152600401602060405180830381600087803b1580156101d957600080fd5b505af11580156101ed573d6000803e3d6000fd5b505050506040513d601f19601f8201168201806040525081019061021191906102e2565b60008190555061030f565b600080fd5b600073ffffffffffffffffffffffffffffffffffffffff82169050919050565b600061024c82610221565b9050919050565b61025c81610241565b811461026757600080fd5b50565b60008151905061027981610253565b92915050565b6000602082840312156102955761029461021c565b5b60006102a38482850161026a565b91505092915050565b6000819050919050565b6102bf816102ac565b81146102ca57600080fd5b50565b6000815190506102dc816102b6565b92915050565b6000602082840312156102f8576102f761021c565b5b6000610306848285016102cd565b91505092915050565b61038b8061031e6000396000f3fe6080604052600436106100435760003560e01c80632eb4a7ab146100965780633cd8045e146100c157806381e580d3146100ec578063ba0bafb41461012957610063565b3661006357346006600082825461005a91906101e7565b92505081905550005b600061006d610154565b905060405136600082376000803683855af43d806000843e8160008114610092578184f35b8184fd5b3480156100a257600080fd5b506100ab61017e565b6040516100b89190610256565b60405180910390f35b3480156100cd57600080fd5b506100d6610154565b6040516100e391906102b2565b60405180910390f35b3480156100f857600080fd5b50610113600480360381019061010e91906102fe565b610184565b604051610120919061033a565b60405180910390f35b34801561013557600080fd5b5061013e6101a8565b60405161014b919061033a565b60405180910390f35b6000600360009054906101000a900473ffffffffffffffffffffffffffffffffffffffff16905090565b60005481565b6004818154811061019457600080fd5b906000526020600020016000915090505481565b60015481565b6000819050919050565b7f4e487b7100000000000000000000000000000000000000000000000000000000600052601160045260246000fd5b60006101f2826101ae565b91506101fd836101ae565b9250827fffffffffffffffffffffffffffffffffffffffffffffffffffffffffffffffff03821115610232576102316101b8565b5b828201905092915050565b6000819050919050565b6102508161023d565b82525050565b600060208201905061026b6000830184610247565b92915050565b600073ffffffffffffffffffffffffffffffffffffffff82169050919050565b600061029c82610271565b9050919050565b6102ac81610291565b82525050565b60006020820190506102c760008301846102a3565b92915050565b600080fd5b6102db816101ae565b81146102e657600080fd5b50565b6000813590506102f8816102d2565b92915050565b600060208284031215610314576103136102cd565b5b6000610322848285016102e9565b91505092915050565b610334816101ae565b82525050565b600060208201905061034f600083018461032b565b9291505056fea2646970667358221220d0d260a7602b85e538f48451a5a2674dfb5e09ad8811fa34bafb2abfac40d52e64736f6c63430008090033a2646970667358221220ef6d65b25d106b928a9e31392e25809701b9bd456900a957fca0d637902757d164736f6c63430008090033",
  "linkReferences": {},
  "deployedLinkReferences": {}
}