{
  "_format": "hh-sol-artifact-1",
  "contractName": "SplitFactory",
  "sourceName": "contracts/splits/SplitFactory.sol",
  "abi": [
    {
      "inputs": [
        {
          "internalType": "address",
          "name": "splitter_",
          "type": "address"
        },
        {
          "internalType": "address",
          "name": "wethAddress_",
          "type": "address"
        }
      ],
      "stateMutability": "nonpayable",
      "type": "constructor"
    },
    {
      "inputs": [
        {
          "internalType": "bytes32",
          "name": "merkleRoot_",
          "type": "bytes32"
        }
      ],
      "name": "createSplit",
      "outputs": [
        {
          "internalType": "address",
          "name": "splitProxy",
          "type": "address"
        }
      ],
      "stateMutability": "nonpayable",
      "type": "function"
    },
    {
      "inputs": [],
      "name": "merkleRoot",
      "outputs": [
        {
          "internalType": "bytes32",
          "name": "",
          "type": "bytes32"
        }
      ],
      "stateMutability": "view",
      "type": "function"
    },
    {
      "inputs": [],
      "name": "splitter",
      "outputs": [
        {
          "internalType": "address",
          "name": "",
          "type": "address"
        }
      ],
      "stateMutability": "view",
      "type": "function"
    },
    {
      "inputs": [],
      "name": "wethAddress",
      "outputs": [
        {
          "internalType": "address",
          "name": "",
          "type": "address"
        }
      ],
      "stateMutability": "view",
      "type": "function"
    }
  ],
  "bytecode": "0x60c060405234801561001057600080fd5b50604051610aa6380380610aa683398181016040528101906100329190610104565b8173ffffffffffffffffffffffffffffffffffffffff1660808173ffffffffffffffffffffffffffffffffffffffff16815250508073ffffffffffffffffffffffffffffffffffffffff1660a08173ffffffffffffffffffffffffffffffffffffffff16815250505050610144565b600080fd5b600073ffffffffffffffffffffffffffffffffffffffff82169050919050565b60006100d1826100a6565b9050919050565b6100e1816100c6565b81146100ec57600080fd5b50565b6000815190506100fe816100d8565b92915050565b6000806040838503121561011b5761011a6100a1565b5b6000610129858286016100ef565b925050602061013a858286016100ef565b9150509250929050565b60805160a05161093e61016860003960006101070152600060e3015261093e6000f3fe608060405234801561001057600080fd5b506004361061004c5760003560e01c80632eb4a7ab146100515780633cd8045e1461006f5780634f0e0ef31461008d57806381a77c8c146100ab575b600080fd5b6100596100db565b60405161006691906101b7565b60405180910390f35b6100776100e1565b6040516100849190610213565b60405180910390f35b610095610105565b6040516100a29190610213565b60405180910390f35b6100c560048036038101906100c0919061025f565b610129565b6040516100d29190610213565b60405180910390f35b60005481565b7f000000000000000000000000000000000000000000000000000000000000000081565b7f000000000000000000000000000000000000000000000000000000000000000081565b6000816000819055508160405160200161014391906101b7565b6040516020818303038152906040528051906020012060405161016590610191565b8190604051809103906000f5905080158015610185573d6000803e3d6000fd5b50905060008055919050565b61067c8061028d83390190565b6000819050919050565b6101b18161019e565b82525050565b60006020820190506101cc60008301846101a8565b92915050565b600073ffffffffffffffffffffffffffffffffffffffff82169050919050565b60006101fd826101d2565b9050919050565b61020d816101f2565b82525050565b60006020820190506102286000830184610204565b92915050565b600080fd5b61023c8161019e565b811461024757600080fd5b50565b60008135905061025981610233565b92915050565b6000602082840312156102755761027461022e565b5b60006102838482850161024a565b9150509291505056fe608060405234801561001057600080fd5b503373ffffffffffffffffffffffffffffffffffffffff16633cd8045e6040518163ffffffff1660e01b81526004016020604051808303816000875af115801561005e573d6000803e3d6000fd5b505050506040513d601f19601f820116820180604052508101906100829190610252565b600360006101000a81548173ffffffffffffffffffffffffffffffffffffffff021916908373ffffffffffffffffffffffffffffffffffffffff1602179055503373ffffffffffffffffffffffffffffffffffffffff16634f0e0ef36040518163ffffffff1660e01b81526004016020604051808303816000875af115801561010f573d6000803e3d6000fd5b505050506040513d601f19601f820116820180604052508101906101339190610252565b600260006101000a81548173ffffffffffffffffffffffffffffffffffffffff021916908373ffffffffffffffffffffffffffffffffffffffff1602179055503373ffffffffffffffffffffffffffffffffffffffff16632eb4a7ab6040518163ffffffff1660e01b81526004016020604051808303816000875af11580156101c0573d6000803e3d6000fd5b505050506040513d601f19601f820116820180604052508101906101e491906102b5565b6000819055506102e2565b600080fd5b600073ffffffffffffffffffffffffffffffffffffffff82169050919050565b600061021f826101f4565b9050919050565b61022f81610214565b811461023a57600080fd5b50565b60008151905061024c81610226565b92915050565b600060208284031215610268576102676101ef565b5b60006102768482850161023d565b91505092915050565b6000819050919050565b6102928161027f565b811461029d57600080fd5b50565b6000815190506102af81610289565b92915050565b6000602082840312156102cb576102ca6101ef565b5b60006102d9848285016102a0565b91505092915050565b61038b806102f16000396000f3fe6080604052600436106100435760003560e01c80632eb4a7ab146100965780633cd8045e146100c157806381e580d3146100ec578063ba0bafb41461012957610063565b3661006357346006600082825461005a91906101e7565b92505081905550005b600061006d610154565b905060405136600082376000803683855af43d806000843e8160008114610092578184f35b8184fd5b3480156100a257600080fd5b506100ab61017e565b6040516100b89190610256565b60405180910390f35b3480156100cd57600080fd5b506100d6610154565b6040516100e391906102b2565b60405180910390f35b3480156100f857600080fd5b50610113600480360381019061010e91906102fe565b610184565b604051610120919061033a565b60405180910390f35b34801561013557600080fd5b5061013e6101a8565b60405161014b919061033a565b60405180910390f35b6000600360009054906101000a900473ffffffffffffffffffffffffffffffffffffffff16905090565b60005481565b6004818154811061019457600080fd5b906000526020600020016000915090505481565b60015481565b6000819050919050565b7f4e487b7100000000000000000000000000000000000000000000000000000000600052601160045260246000fd5b60006101f2826101ae565b91506101fd836101ae565b9250827fffffffffffffffffffffffffffffffffffffffffffffffffffffffffffffffff03821115610232576102316101b8565b5b828201905092915050565b6000819050919050565b6102508161023d565b82525050565b600060208201905061026b6000830184610247565b92915050565b600073ffffffffffffffffffffffffffffffffffffffff82169050919050565b600061029c82610271565b9050919050565b6102ac81610291565b82525050565b60006020820190506102c760008301846102a3565b92915050565b600080fd5b6102db816101ae565b81146102e657600080fd5b50565b6000813590506102f8816102d2565b92915050565b600060208284031215610314576103136102cd565b5b6000610322848285016102e9565b91505092915050565b610334816101ae565b82525050565b600060208201905061034f600083018461032b565b9291505056fea26469706673582212207b12fe9f022b1c70f033a3c04c685317d24fc9e562eb2fc45fe3ec97fcae951464736f6c634300080c0033a2646970667358221220f1382bcb25a8f49561a47c80f0e5609f2ccb951db554e0b4df91ab6cf7c09a4264736f6c634300080c0033",
  "linkReferences": {},
  "deployedLinkReferences": {}
}