{
  "_format": "hh-sol-artifact-1",
  "contractName": "SplitStorage",
  "sourceName": "contracts/splits/SplitStorage.sol",
  "abi": [
    {
      "inputs": [
        {
          "internalType": "uint256",
          "name": "",
          "type": "uint256"
        }
      ],
      "name": "balanceForWindow",
      "outputs": [
        {
          "internalType": "uint256",
          "name": "",
          "type": "uint256"
        }
      ],
      "stateMutability": "view",
      "type": "function"
    },
    {
      "inputs": [],
      "name": "currentWindow",
      "outputs": [
        {
          "internalType": "uint256",
          "name": "",
          "type": "uint256"
        }
      ],
      "stateMutability": "view",
      "type": "function"
    },
    {
      "inputs": [],
      "name": "merkleRoot",
      "outputs": [
        {
          "internalType": "bytes32",
          "name": "",
          "type": "bytes32"
        }
      ],
      "stateMutability": "view",
      "type": "function"
    }
  ],
  "bytecode": "0x608060405234801561001057600080fd5b506101de806100206000396000f3fe608060405234801561001057600080fd5b50600436106100415760003560e01c80632eb4a7ab1461004657806381e580d314610064578063ba0bafb414610094575b600080fd5b61004e6100b2565b60405161005b91906100fb565b60405180910390f35b61007e60048036038101906100799190610151565b6100b8565b60405161008b919061018d565b60405180910390f35b61009c6100dc565b6040516100a9919061018d565b60405180910390f35b60005481565b600481815481106100c857600080fd5b906000526020600020016000915090505481565b60015481565b6000819050919050565b6100f5816100e2565b82525050565b600060208201905061011060008301846100ec565b92915050565b600080fd5b6000819050919050565b61012e8161011b565b811461013957600080fd5b50565b60008135905061014b81610125565b92915050565b60006020828403121561016757610166610116565b5b60006101758482850161013c565b91505092915050565b6101878161011b565b82525050565b60006020820190506101a2600083018461017e565b9291505056fea264697066735822122088f1d4b236f0f13f21bc7df883d7afee44d283bb64cf240cc48c4afec3abe21f64736f6c63430008090033",
  "linkReferences": {},
  "deployedLinkReferences": {}
}