{
  "_format": "hh-sol-artifact-1",
  "contractName": "Collection",
  "sourceName": "contracts/Collection.sol",
  "abi": [
    {
      "inputs": [
        {
          "internalType": "string",
          "name": "name_",
          "type": "string"
        },
        {
          "internalType": "string",
          "name": "symbol_",
          "type": "string"
        },
        {
          "internalType": "address",
          "name": "collector_",
          "type": "address"
        },
        {
          "internalType": "address payable",
          "name": "recipient_",
          "type": "address"
        },
        {
          "internalType": "uint256",
          "name": "startDate_",
          "type": "uint256"
        },
        {
          "internalType": "uint256",
          "name": "endDate_",
          "type": "uint256"
        },
        {
          "internalType": "bytes32",
          "name": "root_",
          "type": "bytes32"
        }
      ],
      "stateMutability": "nonpayable",
      "type": "constructor"
    },
    {
      "anonymous": false,
      "inputs": [
        {
          "indexed": true,
          "internalType": "address",
          "name": "owner",
          "type": "address"
        },
        {
          "indexed": true,
          "internalType": "address",
          "name": "approved",
          "type": "address"
        },
        {
          "indexed": true,
          "internalType": "uint256",
          "name": "tokenId",
          "type": "uint256"
        }
      ],
      "name": "Approval",
      "type": "event"
    },
    {
      "anonymous": false,
      "inputs": [
        {
          "indexed": true,
          "internalType": "address",
          "name": "owner",
          "type": "address"
        },
        {
          "indexed": true,
          "internalType": "address",
          "name": "operator",
          "type": "address"
        },
        {
          "indexed": false,
          "internalType": "bool",
          "name": "approved",
          "type": "bool"
        }
      ],
      "name": "ApprovalForAll",
      "type": "event"
    },
    {
      "anonymous": false,
      "inputs": [
        {
          "indexed": true,
          "internalType": "address",
          "name": "from",
          "type": "address"
        },
        {
          "indexed": true,
          "internalType": "address",
          "name": "to",
          "type": "address"
        },
        {
          "indexed": true,
          "internalType": "uint256",
          "name": "tokenId",
          "type": "uint256"
        }
      ],
      "name": "Transfer",
      "type": "event"
    },
    {
      "inputs": [
        {
          "internalType": "address",
          "name": "to",
          "type": "address"
        },
        {
          "internalType": "uint256",
          "name": "tokenId",
          "type": "uint256"
        }
      ],
      "name": "approve",
      "outputs": [],
      "stateMutability": "nonpayable",
      "type": "function"
    },
    {
      "inputs": [
        {
          "internalType": "address",
          "name": "owner",
          "type": "address"
        }
      ],
      "name": "balanceOf",
      "outputs": [
        {
          "internalType": "uint256",
          "name": "",
          "type": "uint256"
        }
      ],
      "stateMutability": "view",
      "type": "function"
    },
    {
      "inputs": [
        {
          "internalType": "address",
          "name": "",
          "type": "address"
        }
      ],
      "name": "claimed",
      "outputs": [
        {
          "internalType": "bool",
          "name": "",
          "type": "bool"
        }
      ],
      "stateMutability": "view",
      "type": "function"
    },
    {
      "inputs": [],
      "name": "collector",
      "outputs": [
        {
          "internalType": "address",
          "name": "",
          "type": "address"
        }
      ],
      "stateMutability": "view",
      "type": "function"
    },
    {
      "inputs": [],
      "name": "descriptor",
      "outputs": [
        {
          "internalType": "contract CollectionDescriptor",
          "name": "",
          "type": "address"
        }
      ],
      "stateMutability": "view",
      "type": "function"
    },
    {
      "inputs": [],
      "name": "endDate",
      "outputs": [
        {
          "internalType": "uint256",
          "name": "",
          "type": "uint256"
        }
      ],
      "stateMutability": "view",
      "type": "function"
    },
    {
      "inputs": [
        {
          "internalType": "uint256",
          "name": "tokenId",
          "type": "uint256"
        }
      ],
      "name": "generateBase64Image",
      "outputs": [
        {
          "internalType": "string",
          "name": "",
          "type": "string"
        }
      ],
      "stateMutability": "view",
      "type": "function"
    },
    {
      "inputs": [
        {
          "internalType": "uint256",
          "name": "tokenId",
          "type": "uint256"
        }
      ],
      "name": "generateImage",
      "outputs": [
        {
          "internalType": "string",
          "name": "",
          "type": "string"
        }
      ],
      "stateMutability": "view",
      "type": "function"
    },
    {
      "inputs": [
        {
          "internalType": "uint256",
          "name": "tokenId",
          "type": "uint256"
        }
      ],
      "name": "generateTraits",
      "outputs": [
        {
          "internalType": "string",
          "name": "",
          "type": "string"
        }
      ],
      "stateMutability": "view",
      "type": "function"
    },
    {
      "inputs": [
        {
          "internalType": "uint256",
          "name": "tokenId",
          "type": "uint256"
        }
      ],
      "name": "getApproved",
      "outputs": [
        {
          "internalType": "address",
          "name": "",
          "type": "address"
        }
      ],
      "stateMutability": "view",
      "type": "function"
    },
    {
      "inputs": [
        {
          "internalType": "address",
          "name": "owner",
          "type": "address"
        },
        {
          "internalType": "address",
          "name": "operator",
          "type": "address"
        }
      ],
      "name": "isApprovedForAll",
      "outputs": [
        {
          "internalType": "bool",
          "name": "",
          "type": "bool"
        }
      ],
      "stateMutability": "view",
      "type": "function"
    },
    {
      "inputs": [
        {
          "internalType": "bytes32[]",
          "name": "proof",
          "type": "bytes32[]"
        }
      ],
      "name": "loyalMint",
      "outputs": [],
      "stateMutability": "nonpayable",
      "type": "function"
    },
    {
      "inputs": [
        {
          "internalType": "bytes32[]",
          "name": "proof",
          "type": "bytes32[]"
        },
        {
          "internalType": "address",
          "name": "leaf",
          "type": "address"
        }
      ],
      "name": "loyalMintLeaf",
      "outputs": [],
      "stateMutability": "nonpayable",
      "type": "function"
    },
    {
      "inputs": [],
      "name": "loyaltyRoot",
      "outputs": [
        {
          "internalType": "bytes32",
          "name": "",
          "type": "bytes32"
        }
      ],
      "stateMutability": "view",
      "type": "function"
    },
    {
      "inputs": [],
      "name": "mint",
      "outputs": [],
      "stateMutability": "payable",
      "type": "function"
    },
    {
      "inputs": [],
      "name": "name",
      "outputs": [
        {
          "internalType": "string",
          "name": "",
          "type": "string"
        }
      ],
      "stateMutability": "view",
      "type": "function"
    },
    {
      "inputs": [],
      "name": "owner",
      "outputs": [
        {
          "internalType": "address",
          "name": "",
          "type": "address"
        }
      ],
      "stateMutability": "view",
      "type": "function"
    },
    {
      "inputs": [
        {
          "internalType": "uint256",
          "name": "tokenId",
          "type": "uint256"
        }
      ],
      "name": "ownerOf",
      "outputs": [
        {
          "internalType": "address",
          "name": "",
          "type": "address"
        }
      ],
      "stateMutability": "view",
      "type": "function"
    },
    {
      "inputs": [],
      "name": "recipient",
      "outputs": [
        {
          "internalType": "address payable",
          "name": "",
          "type": "address"
        }
      ],
      "stateMutability": "view",
      "type": "function"
    },
    {
      "inputs": [
        {
          "internalType": "address",
          "name": "from",
          "type": "address"
        },
        {
          "internalType": "address",
          "name": "to",
          "type": "address"
        },
        {
          "internalType": "uint256",
          "name": "tokenId",
          "type": "uint256"
        }
      ],
      "name": "safeTransferFrom",
      "outputs": [],
      "stateMutability": "nonpayable",
      "type": "function"
    },
    {
      "inputs": [
        {
          "internalType": "address",
          "name": "from",
          "type": "address"
        },
        {
          "internalType": "address",
          "name": "to",
          "type": "address"
        },
        {
          "internalType": "uint256",
          "name": "tokenId",
          "type": "uint256"
        },
        {
          "internalType": "bytes",
          "name": "_data",
          "type": "bytes"
        }
      ],
      "name": "safeTransferFrom",
      "outputs": [],
      "stateMutability": "nonpayable",
      "type": "function"
    },
    {
      "inputs": [
        {
          "internalType": "address",
          "name": "operator",
          "type": "address"
        },
        {
          "internalType": "bool",
          "name": "approved",
          "type": "bool"
        }
      ],
      "name": "setApprovalForAll",
      "outputs": [],
      "stateMutability": "nonpayable",
      "type": "function"
    },
    {
      "inputs": [],
      "name": "startDate",
      "outputs": [
        {
          "internalType": "uint256",
          "name": "",
          "type": "uint256"
        }
      ],
      "stateMutability": "view",
      "type": "function"
    },
    {
      "inputs": [
        {
          "internalType": "bytes4",
          "name": "interfaceId",
          "type": "bytes4"
        }
      ],
      "name": "supportsInterface",
      "outputs": [
        {
          "internalType": "bool",
          "name": "",
          "type": "bool"
        }
      ],
      "stateMutability": "view",
      "type": "function"
    },
    {
      "inputs": [],
      "name": "symbol",
      "outputs": [
        {
          "internalType": "string",
          "name": "",
          "type": "string"
        }
      ],
      "stateMutability": "view",
      "type": "function"
    },
    {
      "inputs": [
        {
          "internalType": "uint256",
          "name": "tokenId",
          "type": "uint256"
        }
      ],
      "name": "tokenURI",
      "outputs": [
        {
          "internalType": "string",
          "name": "",
          "type": "string"
        }
      ],
      "stateMutability": "view",
      "type": "function"
    },
    {
      "inputs": [
        {
          "internalType": "address",
          "name": "from",
          "type": "address"
        },
        {
          "internalType": "address",
          "name": "to",
          "type": "address"
        },
        {
          "internalType": "uint256",
          "name": "tokenId",
          "type": "uint256"
        }
      ],
      "name": "transferFrom",
      "outputs": [],
      "stateMutability": "nonpayable",
      "type": "function"
    },
    {
      "inputs": [],
      "name": "withdrawETH",
      "outputs": [],
      "stateMutability": "nonpayable",
      "type": "function"
    }
  ],
  "bytecode": "0x608060405273af69610ea9ddc95883f97a6a3171d52165b69b03600660006101000a81548173ffffffffffffffffffffffffffffffffffffffff021916908373ffffffffffffffffffffffffffffffffffffffff1602179055503480156200006657600080fd5b506040516200a87e3803806200a87e83398181016040528101906200008c919062000885565b86868160009080519060200190620000a69291906200050a565b508060019080519060200190620000bf9291906200050a565b50505084600760006101000a81548173ffffffffffffffffffffffffffffffffffffffff021916908373ffffffffffffffffffffffffffffffffffffffff16021790555083600860006101000a81548173ffffffffffffffffffffffffffffffffffffffff021916908373ffffffffffffffffffffffffffffffffffffffff1602179055508260098190555081600a8190555060405162000160906200059b565b604051809103906000f0801580156200017d573d6000803e3d6000fd5b50600b60006101000a81548173ffffffffffffffffffffffffffffffffffffffff021916908373ffffffffffffffffffffffffffffffffffffffff16021790555080600d81905550620001f8600660009054906101000a900473ffffffffffffffffffffffffffffffffffffffff166200027f60201b60201c565b6001600c6000600660009054906101000a900473ffffffffffffffffffffffffffffffffffffffff1673ffffffffffffffffffffffffffffffffffffffff1673ffffffffffffffffffffffffffffffffffffffff16815260200190815260200160002060006101000a81548160ff0219169083151502179055505050505050505062000c01565b6000428260405160200162000296929190620009eb565b6040516020818303038152906040528051906020012060001c9050620002c88282620002cc60201b620015d01760201c565b5050565b600073ffffffffffffffffffffffffffffffffffffffff168273ffffffffffffffffffffffffffffffffffffffff1614156200033f576040517f08c379a0000000000000000000000000000000000000000000000000000000008152600401620003369062000a7c565b60405180910390fd5b62000350816200049e60201b60201c565b1562000393576040517f08c379a00000000000000000000000000000000000000000000000000000000081526004016200038a9062000aee565b60405180910390fd5b6001600360008473ffffffffffffffffffffffffffffffffffffffff1673ffffffffffffffffffffffffffffffffffffffff1681526020019081526020016000206000828254620003e5919062000b3f565b92505081905550816002600083815260200190815260200160002060006101000a81548173ffffffffffffffffffffffffffffffffffffffff021916908373ffffffffffffffffffffffffffffffffffffffff160217905550808273ffffffffffffffffffffffffffffffffffffffff16600073ffffffffffffffffffffffffffffffffffffffff167fddf252ad1be2c89b69c2b068fc378daa952ba7f163c4a11628f55a4df523b3ef60405160405180910390a45050565b60008073ffffffffffffffffffffffffffffffffffffffff166002600084815260200190815260200160002060009054906101000a900473ffffffffffffffffffffffffffffffffffffffff1673ffffffffffffffffffffffffffffffffffffffff1614159050919050565b828054620005189062000bcb565b90600052602060002090601f0160209004810192826200053c576000855562000588565b82601f106200055757805160ff191683800117855562000588565b8280016001018555821562000588579182015b82811115620005875782518255916020019190600101906200056a565b5b509050620005979190620005a9565b5090565b615f57806200492783390190565b5b80821115620005c4576000816000905550600101620005aa565b5090565b6000604051905090565b600080fd5b600080fd5b600080fd5b600080fd5b6000601f19601f8301169050919050565b7f4e487b7100000000000000000000000000000000000000000000000000000000600052604160045260246000fd5b6200063182620005e6565b810181811067ffffffffffffffff82111715620006535762000652620005f7565b5b80604052505050565b600062000668620005c8565b905062000676828262000626565b919050565b600067ffffffffffffffff821115620006995762000698620005f7565b5b620006a482620005e6565b9050602081019050919050565b60005b83811015620006d1578082015181840152602081019050620006b4565b83811115620006e1576000848401525b50505050565b6000620006fe620006f8846200067b565b6200065c565b9050828152602081018484840111156200071d576200071c620005e1565b5b6200072a848285620006b1565b509392505050565b600082601f8301126200074a5762000749620005dc565b5b81516200075c848260208601620006e7565b91505092915050565b600073ffffffffffffffffffffffffffffffffffffffff82169050919050565b6000620007928262000765565b9050919050565b620007a48162000785565b8114620007b057600080fd5b50565b600081519050620007c48162000799565b92915050565b6000620007d78262000765565b9050919050565b620007e981620007ca565b8114620007f557600080fd5b50565b6000815190506200080981620007de565b92915050565b6000819050919050565b62000824816200080f565b81146200083057600080fd5b50565b600081519050620008448162000819565b92915050565b6000819050919050565b6200085f816200084a565b81146200086b57600080fd5b50565b6000815190506200087f8162000854565b92915050565b600080600080600080600060e0888a031215620008a757620008a6620005d2565b5b600088015167ffffffffffffffff811115620008c857620008c7620005d7565b5b620008d68a828b0162000732565b975050602088015167ffffffffffffffff811115620008fa57620008f9620005d7565b5b620009088a828b0162000732565b96505060406200091b8a828b01620007b3565b95505060606200092e8a828b01620007f8565b9450506080620009418a828b0162000833565b93505060a0620009548a828b0162000833565b92505060c0620009678a828b016200086e565b91505092959891949750929550565b6000819050919050565b620009956200098f826200080f565b62000976565b82525050565b60008160601b9050919050565b6000620009b5826200099b565b9050919050565b6000620009c982620009a8565b9050919050565b620009e5620009df8262000785565b620009bc565b82525050565b6000620009f9828562000980565b60208201915062000a0b8284620009d0565b6014820191508190509392505050565b600082825260208201905092915050565b7f4552433732313a206d696e7420746f20746865207a65726f2061646472657373600082015250565b600062000a6460208362000a1b565b915062000a718262000a2c565b602082019050919050565b6000602082019050818103600083015262000a978162000a55565b9050919050565b7f4552433732313a20746f6b656e20616c7265616479206d696e74656400000000600082015250565b600062000ad6601c8362000a1b565b915062000ae38262000a9e565b602082019050919050565b6000602082019050818103600083015262000b098162000ac7565b9050919050565b7f4e487b7100000000000000000000000000000000000000000000000000000000600052601160045260246000fd5b600062000b4c826200080f565b915062000b59836200080f565b9250827fffffffffffffffffffffffffffffffffffffffffffffffffffffffffffffffff0382111562000b915762000b9062000b10565b5b828201905092915050565b7f4e487b7100000000000000000000000000000000000000000000000000000000600052602260045260246000fd5b6000600282049050600182168062000be457607f821691505b6020821081141562000bfb5762000bfa62000b9c565b5b50919050565b613d168062000c116000396000f3fe6080604052600436106101b75760003560e01c806370a08231116100ec578063aba048b41161008a578063c87b56dd11610064578063c87b56dd14610613578063c884ef8314610650578063e086e5ec1461068d578063e985e9c5146106a4576101b7565b8063aba048b414610596578063b88d4fde146105bf578063c24a0f8b146105e8576101b7565b8063913e77ad116100c6578063913e77ad146104da57806395d89b4114610505578063a22cb46514610530578063a48b3b8f14610559576101b7565b806370a082311461043557806379b92f27146104725780638da5cb5b146104af576101b7565b8063303e74df116101595780634b44d812116101335780634b44d812146103655780636352211e146103a257806366d003ac146103df5780636d9ec4941461040a576101b7565b8063303e74df146102e8578063423d79391461031357806342842e0e1461033c576101b7565b8063095ea7b311610195578063095ea7b3146102615780630b97bc861461028a5780631249c58b146102b557806323b872dd146102bf576101b7565b806301ffc9a7146101bc57806306fdde03146101f9578063081812fc14610224575b600080fd5b3480156101c857600080fd5b506101e360048036038101906101de91906122b0565b6106e1565b6040516101f091906122f8565b60405180910390f35b34801561020557600080fd5b5061020e6107c3565b60405161021b91906123ac565b60405180910390f35b34801561023057600080fd5b5061024b60048036038101906102469190612404565b610855565b6040516102589190612472565b60405180910390f35b34801561026d57600080fd5b50610288600480360381019061028391906124b9565b6108da565b005b34801561029657600080fd5b5061029f6109e4565b6040516102ac9190612508565b60405180910390f35b6102bd6109ea565b005b3480156102cb57600080fd5b506102e660048036038101906102e19190612523565b610a3f565b005b3480156102f457600080fd5b506102fd610a98565b60405161030a91906125d5565b60405180910390f35b34801561031f57600080fd5b5061033a60048036038101906103359190612655565b610abe565b005b34801561034857600080fd5b50610363600480360381019061035e9190612523565b610c70565b005b34801561037157600080fd5b5061038c60048036038101906103879190612404565b610c90565b60405161039991906123ac565b60405180910390f35b3480156103ae57600080fd5b506103c960048036038101906103c49190612404565b610d49565b6040516103d69190612472565b60405180910390f35b3480156103eb57600080fd5b506103f4610dfb565b60405161040191906126d6565b60405180910390f35b34801561041657600080fd5b5061041f610e21565b60405161042c919061270a565b60405180910390f35b34801561044157600080fd5b5061045c60048036038101906104579190612725565b610e27565b6040516104699190612508565b60405180910390f35b34801561047e57600080fd5b5061049960048036038101906104949190612404565b610edf565b6040516104a691906123ac565b60405180910390f35b3480156104bb57600080fd5b506104c4610f98565b6040516104d19190612472565b60405180910390f35b3480156104e657600080fd5b506104ef610fbe565b6040516104fc9190612472565b60405180910390f35b34801561051157600080fd5b5061051a610fe4565b60405161052791906123ac565b60405180910390f35b34801561053c57600080fd5b506105576004803603810190610552919061277e565b611076565b005b34801561056557600080fd5b50610580600480360381019061057b9190612404565b6111e2565b60405161058d91906123ac565b60405180910390f35b3480156105a257600080fd5b506105bd60048036038101906105b891906127be565b611202565b005b3480156105cb57600080fd5b506105e660048036038101906105e1919061293b565b611211565b005b3480156105f457600080fd5b506105fd61126c565b60405161060a9190612508565b60405180910390f35b34801561061f57600080fd5b5061063a60048036038101906106359190612404565b611272565b60405161064791906123ac565b60405180910390f35b34801561065c57600080fd5b5061067760048036038101906106729190612725565b6113ff565b60405161068491906122f8565b60405180910390f35b34801561069957600080fd5b506106a261141f565b005b3480156106b057600080fd5b506106cb60048036038101906106c691906129be565b61153c565b6040516106d891906122f8565b60405180910390f35b60007f80ac58cd000000000000000000000000000000000000000000000000000000007bffffffffffffffffffffffffffffffffffffffffffffffffffffffff1916827bffffffffffffffffffffffffffffffffffffffffffffffffffffffff191614806107ac57507f5b5e139f000000000000000000000000000000000000000000000000000000007bffffffffffffffffffffffffffffffffffffffffffffffffffffffff1916827bffffffffffffffffffffffffffffffffffffffffffffffffffffffff1916145b806107bc57506107bb82611792565b5b9050919050565b6060600080546107d290612a2d565b80601f01602080910402602001604051908101604052809291908181526020018280546107fe90612a2d565b801561084b5780601f106108205761010080835404028352916020019161084b565b820191906000526020600020905b81548152906001019060200180831161082e57829003601f168201915b5050505050905090565b6000610860826117fc565b61089f576040517f08c379a000000000000000000000000000000000000000000000000000000000815260040161089690612ad1565b60405180910390fd5b6004600083815260200190815260200160002060009054906101000a900473ffffffffffffffffffffffffffffffffffffffff169050919050565b60006108e582610d49565b90508073ffffffffffffffffffffffffffffffffffffffff168373ffffffffffffffffffffffffffffffffffffffff161415610956576040517f08c379a000000000000000000000000000000000000000000000000000000000815260040161094d90612b63565b60405180910390fd5b8073ffffffffffffffffffffffffffffffffffffffff163373ffffffffffffffffffffffffffffffffffffffff1614806109965750610995813361153c565b5b6109d5576040517f08c379a00000000000000000000000000000000000000000000000000000000081526004016109cc90612bf5565b60405180910390fd5b6109df8383611868565b505050565b60095481565b667c585087238000341015610a34576040517f08c379a0000000000000000000000000000000000000000000000000000000008152600401610a2b90612c61565b60405180910390fd5b610a3d33611921565b565b610a4933826119b5565b610a88576040517f08c379a0000000000000000000000000000000000000000000000000000000008152600401610a7f90612cf3565b60405180910390fd5b610a93838383611a93565b505050565b600b60009054906101000a900473ffffffffffffffffffffffffffffffffffffffff1681565b60001515600c60008373ffffffffffffffffffffffffffffffffffffffff1673ffffffffffffffffffffffffffffffffffffffff16815260200190815260200160002060009054906101000a900460ff16151514610b51576040517f08c379a0000000000000000000000000000000000000000000000000000000008152600401610b4890612d5f565b60405180910390fd5b6001600c60008373ffffffffffffffffffffffffffffffffffffffff1673ffffffffffffffffffffffffffffffffffffffff16815260200190815260200160002060006101000a81548160ff021916908315150217905550600081604051602001610bbc9190612dc7565b604051602081830303815290604052805190602001209050610c22848480806020026020016040519081016040528093929190818152602001838360200280828437600081840152601f19601f82011690508083019250505050505050600d5483611ce4565b610c61576040517f08c379a0000000000000000000000000000000000000000000000000000000008152600401610c5890612e2e565b60405180910390fd5b610c6a82611921565b50505050565b610c8b83838360405180602001604052806000815250611211565b505050565b6060600b60009054906101000a900473ffffffffffffffffffffffffffffffffffffffff1673ffffffffffffffffffffffffffffffffffffffff16634b44d812836040518263ffffffff1660e01b8152600401610ced9190612508565b60006040518083038186803b158015610d0557600080fd5b505afa158015610d19573d6000803e3d6000fd5b505050506040513d6000823e3d601f19601f82011682018060405250810190610d429190612eef565b9050919050565b6000806002600084815260200190815260200160002060009054906101000a900473ffffffffffffffffffffffffffffffffffffffff169050600073ffffffffffffffffffffffffffffffffffffffff168173ffffffffffffffffffffffffffffffffffffffff161415610df2576040517f08c379a0000000000000000000000000000000000000000000000000000000008152600401610de990612faa565b60405180910390fd5b80915050919050565b600860009054906101000a900473ffffffffffffffffffffffffffffffffffffffff1681565b600d5481565b60008073ffffffffffffffffffffffffffffffffffffffff168273ffffffffffffffffffffffffffffffffffffffff161415610e98576040517f08c379a0000000000000000000000000000000000000000000000000000000008152600401610e8f9061303c565b60405180910390fd5b600360008373ffffffffffffffffffffffffffffffffffffffff1673ffffffffffffffffffffffffffffffffffffffff168152602001908152602001600020549050919050565b6060600b60009054906101000a900473ffffffffffffffffffffffffffffffffffffffff1673ffffffffffffffffffffffffffffffffffffffff166379b92f27836040518263ffffffff1660e01b8152600401610f3c9190612508565b60006040518083038186803b158015610f5457600080fd5b505afa158015610f68573d6000803e3d6000fd5b505050506040513d6000823e3d601f19601f82011682018060405250810190610f919190612eef565b9050919050565b600660009054906101000a900473ffffffffffffffffffffffffffffffffffffffff1681565b600760009054906101000a900473ffffffffffffffffffffffffffffffffffffffff1681565b606060018054610ff390612a2d565b80601f016020809104026020016040519081016040528092919081815260200182805461101f90612a2d565b801561106c5780601f106110415761010080835404028352916020019161106c565b820191906000526020600020905b81548152906001019060200180831161104f57829003601f168201915b5050505050905090565b3373ffffffffffffffffffffffffffffffffffffffff168273ffffffffffffffffffffffffffffffffffffffff1614156110e5576040517f08c379a00000000000000000000000000000000000000000000000000000000081526004016110dc906130a8565b60405180910390fd5b80600560003373ffffffffffffffffffffffffffffffffffffffff1673ffffffffffffffffffffffffffffffffffffffff16815260200190815260200160002060008473ffffffffffffffffffffffffffffffffffffffff1673ffffffffffffffffffffffffffffffffffffffff16815260200190815260200160002060006101000a81548160ff0219169083151502179055508173ffffffffffffffffffffffffffffffffffffffff163373ffffffffffffffffffffffffffffffffffffffff167f17307eab39ab6107e8899845ad3d59bd9653f200f220920489ca2b5937696c31836040516111d691906122f8565b60405180910390a35050565b606060006111ef83610c90565b90506111fa81611cfb565b915050919050565b61120d828233610abe565b5050565b61121b33836119b5565b61125a576040517f08c379a000000000000000000000000000000000000000000000000000000000815260040161125190612cf3565b60405180910390fd5b61126684848484611e80565b50505050565b600a5481565b606061127d826117fc565b6112bc576040517f08c379a00000000000000000000000000000000000000000000000000000000081526004016112b39061313a565b60405180910390fd5b6000600b60009054906101000a900473ffffffffffffffffffffffffffffffffffffffff1673ffffffffffffffffffffffffffffffffffffffff1663192a0a1f846040518263ffffffff1660e01b81526004016113199190612508565b60006040518083038186803b15801561133157600080fd5b505afa158015611345573d6000803e3d6000fd5b505050506040513d6000823e3d601f19601f8201168201806040525081019061136e9190612eef565b90506000604051806080016040528060428152602001613c5f6042913990506000611398856111e2565b905060006113a586610edf565b90506113d5848484846040516020016113c1949392919061335e565b604051602081830303815290604052611cfb565b6040516020016113e5919061342a565b604051602081830303815290604052945050505050919050565b600c6020528060005260406000206000915054906101000a900460ff1681565b600760009054906101000a900473ffffffffffffffffffffffffffffffffffffffff1673ffffffffffffffffffffffffffffffffffffffff163373ffffffffffffffffffffffffffffffffffffffff16146114af576040517f08c379a00000000000000000000000000000000000000000000000000000000081526004016114a690613498565b60405180910390fd5b600860009054906101000a900473ffffffffffffffffffffffffffffffffffffffff1673ffffffffffffffffffffffffffffffffffffffff16476040516114f5906134e9565b60006040518083038185875af1925050503d8060008114611532576040519150601f19603f3d011682016040523d82523d6000602084013e611537565b606091505b505050565b6000600560008473ffffffffffffffffffffffffffffffffffffffff1673ffffffffffffffffffffffffffffffffffffffff16815260200190815260200160002060008373ffffffffffffffffffffffffffffffffffffffff1673ffffffffffffffffffffffffffffffffffffffff16815260200190815260200160002060009054906101000a900460ff16905092915050565b600073ffffffffffffffffffffffffffffffffffffffff168273ffffffffffffffffffffffffffffffffffffffff161415611640576040517f08c379a00000000000000000000000000000000000000000000000000000000081526004016116379061354a565b60405180910390fd5b611649816117fc565b15611689576040517f08c379a0000000000000000000000000000000000000000000000000000000008152600401611680906135b6565b60405180910390fd5b6001600360008473ffffffffffffffffffffffffffffffffffffffff1673ffffffffffffffffffffffffffffffffffffffff16815260200190815260200160002060008282546116d99190613605565b92505081905550816002600083815260200190815260200160002060006101000a81548173ffffffffffffffffffffffffffffffffffffffff021916908373ffffffffffffffffffffffffffffffffffffffff160217905550808273ffffffffffffffffffffffffffffffffffffffff16600073ffffffffffffffffffffffffffffffffffffffff167fddf252ad1be2c89b69c2b068fc378daa952ba7f163c4a11628f55a4df523b3ef60405160405180910390a45050565b60007f01ffc9a7000000000000000000000000000000000000000000000000000000007bffffffffffffffffffffffffffffffffffffffffffffffffffffffff1916827bffffffffffffffffffffffffffffffffffffffffffffffffffffffff1916149050919050565b60008073ffffffffffffffffffffffffffffffffffffffff166002600084815260200190815260200160002060009054906101000a900473ffffffffffffffffffffffffffffffffffffffff1673ffffffffffffffffffffffffffffffffffffffff1614159050919050565b816004600083815260200190815260200160002060006101000a81548173ffffffffffffffffffffffffffffffffffffffff021916908373ffffffffffffffffffffffffffffffffffffffff160217905550808273ffffffffffffffffffffffffffffffffffffffff166118db83610d49565b73ffffffffffffffffffffffffffffffffffffffff167f8c5be1e5ebec7d5bd14f71427d1e84f3dd0314c0f7b2291e5b200ac8c7c3b92560405160405180910390a45050565b6009544211611965576040517f08c379a000000000000000000000000000000000000000000000000000000000815260040161195c906136a7565b60405180910390fd5b600a5442106119a9576040517f08c379a00000000000000000000000000000000000000000000000000000000081526004016119a090613713565b60405180910390fd5b6119b281611edc565b50565b60006119c0826117fc565b6119ff576040517f08c379a00000000000000000000000000000000000000000000000000000000081526004016119f6906137a5565b60405180910390fd5b6000611a0a83610d49565b90508073ffffffffffffffffffffffffffffffffffffffff168473ffffffffffffffffffffffffffffffffffffffff161480611a7957508373ffffffffffffffffffffffffffffffffffffffff16611a6184610855565b73ffffffffffffffffffffffffffffffffffffffff16145b80611a8a5750611a89818561153c565b5b91505092915050565b8273ffffffffffffffffffffffffffffffffffffffff16611ab382610d49565b73ffffffffffffffffffffffffffffffffffffffff1614611b09576040517f08c379a0000000000000000000000000000000000000000000000000000000008152600401611b0090613837565b60405180910390fd5b600073ffffffffffffffffffffffffffffffffffffffff168273ffffffffffffffffffffffffffffffffffffffff161415611b79576040517f08c379a0000000000000000000000000000000000000000000000000000000008152600401611b70906138c9565b60405180910390fd5b611b84600082611868565b6001600360008573ffffffffffffffffffffffffffffffffffffffff1673ffffffffffffffffffffffffffffffffffffffff1681526020019081526020016000206000828254611bd491906138e9565b925050819055506001600360008473ffffffffffffffffffffffffffffffffffffffff1673ffffffffffffffffffffffffffffffffffffffff1681526020019081526020016000206000828254611c2b9190613605565b92505081905550816002600083815260200190815260200160002060006101000a81548173ffffffffffffffffffffffffffffffffffffffff021916908373ffffffffffffffffffffffffffffffffffffffff160217905550808273ffffffffffffffffffffffffffffffffffffffff168473ffffffffffffffffffffffffffffffffffffffff167fddf252ad1be2c89b69c2b068fc378daa952ba7f163c4a11628f55a4df523b3ef60405160405180910390a4505050565b600082611cf18584611f1a565b1490509392505050565b6060600082511415611d1e57604051806020016040528060008152509050611e7b565b6000604051806060016040528060408152602001613ca16040913990506000600360028551611d4d9190613605565b611d57919061394c565b6004611d63919061397d565b90506000602082611d749190613605565b67ffffffffffffffff811115611d8d57611d8c612810565b5b6040519080825280601f01601f191660200182016040528015611dbf5781602001600182028036833780820191505090505b509050818152600183018586518101602084015b81831015611e3a576003830192508251603f8160121c1685015160f81b8252600182019150603f81600c1c1685015160f81b8252600182019150603f8160061c1685015160f81b8252600182019150603f811685015160f81b825260018201915050611dd3565b600389510660018114611e545760028114611e6457611e6f565b613d3d60f01b6002830352611e6f565b603d60f81b60018303525b50505050508093505050505b919050565b611e8b848484611a93565b611e9784848484611fdf565b611ed6576040517f08c379a0000000000000000000000000000000000000000000000000000000008152600401611ecd90613a49565b60405180910390fd5b50505050565b60004282604051602001611ef1929190613a8a565b6040516020818303038152906040528051906020012060001c9050611f1682826115d0565b5050565b60008082905060005b8451811015611fd4576000858281518110611f4157611f40613ab6565b5b60200260200101519050611f548361216f565b611f5d8161216f565b808311611f94578281604051602001611f77929190613b06565b604051602081830303815290604052805190602001209250611fc0565b8083604051602001611fa7929190613b06565b6040516020818303038152906040528051906020012092505b508080611fcc90613b32565b915050611f23565b508091505092915050565b60006120008473ffffffffffffffffffffffffffffffffffffffff16612208565b15612162578373ffffffffffffffffffffffffffffffffffffffff1663150b7a02338786866040518563ffffffff1660e01b81526004016120449493929190613bd0565b602060405180830381600087803b15801561205e57600080fd5b505af192505050801561208f57506040513d601f19601f8201168201806040525081019061208c9190613c31565b60015b612112573d80600081146120bf576040519150601f19603f3d011682016040523d82523d6000602084013e6120c4565b606091505b5060008151141561210a576040517f08c379a000000000000000000000000000000000000000000000000000000000815260040161210190613a49565b60405180910390fd5b805181602001fd5b63150b7a0260e01b7bffffffffffffffffffffffffffffffffffffffffffffffffffffffff1916817bffffffffffffffffffffffffffffffffffffffffffffffffffffffff191614915050612167565b600190505b949350505050565b61220581604051602401612183919061270a565b6040516020818303038152906040527f27b7cf85000000000000000000000000000000000000000000000000000000007bffffffffffffffffffffffffffffffffffffffffffffffffffffffff19166020820180517bffffffffffffffffffffffffffffffffffffffffffffffffffffffff838183161783525050505061221b565b50565b600080823b905060008111915050919050565b60008151905060006a636f6e736f6c652e6c6f679050602083016000808483855afa5050505050565b6000604051905090565b600080fd5b600080fd5b60007fffffffff0000000000000000000000000000000000000000000000000000000082169050919050565b61228d81612258565b811461229857600080fd5b50565b6000813590506122aa81612284565b92915050565b6000602082840312156122c6576122c561224e565b5b60006122d48482850161229b565b91505092915050565b60008115159050919050565b6122f2816122dd565b82525050565b600060208201905061230d60008301846122e9565b92915050565b600081519050919050565b600082825260208201905092915050565b60005b8381101561234d578082015181840152602081019050612332565b8381111561235c576000848401525b50505050565b6000601f19601f8301169050919050565b600061237e82612313565b612388818561231e565b935061239881856020860161232f565b6123a181612362565b840191505092915050565b600060208201905081810360008301526123c68184612373565b905092915050565b6000819050919050565b6123e1816123ce565b81146123ec57600080fd5b50565b6000813590506123fe816123d8565b92915050565b60006020828403121561241a5761241961224e565b5b6000612428848285016123ef565b91505092915050565b600073ffffffffffffffffffffffffffffffffffffffff82169050919050565b600061245c82612431565b9050919050565b61246c81612451565b82525050565b60006020820190506124876000830184612463565b92915050565b61249681612451565b81146124a157600080fd5b50565b6000813590506124b38161248d565b92915050565b600080604083850312156124d0576124cf61224e565b5b60006124de858286016124a4565b92505060206124ef858286016123ef565b9150509250929050565b612502816123ce565b82525050565b600060208201905061251d60008301846124f9565b92915050565b60008060006060848603121561253c5761253b61224e565b5b600061254a868287016124a4565b935050602061255b868287016124a4565b925050604061256c868287016123ef565b9150509250925092565b6000819050919050565b600061259b61259661259184612431565b612576565b612431565b9050919050565b60006125ad82612580565b9050919050565b60006125bf826125a2565b9050919050565b6125cf816125b4565b82525050565b60006020820190506125ea60008301846125c6565b92915050565b600080fd5b600080fd5b600080fd5b60008083601f840112612615576126146125f0565b5b8235905067ffffffffffffffff811115612632576126316125f5565b5b60208301915083602082028301111561264e5761264d6125fa565b5b9250929050565b60008060006040848603121561266e5761266d61224e565b5b600084013567ffffffffffffffff81111561268c5761268b612253565b5b612698868287016125ff565b935093505060206126ab868287016124a4565b9150509250925092565b60006126c082612431565b9050919050565b6126d0816126b5565b82525050565b60006020820190506126eb60008301846126c7565b92915050565b6000819050919050565b612704816126f1565b82525050565b600060208201905061271f60008301846126fb565b92915050565b60006020828403121561273b5761273a61224e565b5b6000612749848285016124a4565b91505092915050565b61275b816122dd565b811461276657600080fd5b50565b60008135905061277881612752565b92915050565b600080604083850312156127955761279461224e565b5b60006127a3858286016124a4565b92505060206127b485828601612769565b9150509250929050565b600080602083850312156127d5576127d461224e565b5b600083013567ffffffffffffffff8111156127f3576127f2612253565b5b6127ff858286016125ff565b92509250509250929050565b600080fd5b7f4e487b7100000000000000000000000000000000000000000000000000000000600052604160045260246000fd5b61284882612362565b810181811067ffffffffffffffff8211171561286757612866612810565b5b80604052505050565b600061287a612244565b9050612886828261283f565b919050565b600067ffffffffffffffff8211156128a6576128a5612810565b5b6128af82612362565b9050602081019050919050565b82818337600083830152505050565b60006128de6128d98461288b565b612870565b9050828152602081018484840111156128fa576128f961280b565b5b6129058482856128bc565b509392505050565b600082601f830112612922576129216125f0565b5b81356129328482602086016128cb565b91505092915050565b600080600080608085870312156129555761295461224e565b5b6000612963878288016124a4565b9450506020612974878288016124a4565b9350506040612985878288016123ef565b925050606085013567ffffffffffffffff8111156129a6576129a5612253565b5b6129b28782880161290d565b91505092959194509250565b600080604083850312156129d5576129d461224e565b5b60006129e3858286016124a4565b92505060206129f4858286016124a4565b9150509250929050565b7f4e487b7100000000000000000000000000000000000000000000000000000000600052602260045260246000fd5b60006002820490506001821680612a4557607f821691505b60208210811415612a5957612a586129fe565b5b50919050565b7f4552433732313a20617070726f76656420717565727920666f72206e6f6e657860008201527f697374656e7420746f6b656e0000000000000000000000000000000000000000602082015250565b6000612abb602c8361231e565b9150612ac682612a5f565b604082019050919050565b60006020820190508181036000830152612aea81612aae565b9050919050565b7f4552433732313a20617070726f76616c20746f2063757272656e74206f776e6560008201527f7200000000000000000000000000000000000000000000000000000000000000602082015250565b6000612b4d60218361231e565b9150612b5882612af1565b604082019050919050565b60006020820190508181036000830152612b7c81612b40565b9050919050565b7f4552433732313a20617070726f76652063616c6c6572206973206e6f74206f7760008201527f6e6572206e6f7220617070726f76656420666f7220616c6c0000000000000000602082015250565b6000612bdf60388361231e565b9150612bea82612b83565b604082019050919050565b60006020820190508181036000830152612c0e81612bd2565b9050919050565b7f4d4f524520455448204e45454445440000000000000000000000000000000000600082015250565b6000612c4b600f8361231e565b9150612c5682612c15565b602082019050919050565b60006020820190508181036000830152612c7a81612c3e565b9050919050565b7f4552433732313a207472616e736665722063616c6c6572206973206e6f74206f60008201527f776e6572206e6f7220617070726f766564000000000000000000000000000000602082015250565b6000612cdd60318361231e565b9150612ce882612c81565b604082019050919050565b60006020820190508181036000830152612d0c81612cd0565b9050919050565b7f416c726561647920636c61696d65640000000000000000000000000000000000600082015250565b6000612d49600f8361231e565b9150612d5482612d13565b602082019050919050565b60006020820190508181036000830152612d7881612d3c565b9050919050565b60008160601b9050919050565b6000612d9782612d7f565b9050919050565b6000612da982612d8c565b9050919050565b612dc1612dbc82612451565b612d9e565b82525050565b6000612dd38284612db0565b60148201915081905092915050565b7f496e76616c69642050726f6f6600000000000000000000000000000000000000600082015250565b6000612e18600d8361231e565b9150612e2382612de2565b602082019050919050565b60006020820190508181036000830152612e4781612e0b565b9050919050565b600067ffffffffffffffff821115612e6957612e68612810565b5b612e7282612362565b9050602081019050919050565b6000612e92612e8d84612e4e565b612870565b905082815260208101848484011115612eae57612ead61280b565b5b612eb984828561232f565b509392505050565b600082601f830112612ed657612ed56125f0565b5b8151612ee6848260208601612e7f565b91505092915050565b600060208284031215612f0557612f0461224e565b5b600082015167ffffffffffffffff811115612f2357612f22612253565b5b612f2f84828501612ec1565b91505092915050565b7f4552433732313a206f776e657220717565727920666f72206e6f6e657869737460008201527f656e7420746f6b656e0000000000000000000000000000000000000000000000602082015250565b6000612f9460298361231e565b9150612f9f82612f38565b604082019050919050565b60006020820190508181036000830152612fc381612f87565b9050919050565b7f4552433732313a2062616c616e636520717565727920666f7220746865207a6560008201527f726f206164647265737300000000000000000000000000000000000000000000602082015250565b6000613026602a8361231e565b915061303182612fca565b604082019050919050565b6000602082019050818103600083015261305581613019565b9050919050565b7f4552433732313a20617070726f766520746f2063616c6c657200000000000000600082015250565b600061309260198361231e565b915061309d8261305c565b602082019050919050565b600060208201905081810360008301526130c181613085565b9050919050565b7f4552433732314d657461646174613a2055524920717565727920666f72206e6f60008201527f6e6578697374656e7420746f6b656e0000000000000000000000000000000000602082015250565b6000613124602f8361231e565b915061312f826130c8565b604082019050919050565b6000602082019050818103600083015261315381613117565b9050919050565b600081905092915050565b7f7b226e616d65223a220000000000000000000000000000000000000000000000600082015250565b600061319b60098361315a565b91506131a682613165565b600982019050919050565b60006131bc82612313565b6131c6818561315a565b93506131d681856020860161232f565b80840191505092915050565b7f222c20226465736372697074696f6e223a220000000000000000000000000000600082015250565b600061321860128361315a565b9150613223826131e2565b601282019050919050565b7f222c2022696d616765223a202200000000000000000000000000000000000000600082015250565b6000613264600d8361315a565b915061326f8261322e565b600d82019050919050565b7f646174613a696d6167652f7376672b786d6c3b6261736536342c000000000000600082015250565b60006132b0601a8361315a565b91506132bb8261327a565b601a82019050919050565b7f222c000000000000000000000000000000000000000000000000000000000000600082015250565b60006132fc60028361315a565b9150613307826132c6565b600282019050919050565b7f7d00000000000000000000000000000000000000000000000000000000000000600082015250565b600061334860018361315a565b915061335382613312565b600182019050919050565b60006133698261318e565b915061337582876131b1565b91506133808261320b565b915061338c82866131b1565b915061339782613257565b91506133a2826132a3565b91506133ae82856131b1565b91506133b9826132ef565b91506133c582846131b1565b91506133d08261333b565b915081905095945050505050565b7f646174613a6170706c69636174696f6e2f6a736f6e3b6261736536342c000000600082015250565b6000613414601d8361315a565b915061341f826133de565b601d82019050919050565b600061343582613407565b915061344182846131b1565b915081905092915050565b7f4e4f545f434f4c4c4543544f5200000000000000000000000000000000000000600082015250565b6000613482600d8361231e565b915061348d8261344c565b602082019050919050565b600060208201905081810360008301526134b181613475565b9050919050565b600081905092915050565b50565b60006134d36000836134b8565b91506134de826134c3565b600082019050919050565b60006134f4826134c6565b9150819050919050565b7f4552433732313a206d696e7420746f20746865207a65726f2061646472657373600082015250565b600061353460208361231e565b915061353f826134fe565b602082019050919050565b6000602082019050818103600083015261356381613527565b9050919050565b7f4552433732313a20746f6b656e20616c7265616479206d696e74656400000000600082015250565b60006135a0601c8361231e565b91506135ab8261356a565b602082019050919050565b600060208201905081810360008301526135cf81613593565b9050919050565b7f4e487b7100000000000000000000000000000000000000000000000000000000600052601160045260246000fd5b6000613610826123ce565b915061361b836123ce565b9250827fffffffffffffffffffffffffffffffffffffffffffffffffffffffffffffffff038211156136505761364f6135d6565b5b828201905092915050565b7f4e4f545f53544152544544000000000000000000000000000000000000000000600082015250565b6000613691600b8361231e565b915061369c8261365b565b602082019050919050565b600060208201905081810360008301526136c081613684565b9050919050565b7f454e444544000000000000000000000000000000000000000000000000000000600082015250565b60006136fd60058361231e565b9150613708826136c7565b602082019050919050565b6000602082019050818103600083015261372c816136f0565b9050919050565b7f4552433732313a206f70657261746f7220717565727920666f72206e6f6e657860008201527f697374656e7420746f6b656e0000000000000000000000000000000000000000602082015250565b600061378f602c8361231e565b915061379a82613733565b604082019050919050565b600060208201905081810360008301526137be81613782565b9050919050565b7f4552433732313a207472616e73666572206f6620746f6b656e2074686174206960008201527f73206e6f74206f776e0000000000000000000000000000000000000000000000602082015250565b600061382160298361231e565b915061382c826137c5565b604082019050919050565b6000602082019050818103600083015261385081613814565b9050919050565b7f4552433732313a207472616e7366657220746f20746865207a65726f2061646460008201527f7265737300000000000000000000000000000000000000000000000000000000602082015250565b60006138b360248361231e565b91506138be82613857565b604082019050919050565b600060208201905081810360008301526138e2816138a6565b9050919050565b60006138f4826123ce565b91506138ff836123ce565b925082821015613912576139116135d6565b5b828203905092915050565b7f4e487b7100000000000000000000000000000000000000000000000000000000600052601260045260246000fd5b6000613957826123ce565b9150613962836123ce565b9250826139725761397161391d565b5b828204905092915050565b6000613988826123ce565b9150613993836123ce565b9250817fffffffffffffffffffffffffffffffffffffffffffffffffffffffffffffffff04831182151516156139cc576139cb6135d6565b5b828202905092915050565b7f4552433732313a207472616e7366657220746f206e6f6e20455243373231526560008201527f63656976657220696d706c656d656e7465720000000000000000000000000000602082015250565b6000613a3360328361231e565b9150613a3e826139d7565b604082019050919050565b60006020820190508181036000830152613a6281613a26565b9050919050565b6000819050919050565b613a84613a7f826123ce565b613a69565b82525050565b6000613a968285613a73565b602082019150613aa68284612db0565b6014820191508190509392505050565b7f4e487b7100000000000000000000000000000000000000000000000000000000600052603260045260246000fd5b6000819050919050565b613b00613afb826126f1565b613ae5565b82525050565b6000613b128285613aef565b602082019150613b228284613aef565b6020820191508190509392505050565b6000613b3d826123ce565b91507fffffffffffffffffffffffffffffffffffffffffffffffffffffffffffffffff821415613b7057613b6f6135d6565b5b600182019050919050565b600081519050919050565b600082825260208201905092915050565b6000613ba282613b7b565b613bac8185613b86565b9350613bbc81856020860161232f565b613bc581612362565b840191505092915050565b6000608082019050613be56000830187612463565b613bf26020830186612463565b613bff60408301856124f9565b8181036060830152613c118184613b97565b905095945050505050565b600081519050613c2b81612284565b92915050565b600060208284031215613c4757613c4661224e565b5b6000613c5584828501613c1c565b9150509291505056fe436572616d6963206265696e677320776974682073696d756c6174656420736f756c7320636f6c6c656374656420627920746865204d61727469616e2c204e79782e4142434445464748494a4b4c4d4e4f505152535455565758595a6162636465666768696a6b6c6d6e6f707172737475767778797a303132333435363738392b2fa2646970667358221220b5109713a1a6a2364fc323c12d8ebc9b39200d37a37996039e707a48e367a2d264736f6c63430008090033608060405234801561001057600080fd5b50615f37806100206000396000f3fe608060405234801561001057600080fd5b50600436106100ea5760003560e01c806388de3fb21161008c578063cde0e4b711610066578063cde0e4b7146102cf578063d05e3b8c146102ff578063d0f206491461032f578063dcaf635d1461035f576100ea565b806388de3fb21461023f5780639adf953d1461026f5780639c0415241461029f576100ea565b80632822b87d116100c85780632822b87d1461017f5780634b44d812146101af57806379b92f27146101df57806388c9f4ec1461020f576100ea565b80631381a846146100ef578063192a0a1f1461011f578063245283b71461014f575b600080fd5b610109600480360381019061010491906118bf565b61038f565b6040516101169190611998565b60405180910390f35b610139600480360381019061013491906119ba565b610478565b6040516101469190611998565b60405180910390f35b61016960048036038101906101649190611b1c565b6104b5565b6040516101769190611998565b60405180910390f35b61019960048036038101906101949190611b1c565b6106ca565b6040516101a69190611998565b60405180910390f35b6101c960048036038101906101c491906119ba565b610784565b6040516101d69190611998565b60405180910390f35b6101f960048036038101906101f491906119ba565b610b16565b6040516102069190611998565b60405180910390f35b61022960048036038101906102249190611b1c565b610e5c565b6040516102369190611998565b60405180910390f35b61025960048036038101906102549190611c06565b610fc4565b6040516102669190611998565b60405180910390f35b61028960048036038101906102849190611b1c565b610fed565b6040516102969190611998565b60405180910390f35b6102b960048036038101906102b49190611b1c565b6110ea565b6040516102c69190611998565b60405180910390f35b6102e960048036038101906102e49190611b1c565b6112ff565b6040516102f69190611998565b60405180910390f35b61031960048036038101906103149190611c4f565b611431565b6040516103269190611998565b60405180910390f35b61034960048036038101906103449190611cf6565b611460565b6040516103569190611998565b60405180910390f35b61037960048036038101906103749190611d52565b611536565b6040516103869190611998565b60405180910390f35b606060018214156103c9576103a383611562565b6040516020016103b39190611e52565b6040516020818303038152906040529050610472565b6002821415610401576103db83611562565b6040516020016103eb9190611ec0565b6040516020818303038152906040529050610472565b60038214156104395761041383611562565b6040516020016104239190611f2e565b6040516020818303038152906040529050610472565b60048214156104715761044b83611562565b60405160200161045b9190611f9c565b6040516020818303038152906040529050610472565b5b92915050565b606061048f61048683611562565b600060086116c3565b60405160200161049f919061200a565b6040516020818303038152906040529050919050565b6060600061010060646104c98560006117bf565b60ff166104d6919061205b565b6104e091906120e4565b90506060600a82101561051057604051806101a0016040528061017f815260200161519e61017f913990506106a1565b601482101561053c57604051806101c001604052806101858152602001615d7d610185913990506106a0565b601e8210156105685760405180610140016040528061010d815260200161471561010d9139905061069f565b60288210156105945760405180610180016040528061014f8152602001615c2e61014f9139905061069e565b60328210156105c05760405180610160016040528061013981526020016142ed6101399139905061069d565b603c8210156105ec5760405180610180016040528061014f8152602001614e0161014f9139905061069c565b60468210156106185760405180610180016040528061014581526020016157716101459139905061069b565b605082101561064457604051806101a0016040528061016681526020016141876101669139905061069a565b605a8210156106705760405180610140016040528061010f815260200161531d61010f91399050610699565b6064821015610698576040518061016001604052806101308152602001613a43610130913990505b5b5b5b5b5b5b5b5b5b806040516020016106b291906121ad565b60405160208183030381529060405292505050919050565b6060600060406106db8460016117bf565b60ff166106e891906120e4565b905060006106f78460026117bf565b60ff16905061073a6040518060400160405280600481526020017f626c757200000000000000000000000000000000000000000000000000000000815250610fc4565b610751600560018561074c91906121da565b61038f565b61075a83611562565b60405160200161076c939291906125e6565b60405160208183030381529060405292505050919050565b606060008260001b60405160200161079c91906126a5565b604051602081830303815290604052905060006107ba8260006117bf565b60ff16905060006040518060400160405280600481526020017f6e6f6e65000000000000000000000000000000000000000000000000000000008152509050608082101561083b576040518060400160405280600581526020017f776869746500000000000000000000000000000000000000000000000000000081525090505b610844836104b5565b61084d846106ca565b610856856112ff565b61085f86610fed565b61086887610e5c565b6108dd6040518060400160405280600381526020017f302e3700000000000000000000000000000000000000000000000000000000008152506040518060400160405280600481526020017f626c75720000000000000000000000000000000000000000000000000000000081525088611431565b6109876040518060400160405280600381526020017f302e3500000000000000000000000000000000000000000000000000000000008152506040518060400160405280600581526020017f73746570730000000000000000000000000000000000000000000000000000008152506040518060400160405280600481526020017f6e6f6e6500000000000000000000000000000000000000000000000000000000815250611431565b610a316040518060400160405280600181526020017f31000000000000000000000000000000000000000000000000000000000000008152506040518060400160405280600581526020017f74757262310000000000000000000000000000000000000000000000000000008152506040518060400160405280600481526020017f6e6f6e6500000000000000000000000000000000000000000000000000000000815250611431565b610adb6040518060400160405280600381526020017f302e3700000000000000000000000000000000000000000000000000000000008152506040518060400160405280600581526020017f74757262320000000000000000000000000000000000000000000000000000008152506040518060400160405280600481526020017f6e6f6e6500000000000000000000000000000000000000000000000000000000815250611431565b610ae48c6110ea565b604051602001610afd9a99989796959493929190612888565b6040516020818303038152906040529350505050919050565b606060008260001b604051602001610b2e91906126a5565b604051602081830303815290604052905060006101006064610b518460006117bf565b60ff16610b5e919061205b565b610b6891906120e4565b905060006040518060600160405280602881526020016158b66028913990506000604051806020016040528060008152509050600a831015610bdd576040518060400160405280600b81526020017f2254797065204f6e65227d00000000000000000000000000000000000000000081525090505b6014831015610c1f576040518060400160405280600b81526020017f22547970652054776f227d00000000000000000000000000000000000000000081525090505b601e831015610c61576040518060400160405280600d81526020017f2254797065205468726565227d0000000000000000000000000000000000000081525090505b6028831015610ca3576040518060400160405280600c81526020017f225479706520466f7572227d000000000000000000000000000000000000000081525090505b6032831015610ce5576040518060400160405280600c81526020017f22547970652046697665227d000000000000000000000000000000000000000081525090505b603c831015610d27576040518060400160405280600b81526020017f225479706520536978227d00000000000000000000000000000000000000000081525090505b6046831015610d69576040518060400160405280600d81526020017f225479706520536576656e227d0000000000000000000000000000000000000081525090505b6050831015610dab576040518060400160405280600d81526020017f2254797065204569676874227d0000000000000000000000000000000000000081525090505b605a831015610ded576040518060400160405280600c81526020017f2254797065204e696e65227d000000000000000000000000000000000000000081525090505b6064831015610e2f576040518060400160405280600b81526020017f22547970652054656e227d00000000000000000000000000000000000000000081525090505b8181604051602001610e429291906129d8565b604051602081830303815290604052945050505050919050565b606060006040610e6d8460056117bf565b60ff16610e7a91906120e4565b90506000600a6101006064610e9087600f6117bf565b60ff16610e9d919061205b565b610ea791906120e4565b610eb191906120e4565b6001610ebd91906121da565b90506000610ecc8560066117bf565b60ff1690506000610ede866007611460565b90506000610eed876008611460565b90506000610efc886009611460565b905060006040610f0d8a600a6117bf565b60ff16610f1a91906120e4565b6001610f2691906121da565b9050610f666040518060400160405280600581526020017f7475726232000000000000000000000000000000000000000000000000000000815250610fc4565b610f7c8760018a610f7791906121da565b61038f565b610f8587611562565b868686610f9187611562565b604051602001610fa79796959493929190612c4c565b604051602081830303815290604052975050505050505050919050565b606081604051602001610fd79190612de3565b6040516020818303038152906040529050919050565b606060006080610ffe8460036117bf565b60ff1661100b91906120e4565b90506000600a610100606461102187600c6117bf565b60ff1661102e919061205b565b61103891906120e4565b61104291906120e4565b600161104e91906121da565b9050600061105d8560046117bf565b60ff1690506110a06040518060400160405280600581526020017f7475726231000000000000000000000000000000000000000000000000000000815250610fc4565b6110b6836002866110b191906121da565b61038f565b6110bf83611562565b6040516020016110d193929190612e10565b6040516020818303038152906040529350505050919050565b6060600061010060646110fe8560006117bf565b60ff1661110b919061205b565b61111591906120e4565b90506060600a82101561114557604051806102c001604052806102868152602001613521610286913990506112d6565b6014821015611171576040518061030001604052806102d58152602001614b2c6102d5913990506112d5565b601e82101561119d57604051806102c0016040528061029c81526020016137a761029c913990506112d4565b60288210156111c9576040518061032001604052806102ef81526020016144266102ef913990506112d3565b60328210156111f55760405180610340016040528061030a815260200161482261030a913990506112d2565b603c82101561122157604051806103800160405280610345815260200161542c610345913990506112d1565b604682101561124d5760405180610380016040528061035081526020016158de610350913990506112d0565b60508210156112795760405180610340016040528061030f8152602001613e7861030f913990506112cf565b605a8210156112a55760405180610280016040528061024e8152602001614f5061024e913990506112ce565b60648210156112cd576040518061034001604052806103058152602001613b73610305913990505b5b5b5b5b5b5b5b5b5b806040516020016112e79190612eb9565b60405160208183030381529060405292505050919050565b6060600060406113108460016117bf565b60ff1661131d91906120e4565b90506000600a61010060646113338760026117bf565b60ff16611340919061205b565b61134a91906120e4565b61135491906120e4565b600161136091906121da565b9050600061136f8560026117bf565b60ff169050600060026113838760026117bf565b60ff1661139091906120e4565b605061139c91906121da565b90506113dc6040518060400160405280600581526020017f7374657073000000000000000000000000000000000000000000000000000000815250610fc4565b6113f2846001876113ed91906121da565b61038f565b6113fb84611562565b61140484611562565b604051602001611417949392919061303c565b604051602081830303815290604052945050505050919050565b6060838383604051602001611448939291906131e7565b60405160208183030381529060405290509392505050565b60606000608061147085856117bf565b60ff1661147d91906120e4565b90506000610100606461149087876117bf565b60ff1661149d919061205b565b6114a791906120e4565b9050600060405180602001604052806000815250905060018314156114ff576040518060400160405280600181526020017f2d0000000000000000000000000000000000000000000000000000000000000081525090505b8061150b83600161038f565b60405160200161151c929190613244565b604051602081830303815290604052935050505092915050565b6060828260405160200161154b929190613326565b604051602081830303815290604052905092915050565b606060008214156115aa576040518060400160405280600181526020017f300000000000000000000000000000000000000000000000000000000000000081525090506116be565b600082905060005b600082146115dc5780806115c59061336b565b915050600a826115d591906120e4565b91506115b2565b60008167ffffffffffffffff8111156115f8576115f76119f1565b5b6040519080825280601f01601f19166020018201604052801561162a5781602001600182028036833780820191505090505b5090505b600085146116b75760018261164391906133b4565b9150600a8561165291906133e8565b603061165e91906121da565b60f81b81838151811061167457611673613419565b5b60200101907effffffffffffffffffffffffffffffffffffffffffffffffffffffffffffff1916908160001a905350600a856116b091906120e4565b945061162e565b8093505050505b919050565b60606000849050600084846116d891906133b4565b67ffffffffffffffff8111156116f1576116f06119f1565b5b6040519080825280601f01601f1916602001820160405280156117235781602001600182028036833780820191505090505b50905060008590505b848110156117b25782818151811061174757611746613419565b5b602001015160f81c60f81b82878361175f91906133b4565b815181106117705761176f613419565b5b60200101907effffffffffffffffffffffffffffffffffffffffffffffffffffffffffffff1916908160001a90535080806117aa9061336b565b91505061172c565b5080925050509392505050565b6000816001836117cf91906121da565b1015611810576040517f08c379a000000000000000000000000000000000000000000000000000000000815260040161180790613494565b60405180910390fd5b60018261181d91906121da565b83511015611860576040517f08c379a000000000000000000000000000000000000000000000000000000000815260040161185790613500565b60405180910390fd5b60008260018501015190508091505092915050565b6000604051905090565b600080fd5b600080fd5b6000819050919050565b61189c81611889565b81146118a757600080fd5b50565b6000813590506118b981611893565b92915050565b600080604083850312156118d6576118d561187f565b5b60006118e4858286016118aa565b92505060206118f5858286016118aa565b9150509250929050565b600081519050919050565b600082825260208201905092915050565b60005b8381101561193957808201518184015260208101905061191e565b83811115611948576000848401525b50505050565b6000601f19601f8301169050919050565b600061196a826118ff565b611974818561190a565b935061198481856020860161191b565b61198d8161194e565b840191505092915050565b600060208201905081810360008301526119b2818461195f565b905092915050565b6000602082840312156119d0576119cf61187f565b5b60006119de848285016118aa565b91505092915050565b600080fd5b600080fd5b7f4e487b7100000000000000000000000000000000000000000000000000000000600052604160045260246000fd5b611a298261194e565b810181811067ffffffffffffffff82111715611a4857611a476119f1565b5b80604052505050565b6000611a5b611875565b9050611a678282611a20565b919050565b600067ffffffffffffffff821115611a8757611a866119f1565b5b611a908261194e565b9050602081019050919050565b82818337600083830152505050565b6000611abf611aba84611a6c565b611a51565b905082815260208101848484011115611adb57611ada6119ec565b5b611ae6848285611a9d565b509392505050565b600082601f830112611b0357611b026119e7565b5b8135611b13848260208601611aac565b91505092915050565b600060208284031215611b3257611b3161187f565b5b600082013567ffffffffffffffff811115611b5057611b4f611884565b5b611b5c84828501611aee565b91505092915050565b600067ffffffffffffffff821115611b8057611b7f6119f1565b5b611b898261194e565b9050602081019050919050565b6000611ba9611ba484611b65565b611a51565b905082815260208101848484011115611bc557611bc46119ec565b5b611bd0848285611a9d565b509392505050565b600082601f830112611bed57611bec6119e7565b5b8135611bfd848260208601611b96565b91505092915050565b600060208284031215611c1c57611c1b61187f565b5b600082013567ffffffffffffffff811115611c3a57611c39611884565b5b611c4684828501611bd8565b91505092915050565b600080600060608486031215611c6857611c6761187f565b5b600084013567ffffffffffffffff811115611c8657611c85611884565b5b611c9286828701611bd8565b935050602084013567ffffffffffffffff811115611cb357611cb2611884565b5b611cbf86828701611bd8565b925050604084013567ffffffffffffffff811115611ce057611cdf611884565b5b611cec86828701611bd8565b9150509250925092565b60008060408385031215611d0d57611d0c61187f565b5b600083013567ffffffffffffffff811115611d2b57611d2a611884565b5b611d3785828601611aee565b9250506020611d48858286016118aa565b9150509250929050565b60008060408385031215611d6957611d6861187f565b5b600083013567ffffffffffffffff811115611d8757611d86611884565b5b611d9385828601611bd8565b925050602083013567ffffffffffffffff811115611db457611db3611884565b5b611dc085828601611bd8565b9150509250929050565b600081905092915050565b7f302e000000000000000000000000000000000000000000000000000000000000600082015250565b6000611e0b600283611dca565b9150611e1682611dd5565b600282019050919050565b6000611e2c826118ff565b611e368185611dca565b9350611e4681856020860161191b565b80840191505092915050565b6000611e5d82611dfe565b9150611e698284611e21565b915081905092915050565b7f302e300000000000000000000000000000000000000000000000000000000000600082015250565b6000611eaa600383611dca565b9150611eb582611e74565b600382019050919050565b6000611ecb82611e9d565b9150611ed78284611e21565b915081905092915050565b7f302e303000000000000000000000000000000000000000000000000000000000600082015250565b6000611f18600483611dca565b9150611f2382611ee2565b600482019050919050565b6000611f3982611f0b565b9150611f458284611e21565b915081905092915050565b7f302e303030000000000000000000000000000000000000000000000000000000600082015250565b6000611f86600583611dca565b9150611f9182611f50565b600582019050919050565b6000611fa782611f79565b9150611fb38284611e21565b915081905092915050565b7f4c6974746c65204d61727469616e202300000000000000000000000000000000600082015250565b6000611ff4601083611dca565b9150611fff82611fbe565b601082019050919050565b600061201582611fe7565b91506120218284611e21565b915081905092915050565b7f4e487b7100000000000000000000000000000000000000000000000000000000600052601160045260246000fd5b600061206682611889565b915061207183611889565b9250817fffffffffffffffffffffffffffffffffffffffffffffffffffffffffffffffff04831182151516156120aa576120a961202c565b5b828202905092915050565b7f4e487b7100000000000000000000000000000000000000000000000000000000600052601260045260246000fd5b60006120ef82611889565b91506120fa83611889565b92508261210a576121096120b5565b5b828204905092915050565b7f3c636c6970506174682069643d226d223e203c7061746820643d220000000000600082015250565b600061214b601b83611dca565b915061215682612115565b601b82019050919050565b7f222f3e3c2f636c6970506174683e000000000000000000000000000000000000600082015250565b6000612197600e83611dca565b91506121a282612161565b600e82019050919050565b60006121b88261213e565b91506121c48284611e21565b91506121cf8261218a565b915081905092915050565b60006121e582611889565b91506121f083611889565b9250827fffffffffffffffffffffffffffffffffffffffffffffffffffffffffffffffff038211156122255761222461202c565b5b828201905092915050565b7f3c666554757262756c656e636520626173654672657175656e63793d22000000600082015250565b6000612266601d83611dca565b915061227182612230565b601d82019050919050565b7f2220736565643d22000000000000000000000000000000000000000000000000600082015250565b60006122b2600883611dca565b91506122bd8261227c565b600882019050919050565b7f2220726573756c743d227475726273222f3e0000000000000000000000000000600082015250565b60006122fe601283611dca565b9150612309826122c8565b601282019050919050565b7f3c666553706563756c61724c69676874696e6720737572666163655363616c6560008201527f3d223230302220726573756c743d226f7574222073706563756c61724578706f60208201527f6e656e743d223230223e00000000000000000000000000000000000000000000604082015250565b6000612396604a83611dca565b91506123a182612314565b604a82019050919050565b7f3c6665506f696e744c6967687420783d223231362220793d22313722207a3d2260008201527f323030222f3e0000000000000000000000000000000000000000000000000000602082015250565b6000612408602683611dca565b9150612413826123ac565b602682019050919050565b7f3c2f666553706563756c61724c69676874696e673e0000000000000000000000600082015250565b6000612454601583611dca565b915061245f8261241e565b601582019050919050565b7f3c6665476175737369616e426c757220696e3d226f757422207374644465766960008201527f6174696f6e3d22342220726573756c743d22626c7572726564222f3e00000000602082015250565b60006124c6603c83611dca565b91506124d18261246a565b603c82019050919050565b7f3c6665436f6d706f7369746520696e3d22536f7572636547726170686963222060008201527f696e323d22626c757272656422206f70657261746f723d2261726974686d657460208201527f696322206b313d223022206b323d223122206b333d223122206b343d2230222f60408201527f3e00000000000000000000000000000000000000000000000000000000000000606082015250565b6000612584606183611dca565b915061258f826124dc565b606182019050919050565b7f3c2f66696c7465723e0000000000000000000000000000000000000000000000600082015250565b60006125d0600983611dca565b91506125db8261259a565b600982019050919050565b60006125f28286611e21565b91506125fd82612259565b91506126098285611e21565b9150612614826122a5565b91506126208284611e21565b915061262b826122f1565b915061263682612389565b9150612641826123fb565b915061264c82612447565b9150612657826124b9565b915061266282612577565b915061266d826125c3565b9150819050949350505050565b6000819050919050565b6000819050919050565b61269f61269a8261267a565b612684565b82525050565b60006126b1828461268e565b60208201915081905092915050565b7f3c7376672077696474683d2234383022206865696768743d223436302220766960008201527f6577426f783d2230203020343830203436302220786d6c6e733d22687474703a60208201527f2f2f7777772e77332e6f72672f323030302f737667223e000000000000000000604082015250565b6000612742605783611dca565b915061274d826126c0565b605782019050919050565b7f3c7374796c6520747970653d22746578742f637373223e2e637b66696c6c3a7760008201527f686974657d3c2f7374796c653e00000000000000000000000000000000000000602082015250565b60006127b4602d83611dca565b91506127bf82612758565b602d82019050919050565b7f3c726563742077696474683d2234383022206865696768743d2234363022206660008201527f696c6c3d22626c61636b222f3e00000000000000000000000000000000000000602082015250565b6000612826602d83611dca565b9150612831826127ca565b602d82019050919050565b7f3c2f7376673e0000000000000000000000000000000000000000000000000000600082015250565b6000612872600683611dca565b915061287d8261283c565b600682019050919050565b600061289382612735565b915061289e826127a7565b91506128a982612819565b91506128b5828d611e21565b91506128c1828c611e21565b91506128cd828b611e21565b91506128d9828a611e21565b91506128e58289611e21565b91506128f18288611e21565b91506128fd8287611e21565b91506129098286611e21565b91506129158285611e21565b91506129218284611e21565b915061292c82612865565b91508190509b9a5050505050505050505050565b7f2261747472696275746573223a205b0000000000000000000000000000000000600082015250565b6000612976600f83611dca565b915061298182612940565b600f82019050919050565b7f5d00000000000000000000000000000000000000000000000000000000000000600082015250565b60006129c2600183611dca565b91506129cd8261298c565b600182019050919050565b60006129e382612969565b91506129ef8285611e21565b91506129fb8284611e21565b9150612a06826129b5565b91508190509392505050565b7f3c6665436f6d706f6e656e745472616e7366657220726573756c743d2277617660008201527f65223e0000000000000000000000000000000000000000000000000000000000602082015250565b6000612a6e602383611dca565b9150612a7982612a12565b602382019050919050565b7f3c666546756e635220747970653d2267616d6d6122206f66667365743d220000600082015250565b6000612aba601e83611dca565b9150612ac582612a84565b601e82019050919050565b7f222f3e0000000000000000000000000000000000000000000000000000000000600082015250565b6000612b06600383611dca565b9150612b1182612ad0565b600382019050919050565b7f3c666546756e634720747970653d2267616d6d6122206f66667365743d220000600082015250565b6000612b52601e83611dca565b9150612b5d82612b1c565b601e82019050919050565b7f3c666546756e634220747970653d2267616d6d6122206f66667365743d220000600082015250565b6000612b9e601e83611dca565b9150612ba982612b68565b601e82019050919050565b7f3c666546756e634120747970653d226c696e6561722220736c6f70653d220000600082015250565b6000612bea601e83611dca565b9150612bf582612bb4565b601e82019050919050565b7f3c2f6665436f6d706f6e656e745472616e736665723e00000000000000000000600082015250565b6000612c36601683611dca565b9150612c4182612c00565b601682019050919050565b6000612c58828a611e21565b9150612c6382612259565b9150612c6f8289611e21565b9150612c7a826122a5565b9150612c868288611e21565b9150612c91826122f1565b9150612c9c82612a61565b9150612ca782612aad565b9150612cb38287611e21565b9150612cbe82612af9565b9150612cc982612b45565b9150612cd58286611e21565b9150612ce082612af9565b9150612ceb82612b91565b9150612cf78285611e21565b9150612d0282612af9565b9150612d0d82612bdd565b9150612d198284611e21565b9150612d2482612af9565b9150612d2f82612c29565b9150612d3a826125c3565b915081905098975050505050505050565b7f3c66696c7465722069643d220000000000000000000000000000000000000000600082015250565b6000612d81600c83611dca565b9150612d8c82612d4b565b600c82019050919050565b7f222077696474683d223130302522206865696768743d2231303025223e000000600082015250565b6000612dcd601d83611dca565b9150612dd882612d97565b601d82019050919050565b6000612dee82612d74565b9150612dfa8284611e21565b9150612e0582612dc0565b915081905092915050565b6000612e1c8286611e21565b9150612e2782612259565b9150612e338285611e21565b9150612e3e826122a5565b9150612e4a8284611e21565b9150612e55826122f1565b9150612e60826125c3565b9150819050949350505050565b7f3c7061746820636c6173733d22632220643d2200000000000000000000000000600082015250565b6000612ea3601383611dca565b9150612eae82612e6d565b601382019050919050565b6000612ec482612e96565b9150612ed08284611e21565b9150612edb82612af9565b915081905092915050565b7f3c666553706563756c61724c69676874696e6720737572666163655363616c6560008201527f3d22000000000000000000000000000000000000000000000000000000000000602082015250565b6000612f42602283611dca565b9150612f4d82612ee6565b602282019050919050565b7f2220726573756c743d22737065634f7574222073706563756c61724578706f6e60008201527f656e743d223230223e0000000000000000000000000000000000000000000000602082015250565b6000612fb4602983611dca565b9150612fbf82612f58565b602982019050919050565b7f3c6665506f696e744c6967687420783d223231302220793d22313722207a3d2260008201527f323030222f3e0000000000000000000000000000000000000000000000000000602082015250565b6000613026602683611dca565b915061303182612fca565b602682019050919050565b60006130488287611e21565b915061305382612259565b915061305f8286611e21565b915061306a826122a5565b91506130768285611e21565b9150613081826122f1565b915061308c82612f35565b91506130988284611e21565b91506130a382612fa7565b91506130ae82613019565b91506130b982612447565b91506130c482612577565b91506130cf826125c3565b915081905095945050505050565b7f3c726563742077696474683d223130302522206865696768743d22323030252260008201527f20636c69702d706174683d2275726c28236d2922206f7061636974793d220000602082015250565b6000613139603e83611dca565b9150613144826130dd565b603e82019050919050565b7f222066696c7465723d2275726c28230000000000000000000000000000000000600082015250565b6000613185600f83611dca565b91506131908261314f565b600f82019050919050565b7f29222066696c6c3d220000000000000000000000000000000000000000000000600082015250565b60006131d1600983611dca565b91506131dc8261319b565b600982019050919050565b60006131f28261312c565b91506131fe8286611e21565b915061320982613178565b91506132158285611e21565b9150613220826131c4565b915061322c8284611e21565b915061323782612af9565b9150819050949350505050565b60006132508285611e21565b915061325c8284611e21565b91508190509392505050565b7f3c666554757262756c656e636520747970653d2274757262756c656e6365222060008201527f736565643d220000000000000000000000000000000000000000000000000000602082015250565b60006132c4602683611dca565b91506132cf82613268565b602682019050919050565b7f2220626173654672657175656e63793d22000000000000000000000000000000600082015250565b6000613310601183611dca565b915061331b826132da565b601182019050919050565b6000613331826132b7565b915061333d8285611e21565b915061334882613303565b91506133548284611e21565b915061335f826122f1565b91508190509392505050565b600061337682611889565b91507fffffffffffffffffffffffffffffffffffffffffffffffffffffffffffffffff8214156133a9576133a861202c565b5b600182019050919050565b60006133bf82611889565b91506133ca83611889565b9250828210156133dd576133dc61202c565b5b828203905092915050565b60006133f382611889565b91506133fe83611889565b92508261340e5761340d6120b5565b5b828206905092915050565b7f4e487b7100000000000000000000000000000000000000000000000000000000600052603260045260246000fd5b7f746f55696e74385f6f766572666c6f7700000000000000000000000000000000600082015250565b600061347e60108361190a565b915061348982613448565b602082019050919050565b600060208201905081810360008301526134ad81613471565b9050919050565b7f746f55696e74385f6f75744f66426f756e647300000000000000000000000000600082015250565b60006134ea60138361190a565b91506134f5826134b4565b602082019050919050565b60006020820190508181036000830152613519816134dd565b905091905056fe4d3138322032323363302d332d342d352d372d362d352d312d3820312d313420332d313220342d313920322d3139203473382036203137203663313120312032332d332032332d377a4d3233352032323763302d3220392d352031342d367331312d322031382d31633720322031362037203135203130203020332d3920332d313020342d3720302d31302d322d31382d342d31322d332d31382d312d31392d337a204d32343120333030633020322d3320332d3420332d313320362d313020382d32312031322d3720332d313520352d323520342d3420302d31322d312d31382d372d362d352d31302d31342d31302d31342031332d392031362d31352031362d31356c332d3663342d313020322d313120352d31396c352d3131762d3263362d313620332d333120332d33312d312d332d332d31342d31302d31396c2d322d3261333920333920302030302d31352d35632d322d312d392d322d313620302d3820312d313120342d313320332d312d3120312d3820362d313220382d372032302d342032372d32203520312031322032203139203861343020343020302030313134203331763139632d322031322d322031382d362032366c2d35203130632d31322032312d31342032352d31322032392031203620372039203820313020313120342032332d342032342d3520392d3620392d31332031352d313420362030203132203520313220397a204d3137342033333863312d3220332d312032372d3268313463342032203620342039203373322d3520352d3763342d3320372d312031342031203132203220313720302031382031203120342d31352031342d33322031392d3820332d313620352d323520342d31372d332d33312d31352d33302d31397a4d31353220323035733235203130203337203163332d322d352d392d382d31312d372d332d31302d362d31342d352d313220322d31372031322d31352031357a4d32363520323134632d322d3220362d392031372d313420352d3220392d322031312d322031332030203231203132203231203132203020332d3920342d313020342d3820322d372d332d31352d342d31332d322d323220362d323420347a4d31393120323839632d3320312d3620382d33203133733130203620313420396332203120362034203135203420362d3120362d342031332d366c31342d3463372d322031302d332031302d38732d352d392d352d39203220372d31203132632d3320342d313120322d313920352d313120352d3820362d313820352d3720302d31372d342d32312d382d332d3320312d313320312d31337a4d31383420333531632d3120312031302031312032362031366c313320326333203020313020302031382d3520362d332031322d392031312d3131732d3820312d32312034632d3820322d313720332d323620322d31332d322d32312d392d32312d387a4d32353220313735633120312031302d31302032352d31322031332d3320323620322032382033203720332031322037203133203620312d322d342d392d31312d31342d31342d392d33322d322d33342d312d313420362d32312031372d32312031387a4d31343420313638633120322031342d31322033302d3130203138203220313720313320323620392030203020312d332d342d372d31312d352d31352d31312d33342d342d313120342d32302031302d31382031327a4d3231332032313563312d35203320323720322033386c2d35203138632d3120342d3520352d35203520322d3420342d3620362d313620322d313720312d343020322d34357a4d313934203135632d313820322d323020302d343520342d323920342d333120362d34372031322d3220322d32352031322d33352033352d3420392d352031372d352032322d35203636203234203133362032342031333620323120343920333220343120343820383520362031362031312033342032372035322031302031312031392031362033362032372033352032322035342033352037392033302031352d332032372d31322033312d313520332d332031372d31342032352d333420392d323420322d333720352d37366c362d343263362d343320392d353220342d36372d342d31322d372d31302d31342d33302d362d31342d362d31392d31312d33366c2d31342d3334632d31302d32302d31382d33372d33342d35302d33322d32352d37342d32302d38302d31397a4d33313320313238633020312d31342d362d33312d3161343620343620302030302d33302035326330203320342039203130203230203130203138203131203137203135203236203920313820372032302031342033302032203320313020372031322031366c31203163322031302d382032312d313020323361363020363020302030312d3335203138632d313220332d323720362d33362d322d372d362d392d31362d372d313720322d3220362032203133203620313620362033322032203338203120392d332031382d352032332d313420302d3120352d313020312d31376c2d31392d3339632d352d31302d33312d34332d33322d36312d312d352d322d313220352d323520312d3320392d32302032382d32352032312d36203430203620343020387a204d3332382031373263312d332d352d392d31322d31302d332d312d382d332d323020312d3820332d313320382d31352031312d3520352d392031302d372031322032203120382d382031392d313020372d31203820322031382031203320302031362d312031372d357a4d31393820323031632d312d362d31312d31312d31382d392d3720312d3620372d31362031342d3920362d313420342d32302031312d3220332d3620392d342031312032203320382d312032362d362031332d332031372d332032332d3820332d322031302d3720392d31337a4d31393720313536632d3120322d31322d362d33312d352d313420312d323520372d323720382d313120362d31362031332d31382031312d322d3120302d313220372d313820352d3520392d332032342d372031332d352031332d372031392d3720313520302032382031352032362031387a4d3332322033313573332031382d33203238632d3520392d31322031332d31362031352d3420332d313520392d333120392d313020302d31302d342d33312d386c2d31362d3463302d332031312d342032372d31342031302d362031332d372032302d372036203020382033203132203120342d3120342d3520392d396c31322d366331332d322031342d372031372d357a4d3131382031353263302d3220382d332031352d3420392d31203133203020313520312035203120372034203720352032203120342034203420386c2d352037732d322d372d372d3130632d342d332d3720312d31362d312d362d312d31342d342d31332d367a204d313433203130336331203120382d332031372d3320323420312032352032382032352033392d3120313120302031382d382032352d3920382d3720332d31382031382d3620372d362031312d31322031382d3520372d32392032332d33352033322d3320352d3420392d342031352d31203132203138203136203232203230203920372031312031322032302031342037203320313420352032312d3120352d3420372d313020352d31322d322d332d31322031322d323220392d372d32203020302d31372d31342d31312d392d31372d362d32302d31372d322d313120372d31382032312d32382031322d382031322d31312031362d313520372d313020362d31332031332d323220392d31312032352d31312032352d333820302d31302d322d31382d332d32352d312d392d372d31342d31312d31392d352d352d31342d392d32322d37732d313420392d31332031317a4d3233302031393963312d3320352d3620392d37203220302031322d332032312030203130203320313220382031372031342037203920322032322035203234203220312d372d372d31362d31332d372d352d362d342d31372d382d392d352d31392d342d31392d31307a4d33303020313634732d332d31302d31342d3138632d332d322d31332d31302d32362d31302d313720302d32372031312d323920392d312d3220372d31342031392d31382031342d34203235203320323820342031382031302032332033332032322033337a4d31363420333332633120342d31322031302d32352031312d3320302d313220302d32312d352d382d342d31322d31302d31342d31342d342d362d362d31392d362d31396c3132203220313520356334203720362037203620372032203220342d31203820302034203020362032203920342031302038203136203720313620397a4d313734203335632d3820382d372031332d32322033302d31312031332d31352031342d31392032322d362031332d322031382d382033336c2d3135203234632d32302032392d32322033332d32342033396c2d35203239632d322031372d312032302d322034316c2d352034352d32203335633120313320322033392032312035382038203920313720313320323220313520313520362032382036203336203620313820302033302d342034342d392031362d352032352d382033352d31367331302d31322032352d33336331332d31362032302d32362033312d33362031382d31372032352d31352033392d333220392d31302031342d32302031372d323520362d313420382d32332031342d34332031322d34332031332d33382031352d343820332d33302d392d35342d31372d36392d352d31312d32302d33392d35312d35392d392d362d33352d32332d37312d32332d313620302d343120302d35382031367a4d31343720343363362d362031342d31342032372d31382031352d362033302d342034392d31613132392031323920302030313933203532633820313320313520333520313520353720302031372d362032342d37203532763235632d3120362d322031362d31352035346c2d3130203239632d352032302d31312032372d31342033392d372032332d31342033362d32312034332d32322032342d34372033322d35332033342d313220342d32332d312d33322d352d31302d352d392d362d32332d32332d31322d31352d31332d31322d32302d32332d31302d31332d31312d32322d31382d34392d31302d34302d31362d33372d31382d35392d322d323520382d323420362d353520302d32302d312d323420312d343420312d313020332d333420372d353320322d382031352d33362033332d35357a4d3135392032333963302d32203720302031342d346c342d3420362d3720352d3131733420362034203131633120372d352031362d3134203139732d31392d332d31392d347a4d32373020313939632d312d3220362d392031332d31326c31302d3363372d3520382d31322031302d3131203220302033203920302031352d3420352d3920372d313820392d3420312d313420342d313520327a4d313334203231386331203020332d392031332d31366c312d322031362d376331332d352031322d31322032312d313320372d3120313220312031322031732d382d362d31352d36632d3820302d3820332d32312031302d313020362d3920312d313520362d313020392d31332032372d31322032377a204d33303520313431732d31312d392d32332d36632d3320312d3520322d32312031386c2d3133203134632d3420362d31312031342d31322032362d3220313620372033302031372034356c3130203133203220322031302031306338203620313620392031372039203520322037203220372034203120322d3320352d3820392d31302031302d382031342d31342031386c2d32302032632d3820312d3820322d313220312d362d312d31352d352d31342d376c3134203363313420322032382d332032392d3420372d372031322d31342031332d313820312d362d31322d332d32362d31372d362d362d31322d31322d31372d32302d392d31332d31322d32342d31332d32372d342d31362d322d32382d322d333120312d313020352d31362031332d323420352d3520352d392031352d31377331302d31302031342d31326331352d36203334203820333420397a4d3234352033343573372d31312031352d313463342d3220352d312031342d3320372d322031302d332031342d366c382d3963362d3720362d3920392d313020332d3220392d362031312d34203220312032203320302031366c2d34203136632d3520382d31322031312d31382031342d3820332d313420342d313920342d3920312d33302d342d33302d347a4d31383820323163332d312034332031203630203420333320362037302034372037392036352032203520313720363020313720383120302031352d3420332d3420343420302032342d362034302d31362036312d392032362d372033342d3138203630613131332031313320302030312d3530203633632d313220372d32332031342d34302031332d31382d312d33332d31372d33372d32342d32312d33372d34312d36352d34352d37332d332d382d32312d33332d32352d36372d312d313220352d333720342d35362d312d32392d372d33392d342d353020382d323620362d31362031312d343220342d323020382d35322032362d36342031352d31322033322d31342034322d31357a4d313236203231366c372d3663332d3320362d342031302d3420392d312037203020313220316c34203273342034203220342d3820372d31352037632d313520312d32302d342d32302d347a204d313234203137326330203120362d352031322d362031332d3120323420322033332031316c3120316331302031312031302032352031302032386c2d342031382d36203238632d3120313420312032312d342032376c2d362036632d3520352d3820362d3820382030203420342036203520376c392036203920356334203120362d342031332d3673392032203138203063372d312031332d352031322d366c2d31372031632d313920312d313620352d323320362d313020302d31392d382d32302d31302d312d3620352d31302031302d313720342d3520342d313520352d323520332d323420342d323120372d333420332d313020332d313520322d32322d322d31372d322d32342d31372d33322d392d352d32332d392d33322d322d3520342d313020372d3920387a4d323334203231396c31302d3763342d3220392d312031332d31203420312039203120313620366c332035633420352039203320392034732d3420322d392032632d3420302d3720302d31322d322d362d312d31312d352d31372d362d31312d322d31332d312d31332d317a4d32393420313930633020312d342d362d31312d31312d382d352d31352d362d32352d362d31312d312d32312d312d323920356c2d352035632d312d3120312d3620352d3920372d372031392d362033322d34203130203120313620322032322036203820362031312031342031312031347a4d32333620333339633020342d313120362d32302031346c2d362034632d3320322d3620322d3720322d313320312d313820322d323320302d31302d332d392d322d31322d356c2d31302d372d392d36632d312d312d352d312d342d326c342d3263362d3320352d312031302d3320342d3220372d332031302d322035203020332032203820322034203120362d322031322d3320342d3120372d3120313720312031392033203239203520333020377a4d33323620323030632d3120312d392d362d32392d31322d32332d372d33322d352d33352d342d3320302d313120332d313820313061333820333820302030302d313020323663302036203220362035203138203120342034203136203520333120312031332d31203133203120323173352031312035203138632d3120322d3120382d352031332d372031302d32312031302d32322031302d313020302d392d352d32382d31322d392d332d32352d31312d32342d313820312d342031302d313220372d31326c38203133633620392031362031372032372031382037203120313920302032342d3720332d372d322d31322d362d333073302d31372d342d3438632d322d31332d342d31392d322d323820312d3520332d31342031312d323120362d352032312d31342034302d313120323820352035312032332035302032357a4d313331203137356331362d31342035312d382036302d33203320322030203120302030203020302d332d392d31382d31332d342d322d31392d322d333120372d3620342d3920362d313120397a4d3132352032313063322d352032302d352033332d332033203020313620302032322031316c31203663312038203320313020332031302d3420312d392d352d31372d38682d3136632d313320302d32372d31302d32362d31367a204d3235372032333663302d352031342d31302032362d31302031392031203336203134203334203137203020322d3320312d313320336c2d31382033632d313320302d32392d372d32392d31337a4d3135312033353563312d3220352032203135203420313120312032312d312032342d3120372d322031302d342031342d3220352032203520372039203773362d362031322d376c382032633131203420323020302032302031203120322d31302031332d33322032312d313020342d313420322d323020322d313120312d32302d322d32332d342d31372d372d32372d32332d32372d32337a4d313335203437632d362031302d31342032332d32322035322d322031312d342031392d352033382d312031312d362032302d31302033312d392032392d392032372d31312033392d312038203120333620342035356c3620323963342032352033203238203720343161323136203231362030203030323720353863313020313520313420323120323820323520362032203135203720323620362031302d312032352d332034322d313120322d322031312d362032342d313720392d382032382d32352034332d35342031342d323620382d33312032342d35352031312d31382031362d31382031392d333120362d313820322d313620362d343120342d313620312d333020312d343320312d31332d322d31352d322d333120302d32392d322d33352d352d34372d392d33342d35312d35392d38312d36382d34322d31342d3130312d372d3132312032347a4d3130332032303663322d3220372034203136203520313220312032322d322032322d32732d3320362d39203130632d3120312d313020362d313920322d372d342d31322d31332d31302d31357a204d31303620313634633020342033302d372034332031322038203131203720333620322034392d3320392d31312032302d31342033397631632d342032302d392032392d31302033302d3320332d362031302d36203138763263322038203820313220313020313461333120333120302030303139203763332030203920302031372d3320352d312031362d362031362d382d312d342d33362031372d35322d332d31302d313320352d32372031342d363620332d31312031362d33332031372d353320312d31392d322d32392d31352d33382d31372d31322d34312d352d34312d317a4d323631203234316c2d382d34632d362d342d31312d31352d32382d31312d3520312d313120372d3131203920302031203320332031322035203820322031322d332032312032203620332031342d312031342d317a4d32373720323035632d3120322d382d392d32312d31332d31312d322d323220302d323820326c2d31332033632d312d3120382d392032302d313220322d312031362d34203239203420313020362031342031352031332031367a4d31393520333730633120322d372031312d31392031332d3920332d313720302d32332d322d372d322d31362d352d31382d313220302d3220302d3620322d37733420342031312036633520322037203020313420316c39203363313220352032332d332032342d327a4d313839203439632d323320372d33352032342d34302033322d31322031362d31352033312d31372034312d3620323620312032392d322037332d312031332d322032312d31203335733420323620352033336c313420343220313120323820362031326331203320352031312031382032376c313320313563313420392032392036203331203520392d322031352d372032302d31312031302d382031352d31372032342d333520362d313020392d31362031312d323320362d313720322d323020382d333520362d31342031312d31332031342d323620322d3820312d313120342d323120332d3820352d3920352d313520302d372d322d382d342d31372d322d313120312d313320302d32372d322d31312d342d31322d332d313720322d3920382d31312031312d313920342d313020302d32312d322d32372d322d342d332d362d32322d33306c2d31362d3138632d342d332d31302d392d31392d31342d332d322d31332d372d32372d31302d382d312d32342d342d343220327a4d323233203137632d313120302d343220322d37322032332d33362032352d36332037332d35372031313120312038203520323220322034322d332031352d372031382d392033312d3320313320302032372036203533203520323020392033392031392036326c3132203234633820323120372032352031332033342032203320313220313720333020323120313520332032382d322034322d386c31392d31316134343320343433203020303036372d383163392d31362031362d32372032332d34336c31352d34386331312d33332031362d35302031372d363220332d323020352d33392d322d36312d31312d33372d34312d35362d35322d36332d392d372d33352d32342d37332d32347a4d3132302031363863302d342031332d352031382d356831336c31312d3263322032203020382d352031332d3720372d313920342d323120342d382d322d31372d372d31362d31307a204d31323220313236633120312031302d382032352d37203820302031342d3120313920312037203320313320392031372031356c332031326331203520312031312d322031396c2d31302032382d37203235632d342031342d31332032302d31362032352d3520382d3720372d392031342d3220332d3320382d312031332033203420332033203920366c31302037633420322037203420313120332033203020332d3220382d3320312d3120362d332031332d3220382032203920372031342037203620302031322d382031302d31302d312d322d3120362d313020352d31322d312d31322d362d32312d36732d313220332d31392032632d362d312d31382d362d31392d31322d312d312d322d3720352d31376c392d313363362d3720382d31312031322d323420352d313620312d313020352d32306c31332d333163322d3720312d31372d332d32372d342d382d362d31332d31322d31372d372d342d31372d31302d33302d382d313520322d32352031332d32342031357a4d3132382033313663322d332031322d322031372d326c39203273332035203720366334203220352d312031302d3120352d31203920302031342031203420312037203220313520376c32382031352d31372039632d313020332d313820332d323520332d31382d312d32392d372d33322d382d392d352d31352d31312d31372d31332d312d312d31332d31342d392d31397a4d3234312031393263302d3320362d362031312d3720362d322031322d312031342d31203720312031322034203136203720372034203131203820313420313173382038203720392d392d362d32332d3131632d382d332d31362d342d32312d352d31322d322d31372d312d31382d337a4d33313620313633732d332d31322d31332d32316c2d342d33632d322d322d372d392d31382d31326c2d31352d31632d3720302d313720362d3137203620322d3220322d352031332d3920362d322031342d332032342031203131203420313320362031392031312031312031312031322032372031312032387a4d393220373563372d31342031352d32312031372d3233613137392031373920302030313130342d323263313120312032382033203439203133203820342031392039203331203231203520332031352031342032342033316c3132203333203720313920313120333063352031372038203236203820333820302031342d342031362d31302034362d322031342d342032312d342032392d3220323620312033302d312035342d3120362d342031302d382031392d382031372d31332032362d32312033332d3920372d313820392d32372031312d3720312d333820382d36322d382d31302d362d31302d31312d32362d31396c2d31362d38732d31332d362d32342d3135632d362d342d31382d31362d33392d37316c2d31352d3435632d31312d32392d31352d33362d31372d3532762d343263312d343720302d353820372d37327a7b2274726169745f74797065223a2022436572616d6963205368656c6c222c202276616c7565223a4d33323920313830733420302d31312d346c2d31342d33632d3320302d313120312d313720362d3120302d3720352d36203720312031203620302031352d316c3137203163313120302031372d342031362d367a204d33323120313338732d31382d352d33312d32632d3420312d3920312d323020392d31332031302d31362031332d31372032332d3220392d3220313720322032352033203820302034203130203231203820313320313220313720313220323320312031302d332031332d312032322030203220332031342031302031356831633620312031332d312031342d3220342d3420322d313120332d3131203220302034203820302031352d3220342d3420342d31352031336c2d313320382d31372031632d313220302d313320342d313920332d382d322d31352d392d31352d313620302d3320362d3720342d37733120313620392031386337203120362d332031322d32203620302031332d312032302d3620322d3120362d3420362d3720322d372d322d31302d362d32302d332d3820332d313220312d32342d312d382d362d392d31322d32312d382d31362d31312d31372d31342d32372d312d332d332d323120322d333020332d3620322d392031322d313620372d352031322d382032302d31302031352d332031392d312032352d3120392031203137203620313720367a4d3139392031393363302d332d372d352d31322d342d3620312d3820352d313320392d3420342d313120382d3232203130203320322036203420313120342037203120313820302032372d3520382d342031302d313020392d31347a4d31393020313536632d3120312d322d312d352d33203020302d352d332d31322d342d31332d322d323520372d323820392d3920362d31322031332d3134203132732d312d3920342d313663382d31342032372d31342033302d313520352030203131203020313620342037203420313020313320392031337a4d3331392033323473312031312d33203136632d3220332d3620352d313720392d313520352d323320382d333320372d392d312d31352d342d32322d372d322d312d372d332d372d3520302d312031332035203235203020362d3320382d372031352d3768313063342d3120362d342031302d3720372d362032322d362032322d367a4d37312039337632316c312032346333203232203520323320392034386c32203133633420313220313320323020313520323320392038203231203330203435203734203920313820313320323620323220333620392038203136203133203237203230203138203132203435203238203738203332613537203537203020303034392d313863382d392031312d31382031362d333720362d323120392d333120362d34302d322d362d352d31302d362d31386c322d313863322d313020362d323620352d343220302d31342d352d32362d372d33336c2d31302d3232632d362d31382d322d32312d382d33322d352d392d382d392d31372d32322d382d31322d392d31382d31342d32352d392d31372d32332d32352d33382d33332d33352d32302d36392d32302d38322d31392d313520312d333620322d35382031362d3320322d33352032342d33372035327a4d323430203233633137203320323520352033352031312031332038203139203137203239203333613139372031393720302030313335203130366332203231203220333120302034302d3320392d382031362d31302033316c2d32203134633020342d332031382d31302033312d3320372d392031332d32322032372d31332031322d31372031352d32312032342d3320362d3220392d362031352d3420372d382031322d31342031372d392031302d313120392d32322031392d3920392d382031302d31342031342d3820362d313720392d32352031302d313420312d32352d372d34352d32332d31302d382d34302d33322d34332d35376c2d312d31312d332d3239632d332d32322d382d32332d392d333720302d313320332d313320372d333820342d323020312d323120352d353320332d323420342d323020352d333420312d32322d312d333220342d34386c382d313863322d3320382d31342032302d323520362d352032302d31372034312d32322031382d352033332d3220353820337aa264697066735822122089433d98527fc9569fdd616d2177b913edd35f07bd85d5fd91003924e7861ffc64736f6c63430008090033",
  "linkReferences": {},
  "deployedLinkReferences": {}
}